:020000040800F2
:10000000000002201D1100084D1300084F130008C6
:100010005113000853130008551300080000000096
:10002000000000000000000000000000571300085E
:1000300059130008000000005B1300085D1300085E
:100040006D1100086D1100086D1100086D11000898
:100050006D1100086D1100086D1100086D11000888
:100060006D1100086D1100086D1100086D11000878
:100070006D1100086D1100086D1100086D11000868
:100080006D1100086D1100086D1100086D11000858
:100090006D1100086D1100086D1100086D11000848
:1000A0006D1100086D1100086D1100086D11000838
:1000B0006D1100086D1100086D1100086D11000828
:1000C0006D1100086D1100086D1100086D11000818
:1000D0006D1100086D1100086D1100086D11000808
:1000E000611300086D110008000000006D11000888
:1000F0006D1100086D1100086D1100086D110008E8
:100100006D1100086D1100086D1100086D110008D7
:100110006D1100086D1100086D1100086D110008C7
:100120006D1100086D1100086D1100086D110008B7
:100130006D1100086D1100086D1100086D110008A7
:1001400000000000000000000000000000000000AF
:100150006D1100086D1100086D1100086D11000887
:100160006D1100086D1100086D1100086D11000877
:100170006D1100086D1100086D11000800000000ED
:100180006D1100086D1100086D1100086D11000857
:100190006D1100086D1100086D1100086D11000847
:1001A0006D1100086D1100086D1100086D11000837
:1001B0006D1100086D1100086D1100086D11000827
:1001C0006D1100086D1100086D1100086D11000817
:1001D0006D1100086D1100086D1100086D11000807
:1001E0006D1100086D1100086D1100086D110008F7
:1001F0006D1100086D1100086D1100086D110008E7
:100200006D1100086D1100086D1100086D110008D6
:100210006D1100086D1100086D1100086D110008C6
:100220006D1100086D1100086D110008000000003C
:100230006D1100086D110008000000006D1100082C
:100240006D1100086D1100086D1100086D11000896
:100250006D1100086D1100086D1100086D11000886
:100260006D1100086D1100086D1100086D11000876
:100270006D1100086D1100086D11000800000000EC
:100280006D1100086D1100086D11000800000000DC
:08029000000000006D110008E0
:1002980010B5054C237833B9044B13B10448AFF3B8
:1002A80000800123237010BD100000200000000012
:1002B800B013000808B5034B1BB103490348AFF35B
:1002C800008008BD0000000014000020B0130008E2
:1002D800022830B58BB03ED8204BD3F8E02010BBB5
:1002E80042F00202C3F8E020D3F8E03003F0020342
:1002F8000293029B1A4B0024012205A933F81050DF
:1003080003EB8000CDE90624806803220595089256
:10031800019000F07DF901982246294600F05EFA26
:1003280020460BB030BD01280AD142F01002C3F8B4
:10033800E020D3F8E03003F010030393039BD9E7E0
:1003480042F00202C3F8E020D3F8E03003F00203E1
:100358000493049BCEE76FF00100E2E700440258E3
:10036800C8130008022810B50AD8074B012203EB6E
:10037800800433F81010A06800F030FA002010BD97
:100388006FF00100FBE700BFC8130008022808B59A
:1003980009D8064B03EB800233F81010906800F080
:1003A80022FA002008BD6FF00100FBE7C81300081F
:1003B8001A491B48D1F8883043F4700310B5C1F8C6
:1003C8008830184B1A6842F001021A6000221A613C
:1003D8001C68204018609A61DA611A629A62DA62CF
:1003E8001A635A639A63DA631A645A64186820F4C1
:1003F800802018601A660C4B1B681B0C1B04B3F199
:10040800005F02D2094B01221A60094B43F2D20263
:100418001A604FF000638B6010BD00BF00ED00E074
:100428007FEDF6EA004402580010005C0881005194
:10043800004000527047000070B50F4E05463078F6
:1004480008B9012070BD4FF47A730C4AB3FBF0F37E
:100458001068B0FBF3F000F0C5F804460028F0D1AE
:100468000F2DEED8024629464FF0FF3000F07AF8FB
:1004780020467560E6E700BF080000200000002065
:1004880010B5032000F05CF800F07EFC0F49104A1C
:100498008B69C3F30323D35C03F01F03D8408B6934
:1004A80003F00F03D35C0B4A03F01F0320FA03F396
:1004B8001360094B18600F20FFF7BEFF044618B9F8
:1004C800FFF7B8FF204610BD0124FBE7004402589F
:1004D800DC1300080400002000000020034A044B3D
:1004E80011681B780B441360704700BF3000002070
:1004F80008000020014B1868704700BF300000203A
:1005080038B50446FFF7F6FF0546631C1EBF044BCB
:100518001B78E418FFF7EEFF431BA342FAD338BD5C
:1005280008000020014B1868000C70470010005CA0
:10053800024A136A43F0010313627047000400582B
:1005480007490302CA6803F4E06322F4E062120474
:10055800120C134343F0BF6343F40033CB6070477E
:1005680000ED00E0164B30B5DC68C4F30224C4F19A
:100578000705231D042D28BF0425062B4FF0FF3344
:100588008CBF033C002403FA05F5002803FA04F3A2
:1005980021EA050122EA030201FA04F141EA020311
:1005A8004FEA0313DBB206DB00F1604000F561405F
:1005B80080F8003330BD00F00F00024A1354F9E709
:1005C80000ED00E014ED00E0002808DB01234209FB
:1005D80000F01F0003FA00F0014B43F822007047B7
:1005E80000E100E00138B0F1807F0AD2064BF0212B
:1005F800064A5860002082F82310072298601A6083
:1006080070470120704700BF10E000E000ED00E0F7
:100618002DE9F74F0023DFF8BC81DFF8BCC14FF0AC
:10062800B0490A6832FA03F402D103B0BDE8F08F8A
:1006380001279F403A4000F0B6804C684FEA430ECD
:10064800032524F0100A05FA0EF50AF1FF36ED43EA
:10065800012E10D8866806EA050BCE6806FA0EF653
:1006680046EA0B068660466826EA0707C4F30016C2
:100678009E4037434760C768BAF1020F8E6807EAA1
:10068800050706FA0EF646EA0706C66014D14FEAD1
:10069800D30A03F0070B0F2700EB8A0A4FEA8B0BEC
:1006A800DAF8206007FA0BF726EA07070E6906FA58
:1006B8000BF63E43CAF820600668354004F003068E
:1006C80006FA0EFE4EEA05050560E5006BD5D8F87A
:1006D800F45023F0030603F003074FF00F0E45F024
:1006E800020506F1B046BF00C8F8F45006F580666A
:1006F800D8F8F45005F002050195019D0EFA07F5AA
:10070800D6F808A02AEA050E314DA8424DD005F5C5
:100718008065A8424BD005F58065A84249D005F50B
:100728008065A84247D005F58065A84245D005F503
:100738008065A84243D005F58065A84241D005F5FB
:100748008065A8423FD005F58065A8423DD005F5F3
:100758008065A8420CBF09250A25BD40E70345EA84
:100768000E05B5606FEA0206DCF8005054BF35404C
:100778001543A703CCF80050DCF8045054BF3540AB
:100788001543E7024FF0B047CCF80450D9F80050B1
:1007980054BF35401543A4023D607D6854BF3540C1
:1007A8001543C9F8045001333BE70025D5E7012577
:1007B800D3E70225D1E70325CFE70425CDE70525B3
:1007C800CBE70625C9E70725C7E70825C5E700BF22
:1007D8000000025800440258800000580AB18161A4
:1007E80070470904FBE7436901EA030221EA0301B0
:1007F80041EA0241816170474FF0B042D2F8881057
:10080800014208B503D0C2F8880000F091FD08BD88
:1008180038B5104CE36813F0040FE36805D103F012
:100828000703181A18BF012038BD23F0070318431F
:10083800E060FFF75FFE054663689B0401D5002072
:10084800F2E7FFF757FE401BB0F57A7FF4D9012095
:10085800EAE700BF00480258F8B50446002874D0FB
:100868000368D8075ED42368990700F1B08023682D
:10087800DA0627D5AA4B1A69996A02F03802082ABB
:1008880007D0182A40F00E8101F00302012A40F037
:1008980009811B68DB0502D5E369802B55D1FFF779
:1008A80041FE41F20303216A98429D4B00F2F38016
:1008B8005A68202922F0F8420CBF42F0804242EAEE
:1008C80081625A602368190700F12E8123689A060D
:1008D80000F14F8123685D071ED5924D2B6843F4C4
:1008E80080732B60FFF706FE06462B68DA0540F199
:1008F8006581A3688A4D012B40F067812B6F43F017
:1009080001032B6741F28837FFF7F4FD844E054653
:10091800336F9B0740F17F81616A002940F0828133
:1009280000202AE07E4B1A69996A02F03802102AE0
:1009380005D0182A0BD101F00302022A07D11B683F
:100948009A0390D56368002B8DD1012015E0626869
:10095800B2F5803F12D11A6842F480321A60FFF76C
:10096800C9FD6F4E054633689B033FF57CAFFFF723
:10097800C1FD401B6428F6D90320F8BD684D2B68DB
:100988009AB923F480332B602B6823F480232B60DF
:10099800FFF7B0FD06462B689F037FF564AFFFF7AE
:1009A800A9FD801B6428F6D9E6E7B2F5A02F07D188
:1009B80043F480232B602B6843F480332B60CEE70D
:1009C80023F480332B602B6823F48023F6E7544B01
:1009D8001A69996A12F0380203D0182A1FD18E07B3
:1009E8001DD11B685D0702D5E368002BADD0FFF76A
:1009F80099FD41F2030321699842494B5A6809D885
:100A080022F47C3240290CBF42F4003242EA01321F
:100A18005A602CE722F0FE4242EA0162F8E7E168F8
:100A28001A6839B322F019023D4D0A431A60FFF7DC
:100A380061FD06462B68580711D5FFF773FD41F293
:100A48000303226998426B680FD823F47C33402A49
:100A58000CBF43F4003343EA02336B6007E7FFF748
:100A680049FD801B0228E5D986E723F0FE4343EAC7
:100A78000263F2E722F00102294E1A60FFF73AFDFD
:100A88000546336859077FF5F2AEFFF733FD401B83
:100A98000228F6D970E7DA6822F07C5242EA01624D
:100AA800DA600FE7E2694AB31A681D4D42F0800226
:100AB8001A60FFF71FFD06462B68DF0511D5FFF703
:100AC80031FD41F20303226A984210D86B68202A4C
:100AD80023F0F8430CBF43F0804343EA82636B6022
:100AE800F0E6FFF707FD801B0228E5D944E7EB682D
:100AF80023F07C5343EA0263EB60E3E61A68084E8E
:100B080022F080021A60FFF7F5FC05463368D80525
:100B18007FF5D8AEFFF7EEFC401B0228F6D92BE78D
:100B280000440258004802586369964D83B16B6FC0
:100B380043F001036B67FFF7DDFC06466B6F9B070D
:100B48003FF5C4AEFFF7D6FC801B0228F6D913E7A1
:100B58006B6F23F001036B67FFF7CCFC06466B6FE6
:100B68009F077FF5B3AEFFF7C5FC801B0228F6D9B7
:100B780002E7A369834D83B12B6843F480532B604C
:100B8800FFF7B8FC06462B6898043FF5A3AEFFF7BD
:100B9800B1FC801B0228F6D9EEE62B6823F48053BB
:100BA8002B60FFF7A7FC06462B6899047FF592AEE9
:100BB800FFF7A0FC801B0228F6D9DDE6FFF79AFCB8
:100BC800801B64287FF691AED6E6B3B92B6F41F24D
:100BD800883723F001032B672B6F23F004032B675F
:100BE800FFF788FC06462B6F98077FF595AEFFF751
:100BF80081FC801BB842F6D9BEE6052B2B6F03D1CA
:100C080043F004032B6779E623F001032B672B6F6E
:100C180023F0040375E6FFF76DFC401BB8427FF62E
:100C280077AEA9E6574D2B6903F03803182B7AD015
:100C38002B68022923F080732B6067D1FFF75AFCD9
:100C480006462B6899015BD4AB6AA26A23F47C73CD
:100C580023F003031343E26A43EA0213AB62636BB4
:100C6800A26B013B013A5B0212049BB202F4FE0242
:100C78001343226B013AC2F308021343E26B013AB1
:100C8800120602F0FE4213432B63EB6A23F00103C2
:100C9800EB626B6BA26C23F47F4323F0F80343EA07
:100CA800C2036B63EB6A226C23F00C031343EB6201
:100CB800EB6A626C23F002031343EB62EB6A43F4C2
:100CC8008033EB62EB6A43F40033EB62EB6A43F484
:100CD8008023EB62EB6A43F00103EB622B6843F07D
:100CE80080732B60FFF706FC264D04462B689A019B
:100CF8003FF516AEFFF7FEFB001B0228F6D93BE6D0
:100D0800FFF7F8FB801B02289BD935E6FFF7F2FBBB
:100D180004462B689B017FF503AEFFF7EBFB001B36
:100D28000228F6D928E60129AA6A2B6B3FF40DAEF2
:100D380002F00301A06A81427FF407AEC2F30512F4
:100D4800E16A8A427FF401AE226BC3F30801013ADB
:100D580091427FF4FAAD626BC3F34621013A9142A6
:100D68007FF4F3ADA26BC3F30641013A91427FF4DD
:100D7800ECADE26BC3F30663013A93423FF4D0ADA6
:100D8800E3E500BF00440258484B1A6902F03802F4
:100D9800102A30B500F08680182A0CD0002A40F0BE
:100DA80083801A68424812F0200F03D01B68C3F3EF
:100DB800C103D84030BD996A9D6ADA6A15F47C7F10
:100DC800C5F305105C6BF5D0C4F3CC0402F0010246
:100DD80007EE900A01F003016243B7EE006AF8EEED
:100DE800E76A012907EE902AFAEEE97A4CD002293F
:100DF8003CD0002948D11A68920627D519682C4A90
:100E0800C1F3C1011B6BCA40C3F3080307EE102AE4
:100E1800F8EEC75A85EEA67A06EE903AF8EEE66A3C
:100E280076EEA77A77EE867A204B67EE877A1B6B89
:100E3800C3F34623013307EE103AF8EEC76A87EE8C
:100E4800A67AFCEEC77A17EE900AB3E71B6BC3F3DA
:100E5800080307EE103AB8EEC77A77EE277A77EEEE
:100E6800867A9FED146A86EE267ADDE71B6BC3F35C
:100E7800080307EE103AB8EEC77A77EE277A77EECE
:100E8800867A9FED0D6AEEE71B6BC3F3080307EE46
:100E9800103AB8EEC77A77EE277A77EE867A9FED22
:100EA800076AE0E7064885E7064883E700440258F2
:100EB8000090D0030024744C0024F44A0024744A9F
:100EC80000127A0000093D002DE9F0410D46044664
:100ED80010B90120BDE8F081884A136803F00F03B8
:100EE8008B42C0F0938023685F0700F19B801E0748
:100EF8000BD583496669C86900F07000864204D939
:100F0800CA6922F070023243CA61D8060BD57C49FF
:100F1800A669C86900F4E060864204D9CA6922F467
:100F2800E0623243CA6199060BD57549E669086AD9
:100F380000F07000864204D90A6A22F07002324337
:100F48000A629A070BD56E49E668886900F00F00B7
:100F5800864204D98A6922F00F0232438A61DF0788
:100F68006ED423689E0700F1A18064490A6802F0E4
:100F78000F02AA4200F2A880580700F1B1801907B1
:100F88000BD55F496569C86900F07000854204D2D5
:100F9800CA6922F070022A43CA61DA060BD5584999
:100FA800A569C86900F4E060854204D2CA6922F4E0
:100FB800E0622A43CA619B060BD5514AE069116A6F
:100FC80001F07001884204D2136A23F070030343CE
:100FD8001362FFF7D9FE4A494A4A8B69C3F30323D0
:100FE800D35C03F01F03D8408B6903F00F03D35C75
:100FF800454A03F01F0320FA03F31360434B1860BC
:10100800434BBDE8F0411868FFF716BA136823F0A0
:101018000F030B431360136803F00F038B427FF435
:1010280058AF60E736492669886900F07000864243
:101038007FF65DAF8A6922F0700232438A6156E713
:101048002F4BA1689A6922F470620A439A61626818
:101058001B68022A1DD113F4003F3FF43AAF284E13
:1010680041F28838336923F0070313433361FFF7EC
:1010780041FA07463369626803F03803B3EBC20FDD
:101088003FF46FAFFFF736FAC01B4045F2D9032093
:1010980020E7032A02D113F0007FDEE7012A02D1FC
:1010A80013F4807FD9E713F0040FD6E71449E668F4
:1010B800886900F00F008642BFF457AF8A6922F0B2
:1010C8000F0232438A6150E70A6822F00F022A436E
:1010D8000A600A6802F00F02AA427FF4FAAE4BE7F0
:1010E80007492569886900F070008542BFF447AF59
:1010F8008A6922F070022A438A6140E70020005280
:1011080000440258DC1300080400002000000020FE
:101118000C000020DFF834D0002103E00C4B5B58B2
:10112800435004310B480C4B42189A42F6D30B4AF1
:1011380002E0002342F8043B094B9A42F9D3FFF737
:1011480037F900F00DF900F00FF8704700000220A1
:10115800F4130008000000201000002010000020F8
:1011680034000020FEE700006A4B5A6912F400328E
:1011780000B59FB011D1BFF34F8FBFF36F8FC3F886
:101188005022BFF34F8FBFF36F8F5A6942F400327A
:101198005A61BFF34F8FBFF36F8F5E4A536913F4E1
:1011A800803323D1C2F88430BFF34F8FD2F8803018
:1011B80043F6E074C3F3C900C3F34E335B0103EA9B
:1011C8000406014646EA81750139C2F86052F9D22F
:1011D800203B13F1200FF2D1BFF34F8F536943F433
:1011E80080335361BFF34F8FBFF36F8FFFF748F919
:1011F8000220FFF70DFB00230193474BDA6A22F028
:101208000102DA62DB6A03F001030193434B9A6936
:1012180042F440429A619A6902F440420192019A6A
:101228009A699404FCD501204FF4A02302260424D3
:101238004FF4C8721896CDE90B0300230BA80E9340
:1012480012931D93CDE91466CDE91642CDE91946EE
:10125800CDE91B43FFF700FB18B13046FFF782F8D2
:10126800FEE73F2203230821059003A8CDE90323C5
:1012780040234FF48062CDE9061321460893CDE957
:101288000923FFF721FE044618B13046FFF76AF834
:10129800FEE7234D2B6843F080032B60D5F8F4302C
:1012A80043F00203C5F8F430D5F8F43003F0020334
:1012B8000293029BFFF73CF92046FFF709F8D5F89F
:1012C800E0300BA9174843F00403C5F8E030D5F81F
:1012D800E030154D03F004030393039B134BCDE952
:1012E8000C344FF400530B93FFF792F92246314622
:1012F8002820FFF737F92820FFF766F92B68002B1D
:10130800FCD00020FFF742F805202C60FFF7F8F822
:10131800F4E700BF00ED00E0000400580048025860
:1013280000440258000802582C0000200000111147
:10133800B0F5005F02D1024B01221A60704700BF6E
:101348002C0000207047FEE7FEE7FEE7FEE7704747
:1013580070477047FFF7C2B84FF40050FFF74CBA18
:1013680070B50D4D0D4C641BA4100026A64209D182
:101378000B4D0C4C00F018F8641BA4100026A64274
:1013880005D170BD55F8043B98470136EEE755F88E
:10139800043B98470136F2E7EC130008EC13000809
:1013A800EC130008F0130008F8B500BFF8BC08BC3F
:1013B8009E467047F8B500BFF8BC08BC9E4670470B
:1013C800010002000040000000040258001002580A
:1013D8000004025800000000010203040102030493
:0413E80006070809E3
:0413EC00BD02000836
:0413F0009902000856
:1013F4000090D0030090D003010000001000000012
:040000050800111DC1
:00000001FF
