:020000040800F2
:10000000B0080020F51E0008CD1E0008CF1E000815
:10001000D11E0008D31E0008D51E000800000000F5
:10002000000000000000000000000000D71E0008D3
:10003000D91E000800000000DB1E0008DD1E0008BD
:100040001D1F0008211F0008251F0008291F000888
:100050002D1F0008311F0008351F0008391F000838
:100060003D1F0008411F0008451F0008491F0008E8
:100070004D1F0008511F0008551F0008591F000898
:100080005D1F0008611F0008651F0008691F000848
:100090006D1F0008711F0008751F0008791F0008F8
:1000A0007D1F0008811F0008851F0008891F0008A8
:1000B0008D1F0008911F0008951F0008991F000858
:1000C0009D1F0008A11F0008A51F0008A91F000808
:1000D000AD1F0008B11F0008B51F0008B91F0008B8
:1000E000BD1F0008C11F0008C51F0008C91F000868
:1000F000CD1F0008D11F0008D51F0008D91F000818
:10010000DD1F0008E11F0008E51F0008E91F0008C7
:10011000ED1F0008F11F0008F51F0008F91F000877
:10012000FD1F000801200008052000080920000824
:100130000D200008112000081520000819200008D3
:100140001D20000821200008252000082920000883
:100150002D20000831200008352000083920000833
:100160003D200008412000084520000849200008E3
:100170004D20000851200008552000085920000893
:100180005D20000861200008652000086920000843
:100190006D200008712000087520000879200008F3
:1001A0007D200008812000088520000889200008A3
:1001B0008D20000891200008952000089920000853
:1001C0009D200008A12000087CB50400012600F055
:1001D000FBFB0500002C01D101205AE0206A4028D9
:1001E00094F84000012801D1022052E0012084F857
:1001F000400094F8410000280AD1002084F8400013
:10020000200000F0E0FB41F28831200000F0B4FA59
:100210002068006830F4F850A168491E50EA0120B7
:1002200021680860A06C00902B0000222021200093
:1002300000F0A4FA0100C9B2002926D121680A6899
:1002400014490A40616852EA0162E1680A43E169BF
:100250000A43216A0A4321680A6021684A680E49F4
:100260000A40216952EA014261690A43A1690A43CD
:1002700021684A602168096851F001012268116013
:1002800000216164012184F84110002184F84010AC
:10029000C0B276BD2FFFFF00FEF8E0FF10B50400EE
:1002A000002C01D101201AE094F84000012801D16E
:1002B000022014E0012084F8400020680068400813
:1002C000400021680860200000F084FB002060648A
:1002D000002084F84100002084F84000002010BD78
:1002E0002DE9F84304000D0016005FF0010800F04E
:1002F0006BFB0700A8690028E8690028286A002825
:1003000094F84000012801D102203DE0012084F84A
:10031000400094F8410001282FD1002060640220A1
:1003200084F8410000963B0000222021200000F0CC
:1003300025FA81464846C0B2002820D10022290073
:10034000200000F044FA686A002812D100963B00B1
:1003500001220221200000F011FA81464846C0B275
:1003600000280CD102202168C860012084F84100D7
:1003700005E0012084F8410001E05FF0020900205F
:1003800084F840004846C0B2BDE8F2832DE9F84346
:1003900005000C001600002700F016FB80462868B8
:1003A00010F1200995F84000012801D102205EE0FB
:1003B000012085F8400095F84100012850D1002027
:1003C0006864002C45D0122085F841002868006937
:1003D000401CE86228680069401CA8626C622868BA
:1003E000406930F0406029684861E86A002815D00B
:1003F0000096434601220421280000F0BFF90700BF
:100400003800C0B2002809D1686A411C69620078CE
:1004100089F80000E86A401EE862E6E73800C0B2EA
:10042000002812D10096434601220221280000F044
:10043000A5F907003800C0B2002806D102202968BB
:10044000C860280000F04CF90700012085F8410041
:1004500008E0686C50F0080068640120070001E0C3
:1004600002200700002085F840003800C0B2BDE837
:10047000F2832DE9FC4705000C001600002700F070
:10048000A3FA80462868D0F81890286810F1200A4E
:1004900095F84000012801D1022063E0012085F891
:1004A000400095F84100012855D100206864002CD7
:1004B0004AD0222085F8410028680069401CA863C2
:1004C00028680069401C68632C632868406930F024
:1004D000406050F08060296848612868C0F8189032
:1004E000A86B002815D0009643460122062128005B
:1004F00000F044F907003800C0B2002809D1286B89
:10050000411C29639AF800100170A86B401EA86373
:10051000E6E73800C0B2002812D100964346012217
:100520000221280000F02AF907003800C0B2002894
:1005300006D102202968C860280000F0D1F8070021
:10054000012085F8410008E0686C50F008006864FC
:100550000120070001E002200700002085F840008C
:100560003800C0B2BDE8F6872DE9FC4704000D0055
:1005700016001F005FF0010800F026FA8146A86906
:100580000028E8690028286A002894F8400001281B
:1005900001D102204CE0012084F8400094F8410091
:1005A00001283ED100206064422084F84100009779
:1005B0004B4600222021200000F0E0F88246504601
:1005C000C0B200282FD13068216888627068216825
:1005D0004862B0682168C8622068016831F440014F
:1005E0003069014351F4800120680160F068A8621D
:1005F0005FF000622900200000F0E9F800974B4608
:1006000001220821200000F0B9F882465046C0B20D
:10061000002808D108202168C860012084F8410022
:1006200001E05FF0020A002084F840005046C0B2AA
:10063000BDE8F6872DE9F84304000D0016005FF0D1
:10064000010800F0C1F90700A8690028E86900283E
:10065000286A002894F84000012801D102203DE0DA
:10066000012084F8400094F8410001282FD1002097
:100670006064822084F84100A06C00903B0000225E
:100680002021200000F07AF881464846C0B20028B8
:100690001FD12068016831F00801706801432068AB
:1006A0000160706808280BD1306821680863102049
:1006B0002168C8602068006850F4801021680860D4
:1006C0005FF040622900200000F081F801E05FF057
:1006D0000209002084F840004846C0B2BDE8F28319
:1006E0007CB50400002500F06FF9060094F8410085
:1006F00080073ED5002084F840002068006840074D
:1007000011D52068006830F0040021680860E06BB3
:1007100000F07EF905002800C0B2002803D0606C0C
:1007200050F0040060642068006850F00200216806
:100730000860A06C0090330001220221200000F02C
:100740001DF805002800C0B200280BD10220216846
:10075000C860A06C0090330000222021200000F02F
:100760000DF805002800C0B2002802D1012084F84D
:1007700041002800C0B276BD816470472DE9F04188
:1007800005000E0090461F00069C286880683042D5
:1007900001D0012000E000204146C0B2C9B2884229
:1007A00012D014F1010FF0D0002C04D000F00CF99D
:1007B000C01B8442E9D2042085F84100686C50F0E7
:1007C00001006864012000E00020BDE8F08110B461
:1007D0004B6A002B06D0B2F1406F03D08B6A5B1ED0
:1007E000046823618B69002B79D00B6A002B3ED003
:1007F0008B680468E361CB69002B20D0CC6A0B6B5B
:100800001C434B6B1C434B6A1C434B6954EA8344A7
:100810000B691C430B6A1C43CB681C43CB691C430C
:100820008B691C430B681C43144303685C61B2F181
:10083000406F00F0C6804B680468A361C1E0CC6AD9
:100840000B6B1C434B6B1C434B6A1C434B6954EAB8
:1008500083440B691C430B6A1C43CB691C438B69A3
:100860001C430B681C43144303685C61A9E0CB691B
:10087000002B1ED0CC6A0B6B1C434B6B1C434B6A8A
:100880001C434B6954EA83440B6A1C43CB681C43EA
:10089000CB691C438B691C430B681C4314430368DE
:1008A0005C61B2F1406F00F08C804B680468A3611A
:1008B00087E0CC6A0B6B1C434B6B1C434B6A1C439D
:1008C0004B6954EA83440B6A1C43CB691C438B6914
:1008D0001C430B681C43144303685C6171E00B6AA2
:1008E000002B39D08B680468E361CB69002B1DD0E5
:1008F000CC6A0B6B1C434B6B1C434B6A1C434B6910
:1009000054EA83440B691C430B6A1C43CB681C43A9
:10091000CB691C438B691C43144303685C61B2F1CF
:10092000406F4ED04B680468A3614AE0CC6A0B6B01
:100930001C434B6B1C434B6A1C434B6954EA834476
:100940000B691C430B6A1C43CB691C438B691C431A
:10095000144303685C6134E0CB69002B1BD0CC6A84
:100960000B6B1C434B6B1C434B6A1C434B6954EA97
:1009700083440B6A1C43CB681C43CB691C438B69C3
:100980001C43144303685C61B2F1406F19D04B689B
:100990000468A36115E04B6A002B12D0CC6A0B6B84
:1009A0001C434B6B1C434B6A1C434B6954EA834406
:1009B0000B6A1C43CB691C438B691C4314430368BB
:1009C0005C6110BC7047704701480068704700BF09
:1009D000AC000020704730B4002513E050F8042B21
:1009E000D30744BFA9F101039A18091F042942F84B
:1009F000045BFAD213468C0744BF15809B1CC907C1
:100A000048BF1D7050F8041B0029E7D130BC704767
:100A100070B50400A56DFFF7D7FF060094F8350008
:100A2000022806D080206065002084F83400012070
:100A30003BE02068006830F01600216808602068FC
:100A4000406930F0800021684861206C002802D1A4
:100A5000A06C002805D02068006830F008002168EC
:100A6000086020680068400840002168086020682D
:100A70000068C0070ED5FFF7A7FF801B0628F6D336
:100A800020206065002084F83400032084F83500BD
:100A900003200AE03F21E06D8140A960002084F836
:100AA0003400012084F83500002070BD2DE9FC41A0
:100AB00004000026002C01D10120D8E12078C007D5
:100AC0006DD5DFF89405016811F00C01042909D0F7
:100AD000006810F00C0008280ED1DFF880050068CF
:100AE000400209D5DFF86C050068800357D56068BF
:100AF000002854D10120BAE16068B0F5803F06D1EA
:100B0000DFF85005016851F48031016026E060682B
:100B100000280AD1DFF83C05016831F4803101601A
:100B2000016831F48021016018E06068B0F5A02F01
:100B30000AD1DFF82005016851F4802101600168C5
:100B400051F48031016009E0DFF80805016831F4F3
:100B500080310160016831F4802101606068002803
:100B60000ED0FFF731FF0500DFF8E80400688003CE
:100B700015D4FFF729FF401B6528F5D3032076E144
:100B8000FFF722FF0500DFF8CC040068800306D5DC
:100B9000FFF71AFF401B6528F5D3032067E1207893
:100BA000800752D5DFF8B004016811F00C0F09D0AE
:100BB000006810F00C00082816D1DFF8A0040068C7
:100BC000400211D4DFF88C040168890704D5E1687C
:100BD000012901D001204AE1016831F0F8012269C0
:100BE00051EAC201016030E0E06800281AD0DFF865
:100BF0006474386850F001003860FFF7E5FE0500C6
:100C00003868800706D4FFF7DFFE401B0328F7D3C0
:100C100003202CE1386830F0F800216950EAC10067
:100C2000386012E0DFF82C74386840084000386003
:100C3000FFF7CAFE05003868800706D5FFF7C4FE37
:100C4000401B0328F7D3032011E12078000728D5A3
:100C50006069002812D0DFF80874386850F001008D
:100C60003860FFF7B1FE05003868800719D4FFF738
:100C7000ABFE401B0328F7D30320F8E0DFF8E07356
:100C80003868400840003860FFF79EFE050038686D
:100C9000800706D5FFF798FE401B0328F7D30320F3
:100CA000E5E02078400740F18780DFF8C0733868BE
:100CB000C0000AD4386850F080503860386810F0AE
:100CC00080500090009801200600DFF8A483D8F837
:100CD0000000C00513D4D8F8000050F48070C8F8A4
:100CE0000000FFF771FE0500D8F80000C00506D42B
:100CF000FFF76AFE401B6528F6D30320B7E0A06823
:100D0000012806D1DFF86C03016851F00101016090
:100D100025E0A06800280AD1DFF8580301684908D7
:100D200049000160016831F00401016017E0A0682A
:100D300005280AD1DFF83C03016851F00401016085
:100D4000016851F00101016009E0DFF82803016842
:100D5000490849000160016831F004010160A068A0
:100D6000002810D0FFF730FE0500DFF80803006808
:100D7000800719D4FFF728FE401B41F289318842D1
:100D8000F3D3032073E0FFF71FFE0500DFF8E40252
:100D90000068800708D5FFF717FE401B41F2893134
:100DA0008842F3D3032062E03000C0B2012803D1AF
:100DB000386830F080503860A069002856D0DFF8DD
:100DC0009802006810F00C0008284DD0A069022895
:100DD00037D1DFF88072386830F080703860FFF704
:100DE000F3FD80463868800107D5FFF7EDFDB0EBD5
:100DF00008000328F6D3032039E0E169206A0143A3
:100E0000606A51EA8011A06A4008401E51EA004120
:100E1000E06A51EA006151F00051DFF840020160E0
:100E2000386850F080703860FFF7CEFD05003868F4
:100E300080011BD4FFF7C8FD401B0328F7D3032014
:100E400015E0DFF81072386830F080703860FFF716
:100E5000BBFD05003868800108D5FFF7B5FD401BD4
:100E60000328F7D3032002E0012000E00020BDE8C2
:100E7000F6812DE9F04104000D000026002C01D17F
:100E800001209FE0DFF8F071386810F00F00A842F1
:100E90000BD238680009000128433860386810F028
:100EA0000F00A84201D001208CE02078800719D5DE
:100EB0002078400705D5DFF8A001016851F4E05122
:100EC00001602078000705D5DFF88C01016851F436
:100ED00060410160DFF880110A6832F0F002A0681A
:100EE00002430A602078C00737D56068012806D120
:100EF000DFF860010068800311D4012062E06068BF
:100F0000022806D1DFF84C010068800107D40120D7
:100F100058E050480068800701D4012052E0DFF813
:100F20003881D8F800108908890060680143C8F842
:100F30000010FFF749FD0600D8F8000010F00C0083
:100F40006168B0EB810F08D0FFF73EFD801B41F2D6
:100F500089318842F0D3032034E0386810F00F0064
:100F600085420BD238680009000128433860386890
:100F700010F00F00A84201D0012023E020784007A4
:100F800006D535490A6832F4E052E06802430A6047
:100F90002078000707D53048016831F460412269A4
:100FA00051EAC201016000F00FF834492A4A126880
:100FB000C2F30312895CC8402B4908600F2000F07F
:100FC00061F80020BDE8F0812DE9F0410024002502
:100FD000002600272048006810F00C00002804D0EC
:100FE000042804D0082804D031E01E4830E024480A
:100FF0002EE0DFF86880D8F8000010F03F00040011
:10100000D8F8000040020CD5D8F80000C0F38810D2
:101010001B49A1FB00012200002300F059F8050044
:101020000BE0D8F80000C0F388100E49A1FB0001C6
:101030002200002300F04CF80500D8F80000C0F3AF
:101040000140401C40000600B5FBF6F000E00548FA
:10105000BDE8F08100380240083802400438024000
:10106000743802400024F40004000020403802409C
:101070000070004070380240003C0240E41E00084E
:1010800040787D0110B504004FF47A700D4909785D
:10109000B0FBF1F00C490968B1FBF0F000F0B0F9D9
:1010A000002801D001200CE0102C09D200222100E0
:1010B0005FF0FF3000F08FF904480460002000E08A
:1010C000012010BD080000200400002000000020C6
:1010D000BBBBE1B1B2F5803F80F07E80022A1ED911
:1010E0008C46B1FBF2F102FB11C31B0443EA10432F
:1010F000B3FBF2FC02FB1C3380B240EA0343B3FBB8
:10110000F2F002FB103240EA0C4000237047022A42
:1011100005D98446B0FBF2F002FB10C270474AB119
:1011200005D100F0010249085FEA30007047002253
:101130000023704700F078B90B0002000021002066
:101140007047904271EB030CF6D3B3F5803F2FD27A
:10115000F0B5B3FA83F7B1FA81F4A7F10F0E3D1B96
:101160005340CEF1200602FA0EF2F3415340B5F19E
:101170000F0746D80F3C2C444140C4F12006A04044
:10118000F1414140B1FBF3F603FB1611A2FB06450A
:10119000001BA94102D2761E8018594180EA010243
:1011A00021FA0EF362FA0EF200215A403046F0BDE9
:1011B00030B4B1FBF3FC03FB1C11A2FB0C45001B7C
:1011C000A94103D2ACF1010C8018594130BC024650
:1011D0000B46604600217047B2F1807F65D3F0B5C1
:1011E000B2FA82F7B1FA81F4C7F10F063D1B22FA79
:1011F00006F307F1110EF24120355A40B5F10F0701
:10120000B8D94140C4F12006A040F1414140B1FBB2
:10121000F3FC03FB1C11A2FB0C45001BA94103D2EC
:10122000BCF1010C801859410F2F12D30F3FC90395
:1012300041EA5041B1FBF3F603FB1611A2FB064550
:10124000D4EBC030A94102D2761E8018594146EA3B
:10125000CC3C07B34140C7F12006B840F1414140C2
:10126000B1FBF3F603FB1611A2FB0645001BA941D7
:1012700002D2761E8018594180EA010221FA0EF34B
:10128000C7F1200462FA0EF20CFA07F05A402CFA69
:1012900004F13043F0BD80EA010221FA0EF300218F
:1012A00062FA0EF260465A40F0BD8C46B1FBF2F194
:1012B00002FB11C31B0243EA1063B3FBF2FC02FB07
:1012C0001C331B024CEA002043EA1063B3FBF2FC20
:1012D00002FB1C331B024CEA002043EA1063B3FB01
:1012E000F2FC02FB1C331B024CEA002043EA1063B1
:1012F000B3FBF2FC02FB1C324CEA002000237047D7
:1013000010B410F00703DFF8044122684FF6FF0124
:101310000A40DFF8FC1051EA03210A43226010BCA6
:101320007047DFF8E8000068C0F30220704710B48F
:10133000020052B2002A05D40A01364B040064B2FE
:101340001A5508E00A01344B040064B214F00F048B
:10135000234403F8042C10BC704770B4030013F04E
:101360000704D4F10700052801D3042001E0D4F1DB
:101370000700251D072D01D2002500E0E51E0126EE
:1013800016FA00F0401E0140A94016FA05F56D1E40
:101390002A401143080070BC704710B50400601E5D
:1013A000B0F1807F01D301200EE0601E1B49086070
:1013B0000F215FF0FF30FFF7BAFF002018490860E7
:1013C000072018490860002010BD10B50400200057
:1013D000FFF796FF10BD2DE9F04104000D00160047
:1013E0000027FFF79EFF8046320029004046FFF7A6
:1013F000B4FF0100200040B2FFF799FFBDE8F08183
:1014000010B504002000FFF7C8FF10BD0CED00E090
:101410000000FA0500E400E018ED00E014E000E050
:1014200018E000E010E000E07047000010B5CC4C80
:10143000CC4820602000FEF731FF002801D00120B9
:1014400055E000F095F9C8480021C1610021016212
:1014500000214162002141610021C162002101633C
:10146000002141634FF40051C160C0480021016177
:101470000121C160102181605FF480014161012080
:1014800060600420A0601020E0608020B0FA80F04E
:10149000401E20614FF4A06060610020A061002028
:1014A000E061002020622000FEF78EFE002801D0BF
:1014B00001201CE0200000F01BF8002801D00120D2
:1014C00015E0200000F0ACF8002801D001200EE06B
:1014D000200000F04DF8002801D0012007E0200096
:1014E00000F028F8002801D0012000E0002010BD05
:1014F00070B504009C4D4FF48070A8616620286090
:101500000020686241F28836320029002000FEF790
:10151000E7FE002801D001200BE09920286032006E
:1015200029002000FEF7DCFE002801D0012000E0A9
:10153000002070BD1CB504008B494FF440708861D9
:10154000EB2008604FF44060C8615FF04070486273
:101550000A20486100200190002000906A46200087
:10156000FFF768F8002801D0012000E0002016BD38
:1015700030B58FB004004FF4807007908520019043
:1015800000200890002009905FF080700A900020F1
:10159000069001200B9000200C9000200D90002060
:1015A0000E9041F288352A0001A92000FEF798FE2E
:1015B000002801D0012031E02A0069462000FEF712
:1015C00058FF002801D0012028E0200000F09EF8FC
:1015D000002801D0012021E0812001909DF8001019
:1015E00011F00F010A225FF07060B0FA80F08240C3
:1015F00011438DF800102A0001A92000FEF770FEAB
:10160000002801D0012009E02A0069462000FEF7E9
:10161000BDFE002801D0012000E000200FB030BD49
:10162000F0B595B004004FF4807007900020099049
:101630000020069000200C9000200D9000200E90BD
:1016400010201190002013905FF48000149065200A
:101650000190002008905FF080750A9501200B90A2
:101660003F4E41F288373A0001A93000FEF738FEBC
:10167000002801D0012047E03A0069463000FEF71B
:10168000F8FE002801D001203EE006200190002055
:101690000A903A0001A93000FEF722FE002801D08E
:1016A000012031E002200F900220109001201290C2
:1016B000052001900A953B000FAA01A93000FEF712
:1016C00053FF002801D001201EE06120019001207D
:1016D0000B909DF8000010F03F0050F040008DF896
:1016E00000003A0001A93000FEF7FAFD002801D001
:1016F000012009E03A0069463000FEF747FE002865
:1017000001D0012000E0002015B0F0BD70B504004C
:10171000154D4FF44070A8610620286000206862D3
:1017200041F28836320029002000FEF7D9FD00285A
:1017300001D0012013E00D4A022010600220506009
:10174000052028605FF040706862330029002000A7
:10175000FEF70AFF002801D0012000E0002070BD44
:101760000C000020001000A0580000209000002075
:1017700010B586B03648016851F00201016000687A
:1017800010F00200059005983248016851F00201FE
:101790000160016831F0020101602F48016851F0D9
:1017A00002010160016811F00201059105990168CB
:1017B00051F008010160016811F0080105910599D7
:1017C000016851F010010160006810F010000590F0
:1017D0000598402000900A200490022001900120EA
:1017E0000290022003901D4C6946200000F03CF856
:1017F00004200090092004900020029069462000F7
:1018000000F032F84FF40060009009200490144C6E
:101810006946200000F028F84FF48050009009201D
:1018200004906946200000F01FF804200090092071
:10183000049069460B4800F017F84FF400500090F0
:10184000092004906946200000F00EF806B010BD93
:101850003838024018380240303802400004024054
:10186000000C0240001002402DE9F8410022002344
:10187000002400260025102D80F00B81012717FA87
:1018800005F213000A681A4014009C4240F0FF80E1
:101890004A68022A02D04A68122A1FD12A00D208B6
:1018A00000EB8202D2F820C05FF00F0E15F00702A5
:1018B000D2B292001EFA02FE3CEA0E0CD1F810E001
:1018C00015F00702D2B292001EFA02FE5EEA0C0C7C
:1018D00066462A00D20800EB82021662D0F800C0E9
:1018E0005FF0030E2A00D2B252001EFA02F23CEA66
:1018F000020C91F8048018F003082A00D2B25200BA
:1019000018FA02F858EA0C0CC0F800C04A68012A1C
:1019100008D04A68022A05D04A68112A02D04A68CB
:10192000122A1BD186682A00D2B252001EFA02F295
:101930009643D1F80C802A00D2B2520018FA02F86D
:1019400058EA060686604268AF40BA434F68C7F35C
:101950000017AF403A439446C0F804C0C6682A0056
:10196000D2B252001EFA02FE36EA0E068F682A0034
:10197000D2B2520097403E43C6604A68D20040F15E
:101980008680DFF81421176857F4804717601268C3
:1019900012F480420092009ADFF800C12A009208F7
:1019A0005CF822705FF00F0E15F00302D2B29200C5
:1019B0001EFA02FE37EA0E07DFF8E420904201D15A
:1019C000002631E0DFF8DC20904201D101262BE037
:1019D000DFF8D420904201D1022625E0DFF8CC20A8
:1019E000904201D103261FE0DFF8C420904201D1CC
:1019F000042619E02F4A904201D1052614E02E4A10
:101A0000904201D106260FE02C4A904201D10726D0
:101A10000AE02B4A904201D1082605E0294A90426B
:101A200001D1092600E00A26F6B215F00302D2B26F
:101A30009200964037432A0092084CF82270224EBA
:101A40003268A243D1F804C05FEACC3C00D52243FF
:101A500032601E4F3E68A643D1F804C05FEA8C3C5A
:101A600000D526433E601A4F3A68A243D1F804C01D
:101A70005FEACC2C00D522433A60164F3E68A6435D
:101A8000D1F804C05FEA8C2C00D526433E606D1C63
:101A9000F1E6BDE8F1810000443802400838014019
:101AA000000002400004024000080240000C024016
:101AB000001002400014024000180240001C0240C6
:101AC0000020024000240240003C0140043C014050
:101AD000083C01400C3C0140BFF34F8FBFF36F8FB8
:101AE000002049490860BFF34F8FBFF36F8F47480D
:101AF000016851F400310160BFF34F8FBFF36F8F66
:101B00007047BFF34F8FBFF36F8F4048016831F4C8
:101B10000031016000203C490860BFF34F8FBFF3E4
:101B20006F8F704710B4002039490860BFF34F8FA2
:101B300038480168C1F34E32C1F3C900030043F6CF
:101B4000E07010EA421050EA8370334C20601800B5
:101B5000431E0028F3D11000421E0028ECD1BFF331
:101B60004F8F2A48046854F480340460BFF34F8FC9
:101B7000BFF36F8F10BC704710B400202449086079
:101B8000BFF34F8F2148016831F480310160BFF30A
:101B90004F8F20480168C1F34E32C1F3C9000300E2
:101BA00043F6E07010EA421050EA83701B4C20604C
:101BB0001800431E0028F3D11000421E0028ECD16B
:101BC000BFF34F8FBFF36F8F10BC704780B500F02D
:101BD00072F800F07DF800F030F800F027F80028E7
:101BE00001D000F029F800F06CF800200C490860E2
:101BF0000C480D49096801605FF01041096881F3E4
:101C0000088800688047FEE750EF00E014ED00E030
:101C100084ED00E080ED00E060EF00E074EF00E0B4
:101C200010E000E0A80000200400009010B500249F
:101C3000FFF7FCFB204310BDFEE730B591B0002458
:101C4000012005905FF48030069002200B905FF435
:101C500080000C9019200D904FF4D8700E90022047
:101C60000F900820109005A8FEF720FF050028001F
:101C7000C0B2002800D0FEE700F03EF804002000CB
:101C8000C0B2002800D0FEE70F2000900220019093
:101C9000002002904FF4A05003904FF48050049025
:101CA00006216846FFF7E5F80100C9B2002900D017
:101CB000FEE711B030BD80B5FFF70EFFFFF732FF32
:101CC00001BD80B5FFF71DFFFFF756FF01BD000006
:101CD00080B50748016851F4807101600320FFF767
:101CE00074FB0F20FFF7CEF900F004F8002002BDCE
:101CF000003C0240704700007CB500241B4801688E
:101D000051F080510160006810F080500090009800
:101D1000154E306850F480303060FEF755FE0500F7
:101D2000104C2068C00308D4FEF74EFE401B40F262
:101D3000E9318842F4D3032013E0306850F40030D6
:101D40003060FEF741FE06002068800308D4FEF7ED
:101D50003BFE801B40F2E9318842F5D3032000E0CE
:101D6000002076BD04700040007000404038024002
:101D70000F48016851F4700101600E49086850F085
:101D80000100086000200C4A10600A680B480240FD
:101D90000A600B480B4A1060086830F48020086025
:101DA0000020094908605FF000600849086070473A
:101DB00088ED00E00038024008380240FFFFF6FEE0
:101DC00010300024043802400C38024008ED00E0D6
:101DD00030B450F8041B79B10268436802440830FB
:101DE000DC0744BFA9F10104E31852F8045B43F88F
:101DF000045B091FF9D1ECE730BC704710B5074907
:101E000079441831064C7C44163404E00A68081DF5
:101E1000114488470146A142F8D110BD2C000000B2
:101E20004C0000004EF68851CEF20001086840F4E4
:101E300070000860BFF34F8FBFF36F8F4FF00070DB
:101E4000E1EE100A704700008FEBFFFFA4000000D6
:101E50000C0000200000000079FFFFFF0C000000D4
:101E6000B0000000000000200000000000F00DF8AD
:101E7000002801D0FFF7C2FFAFF300800020AFF3CE
:101E80000080FFF7A3FE00F002F80120704700F089
:101E900001B800000746384600F002F8FBE70000F2
:101EA00080B5AFF30080024A11001820ABBEFBE7FB
:101EB0002600020003480168034A1278891801606D
:101EC000704700BFAC000020080000207047FEE70C
:101ED000FEE7FEE7FEE770477047704780B5FFF703
:101EE000E9FF01BD00000000000000000102030442
:101EF000060708090148804701480047711D00088E
:101F0000051F0008AFF30080FFF78CFFFFF7AEFF5F
:101F1000100000000024F40001000000FFF7FEBFE5
:101F2000FFF7FEBFFFF7FEBFFFF7FEBFFFF7FEBFE5
:101F3000FFF7FEBFFFF7FEBFFFF7FEBFFFF7FEBFD5
:101F4000FFF7FEBFFFF7FEBFFFF7FEBFFFF7FEBFC5
:101F5000FFF7FEBFFFF7FEBFFFF7FEBFFFF7FEBFB5
:101F6000FFF7FEBFFFF7FEBFFFF7FEBFFFF7FEBFA5
:101F7000FFF7FEBFFFF7FEBFFFF7FEBFFFF7FEBF95
:101F8000FFF7FEBFFFF7FEBFFFF7FEBFFFF7FEBF85
:101F9000FFF7FEBFFFF7FEBFFFF7FEBFFFF7FEBF75
:101FA000FFF7FEBFFFF7FEBFFFF7FEBFFFF7FEBF65
:101FB000FFF7FEBFFFF7FEBFFFF7FEBFFFF7FEBF55
:101FC000FFF7FEBFFFF7FEBFFFF7FEBFFFF7FEBF45
:101FD000FFF7FEBFFFF7FEBFFFF7FEBFFFF7FEBF35
:101FE000FFF7FEBFFFF7FEBFFFF7FEBFFFF7FEBF25
:101FF000FFF7FEBFFFF7FEBFFFF7FEBFFFF7FEBF15
:10200000FFF7FEBFFFF7FEBFFFF7FEBFFFF7FEBF04
:10201000FFF7FEBFFFF7FEBFFFF7FEBFFFF7FEBFF4
:10202000FFF7FEBFFFF7FEBFFFF7FEBFFFF7FEBFE4
:10203000FFF7FEBFFFF7FEBFFFF7FEBFFFF7FEBFD4
:10204000FFF7FEBFFFF7FEBFFFF7FEBFFFF7FEBFC4
:10205000FFF7FEBFFFF7FEBFFFF7FEBFFFF7FEBFB4
:10206000FFF7FEBFFFF7FEBFFFF7FEBFFFF7FEBFA4
:10207000FFF7FEBFFFF7FEBFFFF7FEBFFFF7FEBF94
:10208000FFF7FEBFFFF7FEBFFFF7FEBFFFF7FEBF84
:10209000FFF7FEBFFFF7FEBFFFF7FEBFFFF7FEBF74
:0420A000FFF7FEBF89
:0200000490006A
:1000000000000520A10D0090112300901323009003
:100010001523009017230090192300900000000082
:10002000000000000000000000000000717F009050
:100030001B2300900000000011800090758000904C
:10004000F10D0090F10D0090F10D0090F10D009078
:10005000F10D0090F10D0090F10D0090F10D009068
:10006000F10D0090F10D0090F10D0090F10D009058
:10007000F10D0090F10D0090F10D0090F10D009048
:10008000F10D0090F10D0090F10D0090F10D009038
:10009000F10D0090F10D0090F10D0090F10D009028
:1000A000F10D0090F10D0090F10D0090F10D009018
:1000B000F10D0090F10D0090F10D0090F10D009008
:1000C000F10D0090F10D0090F10D0090F10D0090F8
:1000D000F10D0090F10D0090F10D0090F10D0090E8
:1000E000F10D0090F10D0090F10D0090F10D0090D8
:1000F000F10D0090F10D0090F10D0090F10D0090C8
:10010000F10D0090F10D0090F10D0090F10D0090B7
:10011000F10D0090F10D00901D230090F10D009065
:10012000F10D0090F10D0090F10D0090F10D009097
:10013000F10D0090F10D0090F10D0090F10D009087
:10014000F10D0090F10D0090F10D0090F10D009077
:10015000F10D0090F10D0090F10D0090F10D009067
:10016000F10D0090F10D0090F10D0090F10D009057
:10017000F10D0090F10D0090F10D0090F10D009047
:10018000F10D0090F10D0090F10D0090F10D009037
:10019000F10D0090F10D0090F10D0090F10D009027
:1001A00029230090F10D009035230090F10D00906F
:1001B000F10D0090F10D0090F10D0090F10D009007
:0801C000F10D0090F10D00901B
:1001D00010B5054C237833B9044B13B10448AFF381
:1001E00000800123237010BD2801002000000000C2
:1001F00094F3019008B5034B1BB103490348AFF3D7
:10020000008008BD000000002C01002094F3019044
:1002100001F0FF01102A2BDB10F0070F08D010F8B7
:10022000013B013A8B422DD010F0070F42B3F6D1BB
:10023000F0B441EA012141EA014122F007047FF0D4
:1002400000070023F0E80256083C85EA010586EA2B
:10025000010685FA47F5A3FA87F586FA47F6A5FA67
:1002600087F68EB9EED1F0BC01F0FF0102F0070273
:1002700032B110F8013B013A83EA010313B1F8D11E
:100280000020704701387047002D06BF35460338FF
:10029000073815F0010F07D1013015F4807F02BF38
:1002A000013015F4C03F0130F0BC0138704700BF89
:1002B00081F0004102E000BF83F0004330B54FEA17
:1002C00041044FEA430594EA050F08BF90EA020F84
:1002D0001FBF54EA000C55EA020C7FEA645C7FEA17
:1002E000655C00F0E2804FEA5454D4EB5555B8BF3A
:1002F0006D420CDD2C4480EA020281EA030382EAAB
:10030000000083EA010180EA020281EA0303362D3C
:1003100088BF30BD11F0004F4FEA01314FF4801C0F
:100320004CEA113102D0404261EB410113F0004F21
:100330004FEA03334CEA133302D0524263EB4303D8
:1003400094EA050F00F0A780A4F10104D5F1200E76
:100350000DDB02FA0EFC22FA05F2801841F10001D1
:1003600003FA0EF2801843FA05F359410EE0A5F1A5
:1003700020050EF1200E012A03FA0EFC28BF4CF0D6
:10038000020C43FA05F3C01851EBE37101F000458C
:1003900007D54FF0000EDCF1000C7EEB00006EEB99
:1003A0000101B1F5801F1BD3B1F5001F0CD3490823
:1003B0005FEA30004FEA3C0C04F101044FEA44527A
:1003C00012F5800F80F09A80BCF1004F08BF5FEA01
:1003D000500C50F1000041EB045141EA050130BDE1
:1003E0005FEA4C0C404141EB0101013C28BFB1F5F3
:1003F000801FE9D291F0000F04BF01460020B1FA3E
:1004000081F308BF2033A3F10B03B3F120020CDA10
:100410000C3208DD02F1140CC2F10C0201FA0CF0EE
:1004200021FA02F10CE002F11402D8BFC2F1200C53
:1004300001FA02F120FA0CFCDCBF41EA0C01904009
:10044000E41AA2BF01EB0451294330BD6FEA040452
:100450001F3C1CDA0C340EDC04F11404C4F120023D
:1004600020FA04F001FA02F340EA030021FA04F34F
:1004700045EA030130BDC4F10C04C4F1200220FAA6
:1004800002F001FA04F340EA0300294630BD21FAE4
:1004900004F0294630BD94F0000F83F4801306BFAA
:1004A00081F480110134013D4EE77FEA645C18BF9E
:1004B0007FEA655C29D094EA050F08BF90EA020F35
:1004C00005D054EA000C04BF1946104630BD91EA2D
:1004D000030F1EBF0021002030BD5FEA545C05D130
:1004E0004000494128BF41F0004130BD14F580046F
:1004F0003CBF01F5801130BD01F0004545F0FE41E3
:1005000041F470014FF0000030BD7FEA645C1ABF17
:10051000194610467FEA655C1CBF0B46024650EA4E
:10052000013406BF52EA033591EA030F41F400217A
:1005300030BD00BF90F0000F04BF0021704730B500
:100540004FF4806404F132044FF000054FF00001D5
:1005500050E700BF90F0000F04BF0021704730B596
:100560004FF4806404F1320410F0004548BF40426B
:100570004FF000013EE700BF42004FEAE2014FEAC0
:1005800031014FEA02701FBF12F07F4393F07F4F9B
:1005900081F06051704732F07F4208BF704793F09E
:1005A0007F4F04BF41F40021704730B54FF46074B1
:1005B00001F0004521F000411CE700BF50EA0102B4
:1005C00008BF704730B54FF000050AE050EA01025D
:1005D00008BF704730B511F0004502D5404261EBCD
:1005E00041014FF4806404F132045FEA915C3FF40E
:1005F000D8AE4FF003025FEADC0C18BF03325FEAAB
:10060000DC0C18BF033202EBDC02C2F1200300FA5B
:1006100003FC20FA02F001FA03FE40EA0E0021FA80
:1006200002F11444BDE600BF70B54FF0FF0C4CF46E
:10063000E06C1CEA11541DBF1CEA135594EA0C0F20
:1006400095EA0C0F00F0DEF82C4481EA030621EA5B
:100650004C5123EA4C5350EA013518BF52EA033596
:1006600041F4801143F4801338D0A0FB02CE4FF048
:100670000005E1FB02E506F00042E0FB03E54FF078
:100680000006E1FB03569CF0000F18BF4EF0010E70
:10069000A4F1FF04B6F5007F64F5407404D25FEA6C
:1006A0004E0E6D4146EB060642EAC62141EA55511F
:1006B0004FEAC52040EA5E504FEACE2EB4F1FD0C61
:1006C00088BFBCF5E06F1ED8BEF1004F08BF5FEADF
:1006D000500E50F1000041EB045170BD06F0004691
:1006E00046EA010140EA020081EA0301B4EB5C043E
:1006F000C2BFD4EB0C0541EA045170BD41F4801136
:100700004FF0000E013C00F3AB8014F1360FDEBF5A
:10071000002001F0004170BDC4F10004203C35DA36
:100720000C341BDC04F11404C4F1200500FA05F3B9
:1007300020FA04F001FA05F240EA020001F000425A
:1007400021F0004110EBD37021FA04F642EB0601D0
:100750005EEA430E08BF20EAD37070BDC4F10C04FA
:10076000C4F1200500FA04F320FA05F001FA04F2BE
:1007700040EA020001F0004110EBD37041F10001AA
:100780005EEA430E08BF20EAD37070BDC4F12005B5
:1007900000FA05F24EEA020E20FA04F301FA05F21D
:1007A00043EA020321FA04F001F0004121FA04F2C5
:1007B00020EA020000EBD3705EEA430E08BF20EA95
:1007C000D37070BD94F0000F0FD101F000464000CF
:1007D00041EB010111F4801F08BF013CF7D041EA51
:1007E000060195F0000F18BF704703F00046520055
:1007F00043EB030313F4801F08BF013DF7D043EA26
:100800000603704794EA0C0F0CEA135518BF95EADB
:100810000C0F0CD050EA410618BF52EA4306D1D162
:1008200081EA030101F000414FF0000070BD50EA81
:10083000410606BF1046194652EA430619D094EA0B
:100840000C0F02D150EA013613D195EA0C0F05D1F5
:1008500052EA03361CBF104619460AD181EA030149
:1008600001F0004141F0FE4141F470014FF0000001
:1008700070BD41F0FE4141F4780170BD70B54FF09C
:10088000FF0C4CF4E06C1CEA11541DBF1CEA13551C
:1008900094EA0C0F95EA0C0F00F0A7F8A4EB0504FE
:1008A00081EA030E52EA03354FEA013100F08880F5
:1008B0004FEA03334FF0805545EA131343EA1263BE
:1008C0004FEA022245EA111545EA10654FEA002673
:1008D0000EF000419D4208BF964244F1FD0404F52C
:1008E000407402D25B084FEA3202B61A65EB030588
:1008F0005B084FEA32024FF480104FF4002CB6EB45
:10090000020E75EB030E22BFB61A754640EA0C00C4
:100910005B084FEA3202B6EB020E75EB030E22BF04
:10092000B61A754640EA5C005B084FEA3202B6EB45
:10093000020E75EB030E22BFB61A754640EA9C0004
:100940005B084FEA3202B6EB020E75EB030E22BFD4
:10095000B61A754640EADC0055EA060E18D04FEA92
:10096000051545EA16754FEA06164FEAC30343EA32
:1009700052734FEAC2025FEA1C1CC0D111F4801FFF
:100980000BD141EA00014FF000004FF0004CB6E7F8
:1009900011F4801F04BF01430020B4F1FD0C88BF97
:1009A000BCF5E06F3FF6AFAEB5EB030C04BFB6EBA2
:1009B000020C5FEA500C50F1000041EB045170BD95
:1009C0000EF0004E4EEA113114EB5C04C2BFD4EBC2
:1009D0000C0541EA045170BD41F480114FF0000E46
:1009E000013C90E645EA060E8DE60CEA135594EAC2
:1009F0000C0F08BF95EA0C0F3FF43BAF94EA0C0FC5
:100A00000AD150EA01347FF434AF95EA0C0F7FF439
:100A100025AF104619462CE795EA0C0F06D152EA8D
:100A200003353FF4FDAE1046194622E750EA410671
:100A300018BF52EA43067FF4C5AE50EA41047FF482
:100A40000DAF52EA43057FF4EBAE12E74FEA4102E5
:100A500012F5001215D211D56FF47873B3EB625210
:100A600012D94FEAC12343F0004343EA505311F037
:100A7000004F23FA02F018BF404270474FF00000C9
:100A8000704750EA013005D111F0004008BF6FF007
:100A9000004070474FF00000704700BF53B94AB99B
:100AA000002908BF00281CBF4FF0FF314FF0FF3076
:100AB00000F074B9ADF1080C6DE904CE00F006F851
:100AC000DDF804E0DDE9022304B070472DE9F047CA
:100AD000089D04468E46002B4DD18A42944669D922
:100AE000B2FA82F252B101FA02F3C2F1200120FA05
:100AF00001F10CFA02FC41EA030E94404FEA1C4853
:100B0000210CBEFBF8F61FFA8CF708FB16E341EA4E
:100B1000034306FB07F199420AD91CEB030306F1D4
:100B2000FF3080F01F81994240F21C81023E6344F5
:100B30005B1AA4B2B3FBF8F008FB103344EA034499
:100B400000FB07F7A7420AD91CEB040400F1FF33AE
:100B500080F00A81A74240F207816444023840EAEB
:100B60000640E41B00261DB1D4400023C5E9004324
:100B70003146BDE8F0878B4209D9002D00F0EF80A7
:100B80000026C5E9000130463146BDE8F087B3FADA
:100B900083F6002E4AD18B4202D3824200F2F980C2
:100BA000841A61EB030301209E46002DE0D0C5E9C5
:100BB000004EDDE702B9FFDEB2FA82F2002A40F011
:100BC0009280A1EB0C014FEA1C471FFA8CFE012614
:100BD000200CB1FBF7F307FB131140EA01410EFBB8
:100BE00003F0884208D91CEB010103F1FF3802D25F
:100BF000884200F2CB804346091AA4B2B1FBF7F059
:100C000007FB101144EA01440EFB00FEA64508D97B
:100C10001CEB040400F1FF3102D2A64500F2BB80B8
:100C20000846A4EB0E0440EA03409CE7C6F1200707
:100C3000B34022FA07FC4CEA030C20FA07F401FA4D
:100C400006F31C43F9404FEA1C4900FA06F3B1FBD6
:100C5000F9F8200C1FFA8CFE09FB181140EA01413B
:100C600008FB0EF0884202FA06F20BD91CEB0101D8
:100C700008F1FF3A80F08880884240F28580A8F130
:100C800002086144091AA4B2B1FBF9F009FB101182
:100C900044EA014100FB0EFE8E4508D91CEB010120
:100CA00000F1FF346CD28E456AD90238614440EAC3
:100CB0000840A0FB0294A1EB0E01A142C846A64643
:100CC00056D353D05DB1B3EB080261EB0E0101FACC
:100CD00007F722FA06F3F1401F43C5E90071002629
:100CE0003146BDE8F087C2F12003D8400CFA02FC7F
:100CF00021FA03F3914001434FEA1C471FFA8CFE8F
:100D0000B3FBF7F007FB10360B0C43EA064300FB7E
:100D10000EF69E4204FA02F408D91CEB030300F11C
:100D2000FF382FD29E422DD9023863449B1B89B2D3
:100D3000B3FBF7F607FB163341EA034106FB0EF35C
:100D40008B4208D91CEB010106F1FF3816D28B4209
:100D500014D9023E6144C91A46EA004638E72E46D5
:100D6000284605E70646E3E61846F8E64B45A9D2CD
:100D7000B9EB020864EB0C0E0138A3E74646EAE73C
:100D8000204694E74046D1E7D0467BE7023B6144EA
:100D900032E7304609E76444023842E7704700BF53
:100DA000DFF834D0002103E00C4B5B584350043192
:100DB0000B480C4B42189A42F6D30B4A02E0002330
:100DC00042F8043B094B9A42F9D304F047F81DF06E
:100DD0007BFA00F05DFE704700000520603802904D
:100DE000000000202801002028010020502F0120B1
:100DF000FEE700F06DBC00F0DBBC4068704741606E
:100E0000704700004FF0E022D2F8FC3D43F08073C1
:100E1000C2F8FC3D054B064AD3F8B01F0A43C3F89D
:100E2000B02F1A6842F001021A607047001000E00B
:100E300055CEACC5511A01EB5301B1FBF3F070472D
:100E4000014B5868704700BF001000E0704710B5B4
:100E500004460C211DF0A5F9204610BD036810B50D
:100E60001B69044631B19847A26863689B1A18440D
:100E7000606010BD9847A060FBE7704730B58DB04B
:100E80000D46144600212C2201A81DF05FFA01A88E
:100E900003F026FF9DF8040030B1BDF806300120B4
:100EA0002B60BDF8103023600DB030BD10B5044686
:100EB00004211DF076F9204610BD000008B54FF45E
:100EC00088714FF4F07003F0B5FE28B1034B1D217B
:100ED000034A04481DF0AEF908BD00BF3CF4019080
:100EE0005DF4019087F40190704770477047704738
:100EF000012380F8741080F8753070470020704727
:100F000000207047836B0BB10846184770474FF6B7
:100F1000FF707047406803689B69184770477047C7
:100F20007047000038B50446FFF7DEFF074D204646
:100F300000F0DEFC0023284684F84A30FFF762FF09
:100F40000123256184F86C3038BD00BF44010020C6
:100F500008B5036804469B6F9847236820461B6FBB
:100F6000984700F013F9236820469B6E98474FF48A
:100F70008051074804F049FD0821064804F045FD6A
:100F800000F004F9236820469B6E9847F8E700BFFD
:100F9000002002400028024010B504460BF0F4FB8C
:100FA00023682046D3F8A030BDE81040184700F071
:100FB00091BC00F095BC000070B500F0B3FC104986
:100FC0000023C1F88430BFF34F8FD1F8803043F64F
:100FD000E074C3F3C900C3F34E335B0103EA0406B4
:100FE000024646EA8275013AC1F87452F9D2203BB2
:100FF00013F1200FF2D1BFF34F8FBFF36F8F70BD8E
:1010000000ED00E000F042BC00F08EBC00F096BCA9
:1010100000F046BC0AF096BD10B504467C211DF0D8
:10102000C0F8204610BD90F877301BB140680368C7
:101030001B6818471846704790F83410114B30B5AC
:1010400090F874401A788C420DD05AB90E4A0F4964
:1010500014880F480C8001880E4D118001222980D0
:1010600004801A7030BD002AFCD00948074A018864
:10107000084D1180044A1488118000222C800480BD
:10108000EFE700BFA02C01209C2C0120A22C012006
:101090009E2C0120A42C012008B531B90A4B4FF435
:1010A00025710A4A0A481DF0C5F8C0E90F12003A36
:1010B0000849436418BF0122003B0A7018BF01238E
:1010C000054A137008BD00BF04F501903CF501907E
:1010D0008AF50190A62C0120A72C0120034B0022A9
:1010E0005A609A60024A1A60704700BF44010020AB
:1010F0001CF401900121002208B5084606F000FC0E
:101100000A4B186028B90A4B25210A4A0A481DF0E3
:1011100091F800220421012006F0B8FC074B18606A
:1011200018B9074B2921034AF0E708BD54010020F4
:101130009CF60190E5F6019014F701905001002013
:1011400079F70190024B4FF0FF31186806F02EBC82
:1011500054010020014B186806F062BC54010020C5
:10116000024B0021186806F021BC00BF540100208A
:10117000FFF7F0BF0023034803491A46006806F052
:10118000CBBC00BF500100200400002013B5002399
:10119000074C01A91A46206806F000FD4FF0FF3306
:1011A000002201A9206806F0F9FC02B010BD00BFC2
:1011B000500100201049002370B5C1F88430BFF3FE
:1011C0004F8FD1F8803043F6E074C3F3C900C3F306
:1011D0004E335B0103EA0406024646EA8275013A91
:1011E000C1F87452F9D2203B13F1200FF2D1BFF3B2
:1011F0004F8FBFF36F8F70BD00ED00E003685B6C35
:1012000018470020704703689B6A184740F26F3008
:101210007047000010B5074C074B2046236004F0D0
:1012200097F8064B4FF080622361054B6361054BD5
:101230009A6010BD081B002000B00240AD12009063
:101240004912009000E100E008B5034A3E21034B3B
:1012500003481CF0EFFF00BFBBF701905E2C02902B
:10126000EEF70190084B10B503600446074804F000
:1012700039F9074B4FF08062C3F88820BFF34F8FD6
:10128000BFF36F8F204610BD5CF80190081B002053
:1012900000E100E010B50446FFF7E4FF4FF44261BF
:1012A00020461CF07EFF204610BD000010B5FFF761
:1012B00081FF044B1B6858680368BDE810405B69F8
:1012C000184700BFA82C0120044B1B6893F8762018
:1012D0000AB1D86C00B99868704700BFA82C0120EB
:1012E0002DE9F7430D680C46202D00F0A280402D1B
:1012F00000F09F802A1F56425641B5F5807F00F0CE
:101300009A80A5F500735D425D41FFF7DDFF03683C
:101310001B6A984723688446B3F5807F00F09A8063
:1013200000F28B80202B00F09780402B00F09480FF
:10133000042B00F08880BCF1100F4FF000020CBFAE
:10134000022101214B4BBCF1100FB4F81480D3F8EB
:1013500000E008BF0220678B18BF0120DEF8009074
:10136000A7EB08075A6029F440399860DF6049EA22
:101370000202CEF80020DEF83420D96222F0070203
:101380000243CEF83420DEF8402022F47F5222F0CF
:101390003F023A43CEF84020228BA2EB08029A6229
:1013A00006B98DB3227FFF2A15BF02210021C3E9B0
:1013B0000C12196315B3BCF1100FE1684FEA026E0D
:1013C0004CD14FF01F08C1F3C42C01EA0802CCEB4A
:1013D0000C2CC1F34511C2EB0222C1EB0121B2FB7F
:1013E000F8F2BCFBF8FC42EA0E0242EA0C424FF073
:1013F0003F0CB1FBFCF142EA01225A630021C3E930
:1014000006701C4804F02EF901211A4804F02AF94C
:10141000FFF7D0FEA38AE28A06B91DB361681548BA
:10142000CDE9003223691A4603F0DCFF03B0BDE8C2
:10143000F083012665E7012567E7B3F5007F7FF4B8
:101440007AAF092103E010280CBF022101214FF4DB
:10145000003277E70A21FAE70021F8E74EEA0101B6
:101460005963CBE7009261682269024803F09CFF50
:10147000DCE700BF081B0020F7B50D46FFF724FF8F
:1014800003681B6A98471028EB68297F6BD103F02B
:101490001F021F20C2EB0222B2FBF0F4C3F3C422EE
:1014A00044EA0164C3F345130221C2EB0222C3EBF9
:1014B0000323B2FBF0F244EA02443F22B3FBF2F30F
:1014C00044EA03242B682A48082B6E8B0268AB8AF7
:1014D0000CBF4FF400374FF44037F61A1368B7F5D6
:1014E000003F23F44033C66043EA0703C0E90171BB
:1014F0001360536B23F0070343EA01035363136C38
:1015000023F47F5323F03F0343EA060313641ED101
:101510000123C0E90C340923C0E90661C36200213C
:1015200004F0A0F80121124804F09CF8FFF742FEF5
:10153000B7F5003FAA8AE98A0DD12B690C48CDE99D
:1015400000211A46194603F04DFF03B0F0BD0023F9
:10155000C1628362E6E7134600912A692146044886
:1015600003F022FFF1E743EA01640121AAE700BF8B
:10157000081B002070B504460A4B0C300026254697
:10158000602260602672667245F8203B29460BF0A7
:1015900069FA04F54263EE602035AB42FBD1204688
:1015A00070BD00BF5CF80190012070475420704767
:1015B000542303FB010008307047542303FB010050
:1015C000083070470120704740F67820704740F699
:1015D000782303FB01000830704740F6782303FBB3
:1015E000010008307047012070471020704700EB61
:1015F00001100830704700EB0110083070470846B2
:1016000002F002B9034B10B50446036008F014FB66
:10161000204610BD14F9019010B50446FFF7F2FF03
:101620005C2120461CF0BDFD204610BD034B10B5CB
:101630000446036008F000FB204610BDE0F801906E
:1016400010B50446FFF7F2FF4FF4286120461CF066
:10165000A8FD204610BD0000034B10B504460360F2
:1016600008F0EAFA204610BDACF8019010B5044627
:10167000FFF7F2FF182120461CF093FD204610BD15
:10168000084B10B50446036000F6AC20FFF7BAFF24
:1016900004F12C00FFF7CAFF04F11400FFF7DCFF90
:1016A000204610BD48F9019008B50248FFF7E8FF51
:1016B00008BD00BF5C01002010B50446FFF7E0FF45
:1016C00040F6644120461CF06CFD204610BD000031
:1016D0002DE9F34100F0A2FE0024054600F0A2FE31
:1016E0002346014622462846009410F095FE254BDD
:1016F000254A2046254D1A6002F086FC244810F049
:10170000CDFD2B78BFF35B8FDB0735D428461CF06B
:101710004AFD88B31F4C204B04F60C3604F114002C
:1017200004F12C0804F6AC2723606060C4F808803C
:10173000E760266108F082FA184B4046636108F0C2
:101740007DFA174B3846E36208F078FA154B04F639
:101750000830C4F8AC3A02F0FDFD224604F6083128
:10176000304602F0EDFD304602F04EF80E481CF017
:101770007FFD28461CF023FD0C4802B0BDE8F04177
:10178000FFF7D0BB042D0120601A00205801002073
:10179000080000205C01002048F90190ACF801909D
:1017A000E0F8019014F90190A9160090E4190020C6
:1017B0000148FFF7CDBB00BFE419002070B5234BF3
:1017C000234C244E244D23603046FFF7D3FE284699
:1017D00013F0A8FE214B00224FF480714FF4F070FB
:1017E000DC601F4C1A861A6683F86C201A67C3E9FE
:1017F00012121C49C3E919124FF080715967012177
:1018000083F8781018490B60184908804FF48871E4
:101810002180174CC3E90422C3E90622C3E9082248
:10182000C3E90A22C3E90E22C3E91022C3E9142244
:10183000C3E91622C3E9016522700E4C83F83420F7
:1018400020800D4A0D481A60018070BDF4F40190AB
:10185000C00D0020C40D0020641A0020E4190020EF
:101860009E2C012001000001A82C01209C2C0120AD
:10187000A02C0120A22C0120D8F50190A42C01203D
:101880000148FFF7EFBC00BFC40D0020034B9022BE
:1018900083F85A2383F85823704700BF00E100E023
:1018A000094A0A49D3680A48C3F30A03013B9BB2B9
:1018B0000B801169C1F30A01013901801364536B74
:1018C00043F001035363704700680140DE1A0020B3
:1018D000DC1A0020014BD3F8AC00704700680140CF
:1018E000024B0122C3F8AC105A62704700680140F5
:1018F00070B504460AF079F92368DD6D0DF0B2FB8E
:1019000001462046A84723682046054AD3F8805060
:101910004FF040410023AC46BDE87040604700BF37
:1019200000FC03C00AF014B9034B4FF080629A60C8
:101930004FF080729A60704700E100E0084B4FF072
:101940008062C3F88820BFF34F8FBFF36F8F4FF0D3
:101950008072C3F88820BFF34F8FBFF36F8F70473B
:1019600000E100E0134B144A1B6C11888B4210B548
:10197000124C13D1124B198804F0F6FC226892F82D
:101980006630013382F86630FFF7F4FB20680AF016
:10199000FBFE0020BDE81040FFF7A7BA04F0E4FC0E
:1019A0000020FFF7A3FA20680368BDE81040DB6958
:1019B000184700BF00680140DE1A0020A82C012053
:1019C000DC1A002030B5B5B010220021012509A88D
:1019D00002241CF0BBFC1422002102A81CF0B6FC5F
:1019E0008422002113A81CF0B1FC274B4FF0190CE6
:1019F00007A81A6C42F080521A641B6C03F08053E3
:101A00000093009B214B1A6842F440421A601B6805
:101A100003F440430193019B4FF48033CDE9075316
:101A20004FF48003CDE90D434FF4D873CDE9114451
:101A3000CDE90FC304F0EEFC00B1FEE704F0B2FC08
:101A400000B1FEE70F2304904FF4A0500721CDE929
:101A500002344FF48053CDE9050302A804F0C6FE1A
:101A600000B1FEE748231B9024901393642318933E
:101A70000523CDE91D5013A8CDE9194304F094FFC7
:101A800000B1FEE735B030BD0038024000700040C4
:101A900080B5A6B0102200214FF0005519A80126EC
:101AA0001CF054FC4FF0404403F0A8FAA84B19A8CE
:101AB0001C27ADF86460CDE91A53A64D1C9503F0C0
:101AC000BBFA40F2011319A81C96ADF86430CDE9B9
:101AD0001A4703F0B1FA40F2012319A81A94ADF89D
:101AE00064304FF010449C4BCDE91B3503F0A4FA51
:101AF00040F2013319A81C96ADF86430974ECDE939
:101B00001A4703F099FA40F2014319A81A94ADF864
:101B10006430934BCDE91B3503F08EFA40F201534C
:101B200019A81A94ADF864308E4BCDE91B6303F00D
:101B300083FA042003F070FABFF34F8FBFF36F8F67
:101B4000894A0021C2F85012BFF34F8FBFF36F8F45
:101B5000536943F400335361BFF34F8FBFF36F8F6B
:101B6000C2F88410BFF34F8FD2F8803043F6E07490
:101B7000C3F3C900C3F34E335B0103EA0406014615
:101B800046EA81750139C2F86052F9D2203B13F15F
:101B9000200FF2D1BFF34F8F536943F48033536169
:101BA000BFF34F8FBFF36F8F03F088F90024FFF767
:101BB00009FF1422002119A81CF0C8FB6B4B082157
:101BC0006B481A6B012642F010021A631A6B02F07E
:101BD00010020192019A1A6B42F002021A631A6B08
:101BE00002F002020292029A1A6B42F040021A6359
:101BF0001A6B02F040020392039A1A6B42F40072CD
:101C00001A631A6B02F400720492049A1A6B42F07F
:101C100008021A631A6B02F008020592059A1A6B01
:101C200042F480621A631A6B02F480620692069A8A
:101C30001A6B42F020021A631A6B02F0200207921C
:101C4000079A1A6B42F480721A631A6B02F480725C
:101C50000892089A1A6B42F001021A631A6B02F09A
:101C600001020992099A1A6B42F080021A631A6BF8
:101C700002F080020A920A9A1A6B42F004021A6376
:101C800000221B6B03F004030B930B9B03F0B8FEC5
:101C900000224FF48051374803F0B2FE082319A9FF
:101CA0003348CDE91936CDE91B4403F023FD4FF449
:101CB0008053304819A9CDE91936CDE91B4403F00A
:101CC00019FD2D482D4B848003600662C0E9054450
:101CD00003F0DEF900B1FEE7294C2A4BC4E902000B
:101CE000C4E90030C4E90A00C4E90C00204603F04E
:101CF0002FFB00B1FEE73146204603F0B3FC03465C
:101D000000B1FEE720488021204A40244FF0040E15
:101D10008360C0E900231022C0E9054119A91F9280
:101D2000C0E903E2C0E90733C0E90933CDE919226C
:101D3000CDE91B22CDE91D2205F0BEF800B1FEE77A
:101D400002F05EFF02F010FF054608B3FEE700BF99
:101D5000120000030100010116000003130000033C
:101D6000170000030000010100ED00E00038024010
:101D70000028024000200240E41A00200030024007
:101D8000081B002000B00240F01B0020400100A012
:101D9000014634220CA8414C1CF0D8FA29463422C2
:101DA00019A81CF0D3FA3E4B2821352040F2152704
:101DB00040F2352CA586256184F83650C4E90035FB
:101DC0000923C4E905130B23C4E9070340F21B13DD
:101DD0002046C4E9097340F21D13C4E90255C4E961
:101DE0000BC304F0C9F900B1FEE74FF48873022178
:101DF0004FF4F0724FF4806705250C90ADF8600049
:101E00008DF862001793CDE90F31FF21CDE90D2048
:101E1000CDE91110CDE915020CA902462046CDE905
:101E2000137504F074FA00B1FEE7CDE91900CDE9AD
:101E30001B00CDE91E00CDE9220024903246ADF80A
:101E4000940019A98DF896002046CDE9207504F07C
:101E50005EFA00B1FEE713484FF4E133124AC0E9DD
:101E6000002300230C22C0E9023303614362C0E96E
:101E70000523C0E9073305F0E3FB044600B1FEE7A4
:101E8000FEF7B7FF05F0ACFC084A2146084805F00C
:101E9000E1FC084B186005F0BDFCFEE7481B002084
:101EA00000680140241C00200010014064F90190EA
:101EB000F70D0090E01A00200268034B9A4201D10E
:101EC00003F012B8704700BF001000400D4B82B005
:101ED0000F216FF001001A6C42F080521A641A6CE4
:101EE00002F080520092009A5A6C42F480425A6486
:101EF00000225B6C03F480430193019B02B003F06A
:101F000029B800BF00380240026882B0084B9A42EC
:101F10000BD1D3F8302803F5006342F480521A63E2
:101F20001B6B03F480530193019B02B0704700BF09
:101F3000003002400E4B07B502689A4215D1A3F556
:101F4000F04305215A201A6B42F400021A63002262
:101F50001B6B03F400030193019B02F0FBFF5A206B
:101F600003B05DF804EB03F027B803B05DF804FBA1
:101F700000B002400268064B9A4207D1054A5A2037
:101F8000136B23F40003136303F024B8704700BFFE
:101F900000B002400038024070B58CB004461422F4
:101FA000002107A81CF0D2F922683E4B9A4277D153
:101FB00003F5504302240E2607A95A6C00253A481F
:101FC00042F080625A645A6C02F080620192019A77
:101FD0001A6B42F010021A631A6B02F0100202929E
:101FE000029A1A6B42F400721A631A6B02F40072BE
:101FF0000392039A1A6B42F480621A631A6B02F41A
:1020000080620492049A1A6B42F040021A631A6BBF
:1020100002F040020592059A1A6B42F480721A632C
:102020001B6B03F480730693069B1023CDE90734E2
:102030000A940B9603F05EFB4EF6FF7307A91B484C
:102040000B96CDE90734CDE9095403F053FBF72390
:1020500007A917480B96CDE90734CDE9095403F0D9
:1020600049FB4FF4805307A91248CDE907340923EF
:10207000CDE909540B9303F03DFB4FF4464307A908
:102080000D480B96CDE90734CDE9095403F032FB36
:1020900058202A46052102F05DFF582002F08CFFEF
:1020A0000CB070BD006801400010024000240240E6
:1020B00000280240001802400020024070B588B09D
:1020C00004461422002103A81CF040F922681D4B8D
:1020D0009A4234D103F594330226032507245A6C1F
:1020E00003A9194842F010025A645A6C02F0100217
:1020F0000092009A1A6B42F002021A631A6B02F005
:1021000002020192019A1A6B42F001021A631B6BE0
:1021100003F001030293029B8023CDE90654CDE92D
:10212000033603F0E7FA4FF4007303A90748079456
:10213000CDE903360023CDE9053503F0DBFA08B01D
:1021400070BD00BF001001400004024000000240CA
:10215000F0B5002387B003932A4B1E68002E4ED1A2
:102160000122022703250C241A6001A9264B2748C7
:102170009A6B42F001029A639B6B03F00103009398
:10218000009B4FF68373CDE90454CDE9013703F08A
:10219000B1FA48F2331301A91D480594CDE901377E
:1021A000CDE9036503F0A6FA4CF2037301A91948BF
:1021B0000594CDE90137CDE9036503F09BFA4FF6AD
:1021C0003F0301A914480594CDE90137CDE9036522
:1021D00003F090FA242301A910480594CDE90137B2
:1021E000CDE9036503F086FA04230D480DEB0301E6
:1021F0000594CDE90137CDE9036503F07BFA07B01B
:10220000F0BD00BFA81C00200038024000100240B2
:1022100000180240000C024000140240001C024062
:102220000008024008B5144B1A6822BB01224FF681
:10223000837112481A60124A936B23F0010393636F
:1022400003F03CFB48F233110E4803F037FB4CF22D
:1022500003710D4803F032FB4FF63F010B4803F0CA
:102260002DFB24210A4803F029FB04210948BDE87D
:10227000084003F023BB08BDA41C0020001002404E
:102280000038024000180240000C024000140240D6
:10229000001C02400008024010B5014688B0002230
:1022A000362002F057FE362002F086FE144B01A9BC
:1022B00003A81A6C134C42F010021A641B6C03F052
:1022C00010030293029B04F051FB04F02FFB0E4B12
:1022D0004000236040F2E733E3600C4BB0FBF3F0C7
:1022E00001380023606020462361A36004F06CFF86
:1022F00020B9204604F038FE08B010BD0120FBE7ED
:1023000000380240AC1C00200010004040420F008A
:102310007047FEE7FEE7FEE7FEE77047014804F07E
:102320003DBE00BFAC1C0020014803F093BF00BFBE
:10233000481B0020014803F00BB900BF081B002018
:102340000120704708B51BF0A7FF162303604FF06C
:10235000FF3008BD08B51BF09FFF16230360FEE7A2
:1023600070B50D4614460E46731B9C4201DC204698
:1023700070BDAFF3008006F8010BF5E770B50D46B0
:1023800014460E46731B9C4201DC204670BD16F8B5
:10239000010BAFF30080F5E74FF0FF3070474FF4CB
:1023A000005300204B6070470120704700207047A9
:1023B0000A4A116808B5034609B90949116010684D
:1023C000694603448B4206D91BF066FF0C23036069
:1023D0004FF0FF3008BD1360FCE700BFEC1C00208D
:1023E000502F0120704710B5044604211BF0D9FE80
:1023F000204610BD012908B506D0022908D059B9D8
:1024000001F04EFE006808BD01F04AFE4068FAE7A0
:1024100001F046FE8068F6E70020F4E700487047C8
:102420009CF901900B20704713B5002451B103684B
:1024300001AA01948DF803409C680DF10303A047A5
:1024400002B010BD0846FBE740897047808970479D
:102450008088704783798088184480B27047C0793B
:1024600000F07F007047C079C009704700207047B6
:1024700081807047C18070470181704741817047FA
:102480007047704770477047704710B4C48803683E
:10249000121B84881B6D091B12B25DF8044B09B234
:1024A00018474FF6FF7383814FF0FF3303621368C1
:1024B000C36110607047704770477047704770473E
:1024C00090F825201AB190F8242002B118607047C6
:1024D000704790F82C00704770477047704730B4D1
:1024E00044680346C2689B68551004EB6200D2073B
:1024F00048BF625930BC48BFD358184743682BB116
:1025000083682BB9C06800F0010070471846704717
:102510000120704710B5044608211BF042FE2046FA
:1025200010BD10B5044640211BF03BFE204610BDF7
:1025300010B5044610211BF034FE204610BD10B526
:102540000446806A50B10368DB68984730B1A06ADE
:1025500021460368BDE810409B68184710BD70B560
:1025600004460D460AF08EFAE06B58B10368DB684A
:10257000984738B1E06B2A4621460368BDE87040B1
:102580009B68184770BD00F60C20884208B505D13D
:102590000CF068FDBDE8084001F056B908BD0368BD
:1025A00070B50446DB6A15469847236820462946DD
:1025B0001B6BBDE87040184770B504461D46BDF959
:1025C0001060FFF7ECFF2368294620465B6B9847B5
:1025D0002368314620469B6BBDE8704018470000D9
:1025E0004FF4807100228184054982620160C0E954
:1025F0000122C0E90322C0E90522C0E90722704791
:10260000E81302900022C0E90122C0E90322C0E9D8
:102610000522C0E907224FF480728284014A0260D9
:10262000704700BF8CFB019010B5044626220021A4
:102630001BF08CFE2046FFF7E5FF044B204623608D
:10264000FF2384F826300023A36210BDD81D02901A
:1026500010B50446262200211BF078FE2046FFF725
:10266000D1FF074B4FF47F0220462360054BA36246
:102670004FF6FF73A3850023C4E90C32238710BDF6
:10268000301D0290F0FB01902DE9F04F044600252B
:10269000EB4E04F5807804F5127704F2047904F225
:1026A000E47A04F6C40B2DED108B91B00EF062F8B5
:1026B0002246E44BE56342F8403B104609EE902A7F
:1026C000FFF7B2FF04F16C0318460793FFF7ACFF66
:1026D00004F1980318460AEE103AFFF781FF04F15F
:1026E000C40318460CEE103AFFF7B2FF404607F05D
:1026F00069FB04F5F07318460AEE903AFFF770FF95
:1027000004F5037318460CEE903AFFF7A1FF384624
:1027100007F058FB04F54A73184609EE103AFFF724
:102720005FFF04F5557318460893FFF77DFF04F526
:102730006273C4F854631846C4F88053A4F88453F1
:102740000993FFF771FF04F56F73C4F88863C4F849
:10275000B45304F244561846A4F8B8530DEE103A98
:10276000FFF776FF04F57E7318460DEE903AFFF7FB
:102770006FFF04F2344318460BEE103AFFF730FFB8
:1027800004F58C6318460EEE103AFFF761FFAE4B6E
:10279000C4F89C54C4F8603404F5946318460EEEF3
:1027A000903AFFF755FF04F2DC43184608EE903AE2
:1027B000FFF716FF04F5A16318460FEE103AFFF776
:1027C00047FF304607F0FEFA04F22463184608EE8D
:1027D000103A07F0F7FA484607F0F4FA504607F0C7
:1027E000F1FA584608F064FE04F6D413294626226E
:1027F0000BEE903A18461BF0A9FD1BEE900AFFF76E
:1028000001FF4FF00103914A84F8F8394FF6FF7346
:10281000C4F8D42904F60C22A4F8023A1046A4F80D
:10282000043A84F8063A0FEE902AA4F8083AC4F85D
:10283000FC5984F8005A0AF02FFF854B2A46294696
:10284000C4F80C3A4FF0010319EE900AC4F8485A44
:1028500084F8303A7F4BC4F8644AC4F8603A7E4B3F
:10286000C4F86C5AC4F8683A4FF4887300934FF474
:10287000F073FFF7A1FE4FF07F432A462946A36677
:102880004FF48873079800934FF4F073FFF794FEAA
:102890004FF0FF332C222946C4F89430CE231AEE91
:1028A000100A00938823FFF787FEC2220C211CEE3A
:1028B000100AFFF774FE4FF07F434FF004020EA999
:1028C000C4F8F4301CEE100A644BA4F8F8500E93D0
:1028D000ADF83C200AF099FB1CEE101A1AEE100A13
:1028E00008F0F0FF40462A462D21FFF758FE02224D
:1028F000B421404623230091114607F0BDF92B4631
:10290000642240462946009507F06AFB40460321B1
:1029100007F0AFFA4FF0040240460EA9ADF8382098
:1029200007F013FC40464E4907F090F940463C2121
:1029300007F0BAF941461AEE100ADFF8288108F0CC
:10294000C1FF48232A4694211AEE900A0093B82327
:10295000FFF732FE0D223D211CEE900AFFF71FFE0D
:102960004FF07F423D4B0EA9C4F83C224FF00802C5
:102970001CEE900AA4F840520E93ADF83C200AF0E9
:1029800044FB1CEE901A1AEE900A08F09BFF3846A2
:102990001D222946FFF703FE022223233846114653
:1029A0000093B42307F068F92B4664223846294681
:1029B000009507F015FB3846294607F05AFA4FF004
:1029C000070238460EA9ADF8382007F0BEFB38469E
:1029D000234907F03BF938463C2107F065F93946B1
:1029E0002C271AEE900A08F06DFFC223E4228F21F3
:1029F00019EE100A0097FFF7DFFD32232A46294619
:102A000008980097FFF7D8FD4FF0FF3119EE100A34
:102A1000C4F88083C4F87C134FF00501A4F8841334
:102A2000089908F04FFF32232A4690210998009711
:102A3000FFF7C2FD4FF0FF304FF0050114E000BF7B
:102A4000EC1F02908CFC0190441F0290541C0290D9
:102A500000FC019074FC019087250090F0FB019030
:102A6000FF9700FF242424FF364FC4E9EC08A4F8A4
:102A7000B81319EE100A099904F64C2808F022FF41
:102A80001022A2211DEE100AFFF789FD4FF07F41B1
:102A90004FF007021DEE100AC4F8EC130EA9A4F8BB
:102AA000F053ADF83C200E970AF0AFFA1DEE101A65
:102AB00019EE100A08F006FF112213211DEE900AEC
:102AC000FFF76DFD4FF07F430EA91DEE900AC4F88D
:102AD00028344FF00603A4F82C54ADF83C300E9780
:102AE0000AF093FA1DEE901A19EE100A08F0EAFEA9
:102AF00067234E27612294211BEE100A0093B8230E
:102B0000FFF75AFDB8232A4629461EEE100A009701
:102B1000FFF752FD4FF07F43A4F89454C4F890346B
:102B2000094B1B682BB9094BAE21094A09481BF018
:102B300081FB094B1B88022B12D8084BAF21044A9A
:102B4000F4E700BFF0FB0190F82C012078FA019027
:102B5000BAFA0190E8FA0190FC2C01202FFB0190B9
:102B6000DD4B0221186801F08BFADC4A03460A218A
:102B700040460FF085FBDA4B4FF001020EA91EEE26
:102B8000100AC4F89C840E934FF00308ADF83C2063
:102B90000AF03BFA1EEE101A1BEE100A08F092FE25
:102BA0003A461EEE900A4221FFF7F9FC4FF07F41B2
:102BB000CB4F1EEE900AC4F8D0140EA9A4F8D4543A
:102BC0000E97ADF83C800AF020FA1EEE901A1BEE2C
:102BD000100A08F077FEEB2318EE900A16220093F5
:102BE0004FF4C6714523FFF7E7FCDF2229461FEEAD
:102BF000100AFFF7D4FC4FF07F430EA91FEE100A16
:102C0000C4F838354FF00503A4F83C55ADF83C3016
:102C10000E970AF0FAF91FEE101A18EE900A08F053
:102C200051FE2A46304628216427FFF7B8FC0222CD
:102C300030460F230097114607F01EF83A462B4600
:102C400029463046009507F0CBF94146304607F05B
:102C500010F94FF009030EA93046ADF8383007F0EF
:102C600074FA30469F4906F0F1FF30463C2107F0E8
:102C70001BF8314618EE900A4FF0090608F022FEC4
:102C80002A4618EE100A0921FFF789FC022218EEE5
:102C9000100A0F231146009706F0EEFF2B463A4626
:102CA000294618EE100A009507F09AF9414618EEE9
:102CB000100A07F0DEF80EA918EE100AADF8386019
:102CC00007F043FA18EE100A864906F0BFFF18EE27
:102CD000100A3C2106F0E8FF18EE101A18EE900AD0
:102CE00008F0F0FD484670222821FFF758FC022228
:102CF00048460F231146009706F0BEFF2B463A4682
:102D000029464846009507F06BF94146484607F0CA
:102D1000B0F80EA94846ADF8386007F016FA4846F4
:102D2000704906F093FF48463C2106F0BDFF494636
:102D300018EE900A08F0C6FD504670220921FFF7F0
:102D40002EFC022250460F231146009706F094FFF6
:102D50002B463A4629465046009507F041F9414630
:102D6000504607F086F80EA95046ADF8386007F0D7
:102D7000ECF950465B4906F069FF50463C2106F0ED
:102D800093FF514618EE900A08F09CFD0A234FF07D
:102D900008015846ADF83430ADF83010CE21ADF80A
:102DA00038304023019504930EABCDE902510DA9B3
:102DB00000930B460CA90A46294608F0E9FA294671
:102DC000584608F0C7F85846072108F09BF82946EE
:102DD000584608F0A2F85846434908F0B5F8584656
:102DE000122108F0ABF85846B42108F0A1F82A46A1
:102DF00029465846FFF7D3FB1BEE900A1422082100
:102E0000FFF7CDFB4FF005030DA91BEE900AADF8BF
:102E100034304FF00603ADF83830A4F8083A0EAB62
:102E20001A460AF032F91BEE901A584608F04DF98E
:102E30001FEE900A052240F29F11FFF7B0FB0EAB88
:102E40004FF001020BA91FEE900A0093ADF830205D
:102E50000DAB0CAAADF82C50ADF83480251DADF8A3
:102E600038800AF076FB4FF00F131FEE901A584689
:102E7000C4F8443A04F52663C4F8343A08F025F956
:102E800019EE901A284608F01DFD0799284608F00B
:102E900019FD1AEE101A284608F014FD1AEE901AC1
:102EA000284608F00FFD19EE101A284608F00AFD12
:102EB0001BEE101A284608F005FD18EE901A284659
:102EC00008F000FD2846594608F0FCFC204611B0E9
:102ED000BDEC108BBDE8F08F042D012081FB01902B
:102EE000F0FB0190FF9700FF670B0190044B10B5BA
:102EF0000446036000F6C40008F002F9204610BD45
:102F00008CFC019010B50446FFF7F0FF4FF42761E9
:102F100020461BF046F9204610BD704700F5967319
:102F20000868496803C3704770477047416070473D
:102F3000704701230372704770477047704703461C
:102F400008469A6B8A4210B408D00A680021146DB2
:102F5000B3F9502023465DF8044B18475DF8044B45
:102F600070470A680B46002110B4146DB0F9202098
:102F7000184623465DF8044B184770477047704762
:102F8000704700000B680846024A00211B6DB2F929
:102F9000002018479E2C012030B444680346C268C4
:102FA0009B68551004EB6200D20748BF625930BCE1
:102FB00048BFD358184743682BB183682BB9C06802
:102FC00000F0010070471846704701207047014625
:102FD0004068036824311B6E184700001FB50A4B78
:102FE00004461C226946CDE9003040680123CDE942
:102FF000022303685B6F9847606804F1240103684B
:10300000DB6D984704B010BD9C020290044B08464B
:103010001A880B68002152421B6D12B2184700BF7C
:103020009E2C01207047002210B5B1F90840B1F97B
:103030000A10028042808480C18010BD30B4446890
:103040000346C2689B68551004EB6200D20748BF74
:10305000625930BC48BFD358184743682BB18368C6
:103060002BB9C06800F00100704718467047012076
:10307000704710B441680346C2689B68541001EB66
:103080006200D20748BF0A595DF8044B48BFD358C5
:10309000184743682BB183682BB9C06800F0010062
:1030A0007047184670470120704710B504460C2140
:1030B0001BF077F8204610BD10B5044610211BF018
:1030C00070F8204610BD10B504464FF4AC711BF0EB
:1030D00068F8204610BD10B5044628211BF061F8A1
:1030E000204610BD10B5044654211BF05AF8204666
:1030F00010BD10B5044610211BF053F8204610BD3A
:1031000010B504464C211BF04CF8204610BD10B5FC
:10311000044610211BF045F8204610BD10B50BF0F9
:10312000A1FF0368BDE810401B6B1847054B014623
:103130001B782BB1406818B103680C311B6E18471F
:10314000704700BFA72C01201F4B1B7810B5044609
:1031500013B90123037210BD90F84D0094F84C3060
:103160000130C0B2984284F84D0024D8B4F94E2002
:1031700000210DF0C3FC10F0010283B221D04FF604
:10318000FF710028D8BF0A461344A4F85030B4F8A1
:10319000502004F10C00638A0021D21A12B2A4F864
:1031A00050200CF04DFF606804F13C010368BDE85D
:1031B00010405B6F184701232372002384F84D30C1
:1031C000C9E7A4F85000E2E7A72C012010B5044697
:1031D000D0F83C0158B10368DB68984738B1D4F89F
:1031E0003C0103689B6898470023C4F83C3110BD3C
:1031F0001FB50C4B04461B788BB10B4B1C22694648
:10320000CDE9003040680123CDE9022303685B6FFC
:103210009847606804F10C010368DB6D984704B0BF
:1032200010BD00BFA72C0120440302902DE9F14FEF
:10323000D0E9545A0746A86803681B6A984740F6C5
:103240007723984205D8454BA321454A45481AF0B3
:10325000F1FF686803681B6A98470F2803D8424B40
:10326000A4213F4AF2E7E86803681B6A98470B28E5
:1032700003D83E4BA5213A4AE8E7DFF8F8900BF077
:10328000F1FE0BF03DFFD9F8000010B10368DB68D8
:103290009847D9F8000010B103681B689847DFF819
:1032A000D880D8F8000010B103685B699847D7F858
:1032B000380110B103685B689847D8F8000010B176
:1032C00003681B689847D7F8380110B103689B68FA
:1032D0009847E86800214FF0000B03685B6A984745
:1032E000234B0446C0F804B00360594680F808B088
:1032F000A86803685B6A9847064600F0E3FF6868C1
:10330000594603685B6A98470546314600F0F0FE6F
:10331000C9F80040C7F83851C8F80060E5B12B1D66
:10332000CAF8003030463368C5F808A0DB68F5639A
:1033300098472B6828461B689847214630460DF071
:1033400096FB236820461B699847236820465B69E3
:1033500001B0BDE8F04F18472B46E1E7B8FC0190FB
:1033600046FD01904EFE019095FE019038FF0190C0
:1033700078020290E82C0120E42C01202DE9F74F7F
:10338000D0E9545A0746A86803681B6A984740F674
:103390007723984205D8594BA321594A59481AF026
:1033A00049FF686803681B6A98470F2803D8564B83
:1033B000A421534AF2E7E86803681B6A9847532838
:1033C00003D8524BA5214E4AE8E7DFF854910BF0A1
:1033D00049FE0BF095FED9F8000010B10368DB68D8
:1033E0009847D9F8000010B103681B689847DFF8C8
:1033F0003481D8F8000010B103685B699847D7F8AA
:10340000380110B103685B689847D8F8000010B124
:1034100003681B689847D7F8380110B103689B68A8
:103420009847E868002103685B6A984700220646CF
:10343000374B04464260027246F80C3B304609F0B6
:10344000DDFB344B2022A663C4E90F340123C4E919
:10345000112314230022A4F84C302F4BA4F8502041
:103460001B789BB1DFF8C0B011463046BBF9003085
:1034700000932A4BB3F90030FFF79EF8304609F06D
:1034800038FBBBF800305B42A4F84E30A86800213E
:1034900003685B6A9847064600F014FF68680021DD
:1034A00003685B6A98470546314600F021FEC9F87B
:1034B0000040C7F83851C8F80060E5B12B1DCAF8C4
:1034C000003030463368C5F808A0DB68F5639847DC
:1034D0002B6828461B689847214630460DF0C7FAEE
:1034E000236820461B699847236820465B6903B020
:1034F000BDE8F04F18472B46E1E700BFB8FC01904C
:10350000DBFF01904EFE019095FE019038FF019087
:103510005C03029044030290A72C01209C2C012004
:10352000E82C0120E42C01209E2C01202DE9F74FEE
:10353000D0E954BA0746DBF8080003681B6A9847CD
:10354000B0F5B06F05D2584BA321584A58481AF02D
:1035500071FEDBF8040003681B6A98470F2803D844
:10356000544BA421514AF1E7DBF80C0003681B6AB5
:1035700098474B2803D8504BA5214C4AE6E7DFF883
:1035800050910BF06FFD0BF0BBFDD9F8000010B1AE
:103590000368DB689847D9F8000010B103681B681E
:1035A0009847DFF83081D8F8000010B103685B69F4
:1035B0009847D7F8380110B103685B689847D8F886
:1035C000000010B103681B689847D7F8380110B1A4
:1035D00003689B689847DBF80C000021002503680E
:1035E0005B6A9847354B2022456003602946344B7F
:1035F000044605720562C0E903300123C0E90523D2
:1036000014232A4683834FF4807383642D4B4362D3
:103610002D4BB3F90030C0E90A55C383C0E90C55FE
:10362000C0E90E55C0E9105500932430274BB3F97B
:103630000030FEF7C1FFDBF80800294603685B6A2B
:103640009847064600F040FFDBF80400294603686F
:103650005B6A98470546314600F00CFFC9F8004008
:10366000C7F83851C8F80060E5B12B1DCAF8003022
:1036700030463368C5F808A0DB68F56398472B68C7
:1036800028461B689847214630460DF0F0F923681C
:1036900020461B699847236820465B6903B0BDE854
:1036A000F04F18472B46E1E7B8FC0190F700029075
:1036B0004EFE019095FE019038FF01901803029094
:1036C0009C020290B40202909E2C01209C2C0120AE
:1036D000E82C0120E42C0120F0B50446407F89B09D
:1036E0000130237FC0B29842607750D8B4F91E20D1
:1036F00000210DF003FA10F0010283B24DD04FF615
:10370000FF710028D8BF0A4613442384B4F920006F
:10371000218C638C6084CA1A607F12B201282284D3
:103720002CD11F48007848B31E4F00251E4EADF81F
:1037300012203A88ADF81050ADF8142032881344A6
:103740005B1AADF81630194B18680368DB6A9847A6
:103750003B88ADF81850ADF81C303388ADF81A50DE
:10376000ADF81E300390FDF7AFFDFF22036803990B
:10377000009206AA0195DD6804ABA847606804F1D1
:103780000C0103685B6F09B0BDE8F04018470123E6
:1037900023720023637709B0F0BD2084B6E700BF31
:1037A000A62C01209C2C01209E2C0120A82C01205D
:1037B000F8B5044617460E460BF0BEFC0E4B00252E
:1037C0001C6029460D4B23600D4BC4E950350D4B51
:1037D0001868C4E952550368C4E94E559B68C4E9AA
:1037E00054769847284600F00FFCFDF76DFD13F066
:1037F000CAFB2046F8BD00BFF42C01203402029021
:103800001C020290A82C0120064BC0F84401C0F80D
:1038100048310023C0F84C3100F5A073C0F83C31AA
:10382000704700BF2D320090064BC0F84401C0F82D
:1038300048310023C0F84C3100F5A073C0F83C318A
:10384000704700BF7D330090064BC0F84401C0F8BC
:1038500048310023C0F84C3100F5A073C0F83C316A
:10386000704700BF2D350090006A7047406A70476E
:1038700070478B888069DB0A0A6850F8230010447F
:10388000704710B5C2B1137BB3B1547BD27A240216
:1038900004F4E0641443C26998B202EB8402138812
:1038A0008B4202D192F9020010BD05D801380432D2
:1038B00080B20028F3D1F7E70020F5E710B5044601
:1038C00028211AF06EFC204610BD000030B589B0EA
:1038D0000446BDF850500695BDF84C5005959DF82E
:1038E000405004959DF83C5003959DF83850029542
:1038F0009DF8345001959DF8305000950CF030FC47
:10390000064B20462360119BA361129BE361159B2C
:103910002362169B636209B030BD00BF880302902A
:1039200070470620704770477047000038B5074B56
:1039300004464FF44975036063596019A03D1B6844
:10394000984715F19C0FF7D1204638BDF00402903E
:10395000044B10B50446036000F5CE70FFF7E6FF98
:10396000204610BD38050290F0B446680446C5688C
:10397000A4686F1006EB6500ED0744BFF5592C599C
:10398000A446F0BC604743682BB183682BB9C0687C
:1039900000F001007047184670470120704730B4AE
:1039A00044680346C2689B68551004EB6200D20766
:1039B00048BF625930BC48BFD358184743682BB141
:1039C00083682BB9C06800F0010070471846704743
:1039D0000120704710B50446FFF7A8FF4FF471713E
:1039E00020461AF0DEFB204610BD10B5044610211B
:1039F0001AF0D7FB204610BD10B5044610211AF06E
:103A0000D0FB204610BD10B50446FFF7A1FF4FF4D0
:103A1000B06120461AF0C5FB204610BD38B54FF402
:103A2000D074054600F5827006F097FD2B592819D1
