:020000040800F2
:10000000B0080020F51E0008CD1E0008CF1E000815
:10001000D11E0008D31E0008D51E000800000000F5
:10002000000000000000000000000000D71E0008D3
:10003000D91E000800000000DB1E0008DD1E0008BD
:100040001D1F0008211F0008251F0008291F000888
:100050002D1F0008311F0008351F0008391F000838
:100060003D1F0008411F0008451F0008491F0008E8
:100070004D1F0008511F0008551F0008591F000898
:100080005D1F0008611F0008651F0008691F000848
:100090006D1F0008711F0008751F0008791F0008F8
:1000A0007D1F0008811F0008851F0008891F0008A8
:1000B0008D1F0008911F0008951F0008991F000858
:1000C0009D1F0008A11F0008A51F0008A91F000808
:1000D000AD1F0008B11F0008B51F0008B91F0008B8
:1000E000BD1F0008C11F0008C51F0008C91F000868
:1000F000CD1F0008D11F0008D51F0008D91F000818
:10010000DD1F0008E11F0008E51F0008E91F0008C7
:10011000ED1F0008F11F0008F51F0008F91F000877
:10012000FD1F000801200008052000080920000824
:100130000D200008112000081520000819200008D3
:100140001D20000821200008252000082920000883
:100150002D20000831200008352000083920000833
:100160003D200008412000084520000849200008E3
:100170004D20000851200008552000085920000893
:100180005D20000861200008652000086920000843
:100190006D200008712000087520000879200008F3
:1001A0007D200008812000088520000889200008A3
:1001B0008D20000891200008952000089920000853
:1001C0009D200008A12000087CB50400012600F055
:1001D000FBFB0500002C01D101205AE0206A4028D9
:1001E00094F84000012801D1022052E0012084F857
:1001F000400094F8410000280AD1002084F8400013
:10020000200000F0E0FB41F28831200000F0B4FA59
:100210002068006830F4F850A168491E50EA0120B7
:1002200021680860A06C00902B0000222021200093
:1002300000F0A4FA0100C9B2002926D121680A6899
:1002400014490A40616852EA0162E1680A43E169BF
:100250000A43216A0A4321680A6021684A680E49F4
:100260000A40216952EA014261690A43A1690A43CD
:1002700021684A602168096851F001012268116013
:1002800000216164012184F84110002184F84010AC
:10029000C0B276BD2FFFFF00FEF8E0FF10B50400EE
:1002A000002C01D101201AE094F84000012801D16E
:1002B000022014E0012084F8400020680068400813
:1002C000400021680860200000F084FB002060648A
:1002D000002084F84100002084F84000002010BD78
:1002E0002DE9F84304000D0016005FF0010800F04E
:1002F0006BFB0700A8690028E8690028286A002825
:1003000094F84000012801D102203DE0012084F84A
:10031000400094F8410001282FD1002060640220A1
:1003200084F8410000963B0000222021200000F0CC
:1003300025FA81464846C0B2002820D10022290073
:10034000200000F044FA686A002812D100963B00B1
:1003500001220221200000F011FA81464846C0B275
:1003600000280CD102202168C860012084F84100D7
:1003700005E0012084F8410001E05FF0020900205F
:1003800084F840004846C0B2BDE8F2832DE9F84346
:1003900005000C001600002700F016FB80462868B8
:1003A00010F1200995F84000012801D102205EE0FB
:1003B000012085F8400095F84100012850D1002027
:1003C0006864002C45D0122085F841002868006937
:1003D000401CE86228680069401CA8626C622868BA
:1003E000406930F0406029684861E86A002815D00B
:1003F0000096434601220421280000F0BFF90700BF
:100400003800C0B2002809D1686A411C69620078CE
:1004100089F80000E86A401EE862E6E73800C0B2EA
:10042000002812D10096434601220221280000F044
:10043000A5F907003800C0B2002806D102202968BB
:10044000C860280000F04CF90700012085F8410041
:1004500008E0686C50F0080068640120070001E0C3
:1004600002200700002085F840003800C0B2BDE837
:10047000F2832DE9FC4705000C001600002700F070
:10048000A3FA80462868D0F81890286810F1200A4E
:1004900095F84000012801D1022063E0012085F891
:1004A000400095F84100012855D100206864002CD7
:1004B0004AD0222085F8410028680069401CA863C2
:1004C00028680069401C68632C632868406930F024
:1004D000406050F08060296848612868C0F8189032
:1004E000A86B002815D0009643460122062128005B
:1004F00000F044F907003800C0B2002809D1286B89
:10050000411C29639AF800100170A86B401EA86373
:10051000E6E73800C0B2002812D100964346012217
:100520000221280000F02AF907003800C0B2002894
:1005300006D102202968C860280000F0D1F8070021
:10054000012085F8410008E0686C50F008006864FC
:100550000120070001E002200700002085F840008C
:100560003800C0B2BDE8F6872DE9FC4704000D0055
:1005700016001F005FF0010800F026FA8146A86906
:100580000028E8690028286A002894F8400001281B
:1005900001D102204CE0012084F8400094F8410091
:1005A00001283ED100206064422084F84100009779
:1005B0004B4600222021200000F0E0F88246504601
:1005C000C0B200282FD13068216888627068216825
:1005D0004862B0682168C8622068016831F440014F
:1005E0003069014351F4800120680160F068A8621D
:1005F0005FF000622900200000F0E9F800974B4608
:1006000001220821200000F0B9F882465046C0B20D
:10061000002808D108202168C860012084F8410022
:1006200001E05FF0020A002084F840005046C0B2AA
:10063000BDE8F6872DE9F84304000D0016005FF0D1
:10064000010800F0C1F90700A8690028E86900283E
:10065000286A002894F84000012801D102203DE0DA
:10066000012084F8400094F8410001282FD1002097
:100670006064822084F84100A06C00903B0000225E
:100680002021200000F07AF881464846C0B20028B8
:100690001FD12068016831F00801706801432068AB
:1006A0000160706808280BD1306821680863102049
:1006B0002168C8602068006850F4801021680860D4
:1006C0005FF040622900200000F081F801E05FF057
:1006D0000209002084F840004846C0B2BDE8F28319
:1006E0007CB50400002500F06FF9060094F8410085
:1006F00080073ED5002084F840002068006840074D
:1007000011D52068006830F0040021680860E06BB3
:1007100000F07EF905002800C0B2002803D0606C0C
:1007200050F0040060642068006850F00200216806
:100730000860A06C0090330001220221200000F02C
:100740001DF805002800C0B200280BD10220216846
:10075000C860A06C0090330000222021200000F02F
:100760000DF805002800C0B2002802D1012084F84D
:1007700041002800C0B276BD816470472DE9F04188
:1007800005000E0090461F00069C286880683042D5
:1007900001D0012000E000204146C0B2C9B2884229
:1007A00012D014F1010FF0D0002C04D000F00CF99D
:1007B000C01B8442E9D2042085F84100686C50F0E7
:1007C00001006864012000E00020BDE8F08110B461
:1007D0004B6A002B06D0B2F1406F03D08B6A5B1ED0
:1007E000046823618B69002B79D00B6A002B3ED003
:1007F0008B680468E361CB69002B20D0CC6A0B6B5B
:100800001C434B6B1C434B6A1C434B6954EA8344A7
:100810000B691C430B6A1C43CB681C43CB691C430C
:100820008B691C430B681C43144303685C61B2F181
:10083000406F00F0C6804B680468A361C1E0CC6AD9
:100840000B6B1C434B6B1C434B6A1C434B6954EAB8
:1008500083440B691C430B6A1C43CB691C438B69A3
:100860001C430B681C43144303685C61A9E0CB691B
:10087000002B1ED0CC6A0B6B1C434B6B1C434B6A8A
:100880001C434B6954EA83440B6A1C43CB681C43EA
:10089000CB691C438B691C430B681C4314430368DE
:1008A0005C61B2F1406F00F08C804B680468A3611A
:1008B00087E0CC6A0B6B1C434B6B1C434B6A1C439D
:1008C0004B6954EA83440B6A1C43CB691C438B6914
:1008D0001C430B681C43144303685C6171E00B6AA2
:1008E000002B39D08B680468E361CB69002B1DD0E5
:1008F000CC6A0B6B1C434B6B1C434B6A1C434B6910
:1009000054EA83440B691C430B6A1C43CB681C43A9
:10091000CB691C438B691C43144303685C61B2F1CF
:10092000406F4ED04B680468A3614AE0CC6A0B6B01
:100930001C434B6B1C434B6A1C434B6954EA834476
:100940000B691C430B6A1C43CB691C438B691C431A
:10095000144303685C6134E0CB69002B1BD0CC6A84
:100960000B6B1C434B6B1C434B6A1C434B6954EA97
:1009700083440B6A1C43CB681C43CB691C438B69C3
:100980001C43144303685C61B2F1406F19D04B689B
:100990000468A36115E04B6A002B12D0CC6A0B6B84
:1009A0001C434B6B1C434B6A1C434B6954EA834406
:1009B0000B6A1C43CB691C438B691C4314430368BB
:1009C0005C6110BC7047704701480068704700BF09
:1009D000AC000020704730B4002513E050F8042B21
:1009E000D30744BFA9F101039A18091F042942F84B
:1009F000045BFAD213468C0744BF15809B1CC907C1
:100A000048BF1D7050F8041B0029E7D130BC704767
:100A100070B50400A56DFFF7D7FF060094F8350008
:100A2000022806D080206065002084F83400012070
:100A30003BE02068006830F01600216808602068FC
:100A4000406930F0800021684861206C002802D1A4
:100A5000A06C002805D02068006830F008002168EC
:100A6000086020680068400840002168086020682D
:100A70000068C0070ED5FFF7A7FF801B0628F6D336
:100A800020206065002084F83400032084F83500BD
:100A900003200AE03F21E06D8140A960002084F836
:100AA0003400012084F83500002070BD2DE9FC41A0
:100AB00004000026002C01D10120D8E12078C007D5
:100AC0006DD5DFF89405016811F00C01042909D0F7
:100AD000006810F00C0008280ED1DFF880050068CF
:100AE000400209D5DFF86C050068800357D56068BF
:100AF000002854D10120BAE16068B0F5803F06D1EA
:100B0000DFF85005016851F48031016026E060682B
:100B100000280AD1DFF83C05016831F4803101601A
:100B2000016831F48021016018E06068B0F5A02F01
:100B30000AD1DFF82005016851F4802101600168C5
:100B400051F48031016009E0DFF80805016831F4F3
:100B500080310160016831F4802101606068002803
:100B60000ED0FFF731FF0500DFF8E80400688003CE
:100B700015D4FFF729FF401B6528F5D3032076E144
:100B8000FFF722FF0500DFF8CC040068800306D5DC
:100B9000FFF71AFF401B6528F5D3032067E1207893
:100BA000800752D5DFF8B004016811F00C0F09D0AE
:100BB000006810F00C00082816D1DFF8A0040068C7
:100BC000400211D4DFF88C040168890704D5E1687C
:100BD000012901D001204AE1016831F0F8012269C0
:100BE00051EAC201016030E0E06800281AD0DFF865
:100BF0006474386850F001003860FFF7E5FE0500C6
:100C00003868800706D4FFF7DFFE401B0328F7D3C0
:100C100003202CE1386830F0F800216950EAC10067
:100C2000386012E0DFF82C74386840084000386003
:100C3000FFF7CAFE05003868800706D5FFF7C4FE37
:100C4000401B0328F7D3032011E12078000728D5A3
:100C50006069002812D0DFF80874386850F001008D
:100C60003860FFF7B1FE05003868800719D4FFF738
:100C7000ABFE401B0328F7D30320F8E0DFF8E07356
:100C80003868400840003860FFF79EFE050038686D
:100C9000800706D5FFF798FE401B0328F7D30320F3
:100CA000E5E02078400740F18780DFF8C0733868BE
:100CB000C0000AD4386850F080503860386810F0AE
:100CC00080500090009801200600DFF8A483D8F837
:100CD0000000C00513D4D8F8000050F48070C8F8A4
:100CE0000000FFF771FE0500D8F80000C00506D42B
:100CF000FFF76AFE401B6528F6D30320B7E0A06823
:100D0000012806D1DFF86C03016851F00101016090
:100D100025E0A06800280AD1DFF8580301684908D7
:100D200049000160016831F00401016017E0A0682A
:100D300005280AD1DFF83C03016851F00401016085
:100D4000016851F00101016009E0DFF82803016842
:100D5000490849000160016831F004010160A068A0
:100D6000002810D0FFF730FE0500DFF80803006808
:100D7000800719D4FFF728FE401B41F289318842D1
:100D8000F3D3032073E0FFF71FFE0500DFF8E40252
:100D90000068800708D5FFF717FE401B41F2893134
:100DA0008842F3D3032062E03000C0B2012803D1AF
:100DB000386830F080503860A069002856D0DFF8DD
:100DC0009802006810F00C0008284DD0A069022895
:100DD00037D1DFF88072386830F080703860FFF704
:100DE000F3FD80463868800107D5FFF7EDFDB0EBD5
:100DF00008000328F6D3032039E0E169206A0143A3
:100E0000606A51EA8011A06A4008401E51EA004120
:100E1000E06A51EA006151F00051DFF840020160E0
:100E2000386850F080703860FFF7CEFD05003868F4
:100E300080011BD4FFF7C8FD401B0328F7D3032014
:100E400015E0DFF81072386830F080703860FFF716
:100E5000BBFD05003868800108D5FFF7B5FD401BD4
:100E60000328F7D3032002E0012000E00020BDE8C2
:100E7000F6812DE9F04104000D000026002C01D17F
:100E800001209FE0DFF8F071386810F00F00A842F1
:100E90000BD238680009000128433860386810F028
:100EA0000F00A84201D001208CE02078800719D5DE
:100EB0002078400705D5DFF8A001016851F4E05122
:100EC00001602078000705D5DFF88C01016851F436
:100ED00060410160DFF880110A6832F0F002A0681A
:100EE00002430A602078C00737D56068012806D120
:100EF000DFF860010068800311D4012062E06068BF
:100F0000022806D1DFF84C010068800107D40120D7
:100F100058E050480068800701D4012052E0DFF813
:100F20003881D8F800108908890060680143C8F842
:100F30000010FFF749FD0600D8F8000010F00C0083
:100F40006168B0EB810F08D0FFF73EFD801B41F2D6
:100F500089318842F0D3032034E0386810F00F0064
:100F600085420BD238680009000128433860386890
:100F700010F00F00A84201D0012023E020784007A4
:100F800006D535490A6832F4E052E06802430A6047
:100F90002078000707D53048016831F460412269A4
:100FA00051EAC201016000F00FF834492A4A126880
:100FB000C2F30312895CC8402B4908600F2000F07F
:100FC00061F80020BDE8F0812DE9F0410024002502
:100FD000002600272048006810F00C00002804D0EC
:100FE000042804D0082804D031E01E4830E024480A
:100FF0002EE0DFF86880D8F8000010F03F00040011
:10100000D8F8000040020CD5D8F80000C0F38810D2
:101010001B49A1FB00012200002300F059F8050044
:101020000BE0D8F80000C0F388100E49A1FB0001C6
:101030002200002300F04CF80500D8F80000C0F3AF
:101040000140401C40000600B5FBF6F000E00548FA
:10105000BDE8F08100380240083802400438024000
:10106000743802400024F40004000020403802409C
:101070000070004070380240003C0240E41E00084E
:1010800040787D0110B504004FF47A700D4909785D
:10109000B0FBF1F00C490968B1FBF0F000F0B0F9D9
:1010A000002801D001200CE0102C09D200222100E0
:1010B0005FF0FF3000F08FF904480460002000E08A
:1010C000012010BD080000200400002000000020C6
:1010D000BBBBE1B1B2F5803F80F07E80022A1ED911
:1010E0008C46B1FBF2F102FB11C31B0443EA10432F
:1010F000B3FBF2FC02FB1C3380B240EA0343B3FBB8
:10110000F2F002FB103240EA0C4000237047022A42
:1011100005D98446B0FBF2F002FB10C270474AB119
:1011200005D100F0010249085FEA30007047002253
:101130000023704700F078B90B0002000021002066
:101140007047904271EB030CF6D3B3F5803F2FD27A
:10115000F0B5B3FA83F7B1FA81F4A7F10F0E3D1B96
:101160005340CEF1200602FA0EF2F3415340B5F19E
:101170000F0746D80F3C2C444140C4F12006A04044
:10118000F1414140B1FBF3F603FB1611A2FB06450A
:10119000001BA94102D2761E8018594180EA010243
:1011A00021FA0EF362FA0EF200215A403046F0BDE9
:1011B00030B4B1FBF3FC03FB1C11A2FB0C45001B7C
:1011C000A94103D2ACF1010C8018594130BC024650
:1011D0000B46604600217047B2F1807F65D3F0B5C1
:1011E000B2FA82F7B1FA81F4C7F10F063D1B22FA79
:1011F00006F307F1110EF24120355A40B5F10F0701
:10120000B8D94140C4F12006A040F1414140B1FBB2
:10121000F3FC03FB1C11A2FB0C45001BA94103D2EC
:10122000BCF1010C801859410F2F12D30F3FC90395
:1012300041EA5041B1FBF3F603FB1611A2FB064550
:10124000D4EBC030A94102D2761E8018594146EA3B
:10125000CC3C07B34140C7F12006B840F1414140C2
:10126000B1FBF3F603FB1611A2FB0645001BA941D7
:1012700002D2761E8018594180EA010221FA0EF34B
:10128000C7F1200462FA0EF20CFA07F05A402CFA69
:1012900004F13043F0BD80EA010221FA0EF300218F
:1012A00062FA0EF260465A40F0BD8C46B1FBF2F194
:1012B00002FB11C31B0243EA1063B3FBF2FC02FB07
:1012C0001C331B024CEA002043EA1063B3FBF2FC20
:1012D00002FB1C331B024CEA002043EA1063B3FB01
:1012E000F2FC02FB1C331B024CEA002043EA1063B1
:1012F000B3FBF2FC02FB1C324CEA002000237047D7
:1013000010B410F00703DFF8044122684FF6FF0124
:101310000A40DFF8FC1051EA03210A43226010BCA6
:101320007047DFF8E8000068C0F30220704710B48F
:10133000020052B2002A05D40A01364B040064B2FE
:101340001A5508E00A01344B040064B214F00F048B
:10135000234403F8042C10BC704770B4030013F04E
:101360000704D4F10700052801D3042001E0D4F1DB
:101370000700251D072D01D2002500E0E51E0126EE
:1013800016FA00F0401E0140A94016FA05F56D1E40
:101390002A401143080070BC704710B50400601E5D
:1013A000B0F1807F01D301200EE0601E1B49086070
:1013B0000F215FF0FF30FFF7BAFF002018490860E7
:1013C000072018490860002010BD10B50400200057
:1013D000FFF796FF10BD2DE9F04104000D00160047
:1013E0000027FFF79EFF8046320029004046FFF7A6
:1013F000B4FF0100200040B2FFF799FFBDE8F08183
:1014000010B504002000FFF7C8FF10BD0CED00E090
:101410000000FA0500E400E018ED00E014E000E050
:1014200018E000E010E000E07047000010B5CC4C80
:10143000CC4820602000FEF731FF002801D00120B9
:1014400055E000F095F9C8480021C1610021016212
:1014500000214162002141610021C162002101633C
:10146000002141634FF40051C160C0480021016177
:101470000121C160102181605FF480014161012080
:1014800060600420A0601020E0608020B0FA80F04E
:10149000401E20614FF4A06060610020A061002028
:1014A000E061002020622000FEF78EFE002801D0BF
:1014B00001201CE0200000F01BF8002801D00120D2
:1014C00015E0200000F0ACF8002801D001200EE06B
:1014D000200000F04DF8002801D0012007E0200096
:1014E00000F028F8002801D0012000E0002010BD05
:1014F00070B504009C4D4FF48070A8616620286090
:101500000020686241F28836320029002000FEF790
:10151000E7FE002801D001200BE09920286032006E
:1015200029002000FEF7DCFE002801D0012000E0A9
:10153000002070BD1CB504008B494FF440708861D9
:10154000EB2008604FF44060C8615FF04070486273
:101550000A20486100200190002000906A46200087
:10156000FFF768F8002801D0012000E0002016BD38
:1015700030B58FB004004FF4807007908520019043
:1015800000200890002009905FF080700A900020F1
:10159000069001200B9000200C9000200D90002060
:1015A0000E9041F288352A0001A92000FEF798FE2E
:1015B000002801D0012031E02A0069462000FEF712
:1015C00058FF002801D0012028E0200000F09EF8FC
:1015D000002801D0012021E0812001909DF8001019
:1015E00011F00F010A225FF07060B0FA80F08240C3
:1015F00011438DF800102A0001A92000FEF770FEAB
:10160000002801D0012009E02A0069462000FEF7E9
:10161000BDFE002801D0012000E000200FB030BD49
:10162000F0B595B004004FF4807007900020099049
:101630000020069000200C9000200D9000200E90BD
:1016400010201190002013905FF48000149065200A
:101650000190002008905FF080750A9501200B90A2
:101660003F4E41F288373A0001A93000FEF738FEBC
:10167000002801D0012047E03A0069463000FEF71B
:10168000F8FE002801D001203EE006200190002055
:101690000A903A0001A93000FEF722FE002801D08E
:1016A000012031E002200F900220109001201290C2
:1016B000052001900A953B000FAA01A93000FEF712
:1016C00053FF002801D001201EE06120019001207D
:1016D0000B909DF8000010F03F0050F040008DF896
:1016E00000003A0001A93000FEF7FAFD002801D001
:1016F000012009E03A0069463000FEF747FE002865
:1017000001D0012000E0002015B0F0BD70B504004C
:10171000154D4FF44070A8610620286000206862D3
:1017200041F28836320029002000FEF7D9FD00285A
:1017300001D0012013E00D4A022010600220506009
:10174000052028605FF040706862330029002000A7
:10175000FEF70AFF002801D0012000E0002070BD44
:101760000C000020001000A0580000209000002075
:1017700010B586B03648016851F00201016000687A
:1017800010F00200059005983248016851F00201FE
:101790000160016831F0020101602F48016851F0D9
:1017A00002010160016811F00201059105990168CB
:1017B00051F008010160016811F0080105910599D7
:1017C000016851F010010160006810F010000590F0
:1017D0000598402000900A200490022001900120EA
:1017E0000290022003901D4C6946200000F03CF856
:1017F00004200090092004900020029069462000F7
:1018000000F032F84FF40060009009200490144C6E
:101810006946200000F028F84FF48050009009201D
:1018200004906946200000F01FF804200090092071
:10183000049069460B4800F017F84FF400500090F0
:10184000092004906946200000F00EF806B010BD93
:101850003838024018380240303802400004024054
:10186000000C0240001002402DE9F8410022002344
:10187000002400260025102D80F00B81012717FA87
:1018800005F213000A681A4014009C4240F0FF80E1
:101890004A68022A02D04A68122A1FD12A00D208B6
:1018A00000EB8202D2F820C05FF00F0E15F00702A5
:1018B000D2B292001EFA02FE3CEA0E0CD1F810E001
:1018C00015F00702D2B292001EFA02FE5EEA0C0C7C
:1018D00066462A00D20800EB82021662D0F800C0E9
:1018E0005FF0030E2A00D2B252001EFA02F23CEA66
:1018F000020C91F8048018F003082A00D2B25200BA
:1019000018FA02F858EA0C0CC0F800C04A68012A1C
:1019100008D04A68022A05D04A68112A02D04A68CB
:10192000122A1BD186682A00D2B252001EFA02F295
:101930009643D1F80C802A00D2B2520018FA02F86D
:1019400058EA060686604268AF40BA434F68C7F35C
:101950000017AF403A439446C0F804C0C6682A0056
:10196000D2B252001EFA02FE36EA0E068F682A0034
:10197000D2B2520097403E43C6604A68D20040F15E
:101980008680DFF81421176857F4804717601268C3
:1019900012F480420092009ADFF800C12A009208F7
:1019A0005CF822705FF00F0E15F00302D2B29200C5
:1019B0001EFA02FE37EA0E07DFF8E420904201D15A
:1019C000002631E0DFF8DC20904201D101262BE037
:1019D000DFF8D420904201D1022625E0DFF8CC20A8
:1019E000904201D103261FE0DFF8C420904201D1CC
:1019F000042619E02F4A904201D1052614E02E4A10
:101A0000904201D106260FE02C4A904201D10726D0
:101A10000AE02B4A904201D1082605E0294A90426B
:101A200001D1092600E00A26F6B215F00302D2B26F
:101A30009200964037432A0092084CF82270224EBA
:101A40003268A243D1F804C05FEACC3C00D52243FF
:101A500032601E4F3E68A643D1F804C05FEA8C3C5A
:101A600000D526433E601A4F3A68A243D1F804C01D
:101A70005FEACC2C00D522433A60164F3E68A6435D
:101A8000D1F804C05FEA8C2C00D526433E606D1C63
:101A9000F1E6BDE8F1810000443802400838014019
:101AA000000002400004024000080240000C024016
:101AB000001002400014024000180240001C0240C6
:101AC0000020024000240240003C0140043C014050
:101AD000083C01400C3C0140BFF34F8FBFF36F8FB8
:101AE000002049490860BFF34F8FBFF36F8F47480D
:101AF000016851F400310160BFF34F8FBFF36F8F66
:101B00007047BFF34F8FBFF36F8F4048016831F4C8
:101B10000031016000203C490860BFF34F8FBFF3E4
:101B20006F8F704710B4002039490860BFF34F8FA2
:101B300038480168C1F34E32C1F3C900030043F6CF
:101B4000E07010EA421050EA8370334C20601800B5
:101B5000431E0028F3D11000421E0028ECD1BFF331
:101B60004F8F2A48046854F480340460BFF34F8FC9
:101B7000BFF36F8F10BC704710B400202449086079
:101B8000BFF34F8F2148016831F480310160BFF30A
:101B90004F8F20480168C1F34E32C1F3C9000300E2
:101BA00043F6E07010EA421050EA83701B4C20604C
:101BB0001800431E0028F3D11000421E0028ECD16B
:101BC000BFF34F8FBFF36F8F10BC704780B500F02D
:101BD00072F800F07DF800F030F800F027F80028E7
:101BE00001D000F029F800F06CF800200C490860E2
:101BF0000C480D49096801605FF01041096881F3E4
:101C0000088800688047FEE750EF00E014ED00E030
:101C100084ED00E080ED00E060EF00E074EF00E0B4
:101C200010E000E0A80000200400009010B500249F
:101C3000FFF7FCFB204310BDFEE730B591B0002458
:101C4000012005905FF48030069002200B905FF435
:101C500080000C9019200D904FF4D8700E90022047
:101C60000F900820109005A8FEF720FF050028001F
:101C7000C0B2002800D0FEE700F03EF804002000CB
:101C8000C0B2002800D0FEE70F2000900220019093
:101C9000002002904FF4A05003904FF48050049025
:101CA00006216846FFF7E5F80100C9B2002900D017
:101CB000FEE711B030BD80B5FFF70EFFFFF732FF32
:101CC00001BD80B5FFF71DFFFFF756FF01BD000006
:101CD00080B50748016851F4807101600320FFF767
:101CE00074FB0F20FFF7CEF900F004F8002002BDCE
:101CF000003C0240704700007CB500241B4801688E
:101D000051F080510160006810F080500090009800
:101D1000154E306850F480303060FEF755FE0500F7
:101D2000104C2068C00308D4FEF74EFE401B40F262
:101D3000E9318842F4D3032013E0306850F40030D6
:101D40003060FEF741FE06002068800308D4FEF7ED
:101D50003BFE801B40F2E9318842F5D3032000E0CE
:101D6000002076BD04700040007000404038024002
:101D70000F48016851F4700101600E49086850F085
:101D80000100086000200C4A10600A680B480240FD
:101D90000A600B480B4A1060086830F48020086025
:101DA0000020094908605FF000600849086070473A
:101DB00088ED00E00038024008380240FFFFF6FEE0
:101DC00010300024043802400C38024008ED00E0D6
:101DD00030B450F8041B79B10268436802440830FB
:101DE000DC0744BFA9F10104E31852F8045B43F88F
:101DF000045B091FF9D1ECE730BC704710B5074907
:101E000079441831064C7C44163404E00A68081DF5
:101E1000114488470146A142F8D110BD2C000000B2
:101E20004C0000004EF68851CEF20001086840F4E4
:101E300070000860BFF34F8FBFF36F8F4FF00070DB
:101E4000E1EE100A704700008FEBFFFFA4000000D6
:101E50000C0000200000000079FFFFFF0C000000D4
:101E6000B0000000000000200000000000F00DF8AD
:101E7000002801D0FFF7C2FFAFF300800020AFF3CE
:101E80000080FFF7A3FE00F002F80120704700F089
:101E900001B800000746384600F002F8FBE70000F2
:101EA00080B5AFF30080024A11001820ABBEFBE7FB
:101EB0002600020003480168034A1278891801606D
:101EC000704700BFAC000020080000207047FEE70C
:101ED000FEE7FEE7FEE770477047704780B5FFF703
:101EE000E9FF01BD00000000000000000102030442
:101EF000060708090148804701480047711D00088E
:101F0000051F0008AFF30080FFF78CFFFFF7AEFF5F
:101F1000100000000024F40001000000FFF7FEBFE5
:101F2000FFF7FEBFFFF7FEBFFFF7FEBFFFF7FEBFE5
:101F3000FFF7FEBFFFF7FEBFFFF7FEBFFFF7FEBFD5
:101F4000FFF7FEBFFFF7FEBFFFF7FEBFFFF7FEBFC5
:101F5000FFF7FEBFFFF7FEBFFFF7FEBFFFF7FEBFB5
:101F6000FFF7FEBFFFF7FEBFFFF7FEBFFFF7FEBFA5
:101F7000FFF7FEBFFFF7FEBFFFF7FEBFFFF7FEBF95
:101F8000FFF7FEBFFFF7FEBFFFF7FEBFFFF7FEBF85
:101F9000FFF7FEBFFFF7FEBFFFF7FEBFFFF7FEBF75
:101FA000FFF7FEBFFFF7FEBFFFF7FEBFFFF7FEBF65
:101FB000FFF7FEBFFFF7FEBFFFF7FEBFFFF7FEBF55
:101FC000FFF7FEBFFFF7FEBFFFF7FEBFFFF7FEBF45
:101FD000FFF7FEBFFFF7FEBFFFF7FEBFFFF7FEBF35
:101FE000FFF7FEBFFFF7FEBFFFF7FEBFFFF7FEBF25
:101FF000FFF7FEBFFFF7FEBFFFF7FEBFFFF7FEBF15
:10200000FFF7FEBFFFF7FEBFFFF7FEBFFFF7FEBF04
:10201000FFF7FEBFFFF7FEBFFFF7FEBFFFF7FEBFF4
:10202000FFF7FEBFFFF7FEBFFFF7FEBFFFF7FEBFE4
:10203000FFF7FEBFFFF7FEBFFFF7FEBFFFF7FEBFD4
:10204000FFF7FEBFFFF7FEBFFFF7FEBFFFF7FEBFC4
:10205000FFF7FEBFFFF7FEBFFFF7FEBFFFF7FEBFB4
:10206000FFF7FEBFFFF7FEBFFFF7FEBFFFF7FEBFA4
:10207000FFF7FEBFFFF7FEBFFFF7FEBFFFF7FEBF94
:10208000FFF7FEBFFFF7FEBFFFF7FEBFFFF7FEBF84
:10209000FFF7FEBFFFF7FEBFFFF7FEBFFFF7FEBF74
:0420A000FFF7FEBF89
:0200000490006A
:1000000000000520C98600909F2D0090A12D009032
:10001000A32D0090A52D0090A72D009000000000BA
:10002000000000000000000000000000E17A0090E5
:10003000A92D009000000000817B0090E57B0090DE
:1000400019870090198700901987009019870090F0
:1000500019870090198700901987009019870090E0
:1000600019870090198700901987009019870090D0
:1000700019870090198700901987009019870090C0
:10008000198700901987009019870090AD2D009076
:10009000B92D0090BD2D0090C12D009019870090C2
:1000A0001987009019870090198700901987009090
:1000B0001987009019870090198700901987009080
:1000C0001987009019870090198700901987009070
:1000D0001987009019870090198700901987009060
:1000E0001987009019870090198700901987009050
:1000F0001987009019870090198700901987009040
:10010000198700901987009019870090198700902F
:100110001987009019870090C52D009019870090CD
:10012000198700901987009019870090198700900F
:1001300019870090198700901987009019870090FF
:1001400019870090198700901987009019870090EF
:1001500019870090198700901987009019870090DF
:1001600019870090198700901987009019870090CF
:1001700019870090198700901987009019870090BF
:1001800019870090198700901987009019870090AF
:10019000198700901987009019870090198700909F
:1001A000D12D009019870090DD2D009019870090C7
:1001B000198700901987009019870090198700907F
:0801C0001987009019870090D7
:1001D00010B5054C237833B9044B13B10448AFF381
:1001E00000800123237010BD3801002000000000B2
:1001F00074C4019008B5034B1BB103490348AFF326
:10020000008008BD000000003C01002074C4019083
:1002100053B94AB9002908BF00281CBF4FF0FF316D
:100220004FF0FF3000F072B9ADF1080C6DE904CE6B
:1002300000F006F8DDF804E0DDE9022304B07047C1
:100240002DE9F047089E04468846002B4BD18A4290
:10025000154667D9B2FA82F24AB1C2F1200701FA13
:1002600002F320FA07F7954047EA030894404FEA63
:10027000154E230CB8FBFEF71FFA85FC0EFB178802
:1002800043EA084307FB0CF1994209D9EB1807F13F
:10029000FF3080F01B81994240F21881023F2B44CD
:1002A0005B1AA4B2B3FBFEF00EFB103344EA034426
:1002B00000FB0CFCA44509D92C1900F1FF3380F098
:1002C0000781A44540F2048102382C4440EA0740EB
:1002D000A4EB0C0400271EB1D4400023C6E9004360
:1002E0003946BDE8F0878B4209D9002E00F0EB803B
:1002F0000027C6E9000138463946BDE8F087B3FA61
:1003000083F7002F47D18B4202D3824200F2FA805A
:10031000841A61EB030301209846002EE0D0C6E961
:100320000048DDE702B9FFDEB2FA82F2002A40F0AF
:100330008F80491B4FEA154E1FFA85F80127B1FB44
:10034000FEFC230C0EFB1C1143EA014308FB0CF1DD
:10035000994207D9EB180CF1FF3002D2994200F212
:10036000CD808446591AA3B2B1FBFEF00EFB1014E7
:1003700043EA044408FB00F8A04507D92C1900F112
:10038000FF3302D2A04500F2B6801846A4EB080461
:1003900040EA0C409FE7C7F1200CBB4022FA0CFE5C
:1003A0004EEA030E01FA07F420FA0CF521FA0CF3D9
:1003B0004FEA1E482543B3FBF8F92C0C08FB193310
:1003C0001FFA8EFA44EA034309FB0AF49C4202FA3C
:1003D00007F200FA07F10BD91EEB030309F1FF3016
:1003E00080F087809C4240F28480A9F10209734426
:1003F0001B1BADB2B3FBF8F008FB103345EA034416
:1004000000FB0AFAA24508D91EEB040400F1FF33F1
:100410006BD2A24569D90238744440EA0940A0FB76
:100420000289A4EB0A044C45C2464B4654D351D032
:10043000002E69D0B1EB0A0564EB030404FA0CFC4E
:10044000FD40FC404CEA0505C6E90054002747E79B
:10045000C2F1200320FA03F7954001FA02F021FAD5
:1004600003F34FEA154E3843010CB3FBFEF71FFAB6
:1004700085F80EFB173341EA034107FB08F38B4273
:1004800004FA02F407D9691807F1FF3C2FD28B4216
:100490002DD9023F2944CB1A81B2B3FBFEF00EFBEB
:1004A000103341EA034100FB08F38B4207D9691876
:1004B00000F1FF3C17D28B4215D902382944C91AE2
:1004C00040EA07473BE73746304609E70746E7E695
:1004D0001846FBE64145ABD2B8EB020A69EB0E02C7
:1004E00001381346A4E76046E9E7184695E76746F2
:1004F000D1E781467CE702382C4447E7ACF1020C97
:100500002B442FE7384608E73746E9E6704700BF37
:1005100001F0FF01102A2BDB10F0070F08D010F8B4
:10052000013B013A8B422DD010F0070F42B3F6D1B8
:10053000F0B441EA012141EA014122F007047FF0D1
:1005400000070023F0E80256083C85EA010586EA28
:10055000010685FA47F5A3FA87F586FA47F6A5FA64
:1005600087F68EB9EED1F0BC01F0FF0102F0070270
:1005700032B110F8013B013A83EA010313B1F8D11B
:100580000020704701387047002D06BF35460338FC
:10059000073815F0010F07D1013015F4807F02BF35
:1005A000013015F4C03F0130F0BC0138704700BF86
:1005B00070477047704770477047704700F012B936
:1005C00010B5044698211AF055FF204610BD0000D2
:1005D00010B5044600F01CF9014B2046236010BD05
:1005E000DCC401907047043870477047C0680368E6
:1005F000DB6A1847A0F10400FFF7F8BF10B5044606
:1006000010211AF037FF204610BDA0F10400F5E7D5
:100610000022C1608260044A10B502F1080424324D
:100620000460426010BD00BF0CC5019070470438E3
:1006300070477047C0680368DB6A1847A0F1040080
:10064000FFF7F8BF10B5044610211AF013FF20463B
:1006500010BDA0F10400F5E70022C1608260044AE9
:1006600010B502F1080424320460426010BD00BFDE
:100670003CC501907047704700F03CB910B5044686
:10068000142200F5A4700EF0E6FA04F58470BDE8BB
:1006900010400CF013BE10B504464FF4C0711AF0B0
:1006A000E9FE204610BD000010B5044600F0A0F998
:1006B000014B2046236010BD74C5019000220260EA
:1006C00070470000F8B5104F054638682C1D07F03C
:1006D0009FF890B10D4E002338681A46314607F056
:1006E00057F850B9316820460A6804311BF010FBF6
:1006F0002868214603689B689847204614220449CD
:10070000BDE8F8401BF004BB682301205401002021
:1007100010000020704700F596730868496803C30D
:100720007047704710B504464FF4AC711AF0A2FE42
:10073000204610BD10B50446D0F85401FFF7C2FFA3
:100740002046BDE810400BF0D3BC10B50446D0F8ED
:100750003C0158B10368DB68984738B1D4F83C01D4
:1007600003689B6898470023C4F83C3110BD000023
:1007700010B5044600F06AFB014B2046236010BD13
:10078000ACC501900020704781807047C1807047E0
:1007900001817047418170477047704770477047CB
:1007A0007047C388D21A8388C91A036812B209B283
:1007B00010B45DF8044B1B6D18474FF6FF7383812F
:1007C0004FF0FF3303621368C361106070477047D6
:1007D000704790F825201AB190F8242002B11860D3
:1007E00070477047704710B5044698211AF042FED2
:1007F000204610BD70B50368044615465B6B9847EC
:100800002368294620469B6BBDE8704018470000CE
:100810002DE9F341044600250DF0B4F8324B26468D
:10082000E56304F16C070DF1080846F8403B01232D
:10083000A4F84450384684F865302C4BA4F8465050
:100840002364FF23A4F8485084F866304FF6FF7302
:10085000A4F84A5028F8043D4146A4F84C50A4F8A6
:100860004E50A4F85050A4F85250E565A4F86050DA
:10087000A4F8625084F86450A566C4E9155509F0DF
:1008800031FB29463046FFF77FFF29463046FFF708
:100890007DFF4FF4887230464FF4F071FFF7AAFFE6
:1008A0004FF07F4341463846A3660423ADF8043039
:1008B0000AF00FF84FF48872256738464FF4F0714C
:1008C000FFF798FF2946251D384609F0D1FA314631
:1008D000284608F051F82846394608F04DF82046D9
:1008E00002B0BDE8F08100BFF0C50190E4E20190E4
:1008F000704770477047704730B4C5680346446816
:100900006A10ED079B6804EB020048BFA25830BC98
:1009100048BFD358184743682BB183682BB9C068C8
:1009200000F001007047184670470120704710B56D
:10093000044608211AF09EFD204610BD10B504465D
:1009400010211AF097FD204610BD10B504464FF453
:10095000C0711AF08FFD204610BDD430884208B512
:1009600005D10BF0EDFCBDE8084000F0B7BA08BDBA
:100970000A4A026000228280C28002814281828112
:10098000C28102824282C2610284428480F82420B1
:10099000C0E90522012280F825207047E4E6019095
:1009A00070B5036804461546DB6A984723682946F4
:1009B00020461B6BBDE870401847000038B5044660
:1009C0000D46262200211AF0D6FD2046FFF7D0FF63
:1009D000064B2046294623602B88E384FF2384F8B6
:1009E000283009F076FF204638BD00BF94E401901E
:1009F0002DE9F04F044687B000250CF0C3FF2646D2
:100A0000854B26222946E5634FF6FF7B46F8403B9F
:100A100030461AF0B0FD3046FFF7AAFF7F4B0DF1CC
:100A2000180804F1980A2364FF2328F808BD4146FA
:100A300084F8663004F16C03A5660127184601931B
:100A4000FFF7BCFF41465046ADF810B0FFF7B6FFC8
:100A50004FF0FF33724A2946C4F8C83004F1D4037A
:100A6000C4F8982026221846C4F8C450A4F8CC70C4
:100A700004F5847984F8CE5084F8CF5084F8D050AF
:100A800000931AF078FD0098FFF772FF4FF0FF33E4
:100A9000644A2946A4F802314846C4F8D4202622E4
:100AA000A4F804B184F806B1C4F8FC5084F80051ED
:100AB00084F8F8701AF05FFD4846FFF759FF5A4B6B
:100AC0002A46A4F834B1C4F830314FF47F032946E4
:100AD0003046C4F83C3104F5A47B544BC4F838517B
:100AE000C4F80831524B84F84051C4F87031514B6E
:100AF00084F84151C4F87831C4F84451C4F87441C1
:100B0000C4F87C51FFF74CFF4FF4F0713046FFF70B
:100B10003FFE4FF488713046FFF73CFE4FF07F43B5
:100B20003A462946A3660198FFF73AFF0223414659
:100B30000198ADF8103009F0CCFE2A4629465046FF
:100B4000FFF72EFF3946504609F08CF93B463A46EE
:100B50002946504609F0BEF8CB224FF49671009812
:100B6000FFF71EFF424603A90098ADF80C50ADF800
:100B7000107009F0D5FC04F5B873AA22C2214846CA
:100B8000C4F8FC30FFF70CFF4FF0FF33A4F83C51E2
:100B9000C4F83831284B1B682BB9284BAE21284AA2
:100BA00028481AF073FC284B1B88012B03D8274BCD
:100BB000AF21234AF4E7264B3946186800F056FD6A
:100BC000244A0346142158460EF0AAFB4846C4F8AE
:100BD00044B109F045FC144BADF81450251D4146B5
:100BE0004846049309F059FC3146284607F0C4FEF4
:100BF0000199284607F0C0FE5146284607F0BCFE82
:100C00000099284607F0B8FE2846494607F0B4FE8A
:100C1000204607B0BDE8F08F24C70190E4E20190C0
:100C200098E1019048E3019024C60190ECE3019023
:100C300034C601905B0900908422012044C60190D3
:100C400050C7019086C6019088220120C7C6019036
:100C50009022012019C7019070477047416070478A
:100C600070470123037270477047704770477047A1
:100C70000B680846024900221B6DB1F900101847A5
:100C80002822012030B4C568034644686A10ED0785
:100C90009B6804EB020048BFA25830BC48BFD35841
:100CA000184743682BB183682BB9C06800F0010076
:100CB0007047184670470120704710B4C468034657
:100CC00041686210E4079B6801EB020048BF8A5844
:100CD0005DF8044B48BFD358184743682BB183686D
:100CE0002BB9C06800F0010070471846704701201A
:100CF000704710B504460C211AF0BCFB204610BD0D
:100D000010B504464FF4AC711AF0B4FB204610BD88
:100D100010B5044610211AF0ADFB204610BD10B5E9
:100D2000044654211AF0A6FB204610BD10B5044617
:100D300010211AF09FFB204610BD10B50BF000FBF0
:100D40000368BDE810401B6B184710B4826B0B465C
:100D50008A4209D00A68B0F950101846146D002272
:100D600023465DF8044B18475DF8044B70470000BC
:100D7000054B1B783BB143682BB11A6800F10C019D
:100D80001846126E10477047332201201F4B10B5D2
:100D90001B78044613B90123037210BD90F84D006F
:100DA00094F84C300130C0B2984284F84D0024D8F9
:100DB000B4F94E2000210CF068FF83B213F0010259
:100DC00021D04FF6FF710028D8BF0A461344A4F87B
:100DD0005030B4F8501004F10C00238A0022C91AD4
:100DE00009B2A4F850100CF099FA606804F13C01C3
:100DF0000368BDE810405B6F18470123237200238E
:100E000084F84D30C9E7A4F85000E2E7332201200E
:100E10001FB50C4B04461B788BB10B4B1C2269464B
:100E2000CDE9003040680123CDE9022303685B6F00
:100E30009847606804F10C010368DB6D984704B0C3
:100E400010BD00BF3322012008C80190F8B5044648
:100E500017460E460BF0DEFA144B0025C4F8546119
:100E60001C602946124B134E2360134B3068C4F8A4
:100E70003851C4F83C51C4F84031C4F84451C4F866
:100E80004851C4F84C51C4F8507103689B689847A6
:100E9000284600F0B1FB336893F876200AB1D86C8D
:100EA00000B9986813F095F92046F8BD802201201A
:100EB000A0C701903422012088C70190064BC0F8DA
:100EC0004401C0F848310023C0F84C3100F5A0734C
:100ED000C0F83C31704700BF3D100090064BC0F891
:100EE0004401C0F848310023C0F84C3100F5A0732C
:100EF000C0F83C31704700BF191200902DE9F0474F
:100F0000074690689946884603681546DDF820A094
:100F10001B6A9847B0F5C07F05D2424BA321424AD5
:100F200042481AF0B3FA686803681B6A98470F28AA
:100F300003D83F4BA4213C4AF2E7E86803681B6AE8
:100F400098470B2803D83B4BA521374AE8E70BF01D
:100F5000F7F90BF043FAD9F8000010B10368DB6829
:100F60009847D9F8000010B103681B6898473868A3
:100F700010B103685B699847D8F8000010B10368A6
:100F80005B689847386810B103681B689847D8F8C1
:100F9000000010B103689B689847E8680021036867
:100FA0005B6A9847044620B1002343600372224BDA
:100FB0000360A868002103685B6A9847064608B189
:100FC000FFF772FB6868002103685B6A9847054673
:100FD00010B13146FFF740FBC9F80040C8F8005097
:100FE0003E60E5B12B1DCAF800303046C5F808A0B8
:100FF0003368F563DB6898472B6828461B68984779
:10100000214630460CF03BFE236820461B6998477A
:10101000236820465B6998472846BDE8F0872B4641
:10102000E1E700BF44C8019059CA0190D2C80190BD
:1010300013C90190B6C90190E4C7019007B5D0F873
:10104000543100F59C710093044BD0F850210448B2
:10105000FFF754FF03B05DF804FB00BF74220120CA
:10106000702201202DE9F74F07469068994688467F
:10107000036893461B6A9847972805D85C4BA321C1
:101080005C4A5D481AF002FADBF8040003681B6A48
:1010900098470F2803D8594BA421564AF1E7DBF8AB
:1010A0000C0003681B6A9847532803D8544BA521AA
:1010B000504AE6E70BF044F90BF090F9D9F800003C
:1010C00010B10368DB689847D9F8000010B10368D5
:1010D0001B689847386810B103685B699847D8F86F
:1010E000000010B103685B689847386810B1036866
:1010F0001B689847D8F8000010B103689B689847B0
:10110000DBF80C00002103685B6A9847044600285E
:1011100034D0002605463B4B4660067245F80C3B32
:10112000284608F099FD384B2022A563A4F85060AA
:10113000C4E90F340123C4E911231423A4F84C306B
:10114000324B1B78D3B1324AE068B2F90020DFF8A5
:10115000C4A00192BAF900102661466B2846B04738
:10116000E168019A28468E6B1146B047284608F080
:10117000EFFCBAF800305B42A4F84E30DBF8080010
:10118000002103685B6A9847064608B1FFF720FA1A
:10119000DBF80400002103685B6A9847054610B13C
:1011A0003146FFF735FAC9F80040C8F800503E60F4
:1011B000E5B12B1D0C9A30461360AA603368F563C5
:1011C000DB6898472B6828461B68984721463046BD
:1011D0000CF055FD236820461B699847236820467C
:1011E0005B699847284603B0BDE8F08F2B46E1E7DE
:1011F00044C801905DCB0190D2C8019013C9019001
:10120000B6C9019020C8019008C80190332201207E
:101210002A2201202822012007B5D0F8543100F5F8
:101220009C710093044BD0F850210448FFF71AFF3B
:1012300003B05DF804FB00BF74220120702201207E
:1012400013B5002249B102AB019203F8052D0268E3
:10125000946801AAA04702B010BD0846FBE7408988
:1012600070478089704780887047837980881844E8
:1012700080B27047C07900F07F007047C079C00924
:101280007047006A7047406A704770478B88806972
:10129000DB0A0A6850F823001044704710B5C2B149
:1012A000137BB3B1547BD27A240204F4E064144378
:1012B000C26998B202EB840213888B4202D192F980
:1012C000020010BD05D80138043280B20028F3D1E5
:1012D000F7E70020F5E710B5044628211AF0CAF810
:1012E000204610BD30B589B00446BDF85050069573
:1012F000BDF84C5005959DF8405004959DF83C5024
:1013000003959DF8385002959DF8345001959DF84D
:10131000305000950CF092F8064B20462360119B4C
:10132000A361129BE361159B2362169B636209B064
:1013300030BD00BF84CC019030B5164D8DB02C78F7
:10134000BFF35B8F14F0010420D128461AF069F82E
:10135000E0B13F23012210490793104B08940693F4
:101360000F4B039400940F48CDE904430423CDE9C7
:101370000944CDE901320A23FFF7B4FF28461AF0E9
:101380005CF8094A094907481AF06FF805480DB09A
:1013900030BD00BF58010020C0021090C4FB019076
:1013A000D4CC01905C010020000000208B12009042
:1013B00030B5164D8DB02C78BFF35B8F14F001045F
:1013C00020D128461AF02DF8E0B13F230122104920
:1013D0000793104B089406930F4B039400940F4807
:1013E000CDE904430423CDE90944CDE901322823A2
:1013F000FFF778FF28461AF020F8094A09490748FC
:101400001AF033F805480DB030BD00BF840100204C
:10141000E8021090C0FB0190D8CC01908801002018
:10142000000000208B12009030B5164D8DB02C7846
:10143000BFF35B8F14F0010421D1284619F0F1FFAE
:10144000E8B13F23082210490793104B08940693F4
:101450000F4B104805930123CDE903430293042366
:10146000CDE90944CDE900431423FFF73BFF2846AB
:1014700019F0E3FF084A0949064819F0F6FF054844
:101480000DB030BDB0010020F8021090C8FB0190F3
:10149000DCCC0190B4010020000000208B120090F1
:1014A000704710B50446042119F0E4FF204610BD32
:1014B000012908B508D003D3022909D0002002E091
:1014C00000F012F8006808BD00F00EF84068FAE776
:1014D00000F00AF88068F6E700487047F4CC019005
:1014E000052070470220704700487047DC0100204B
:1014F00010B5054CFFF798FF2060FFF759FF6060BB
:10150000FFF71AFFA06010BDDC010020002070472B
:10151000002070470EB403B503AB002153F8042B31
:1015200001930BF0A9FD02B05DF804EB03B0704726
:101530000CB407B504AB53F8042B01930BF09CFDDE
:1015400003B05DF804EB02B07047000010B5C36B48
:10155000044673B3038E2BB9184BBF21184A1948A0
:1015600019F094FFC38D00EB43035B8B0BB30DF0BD
:101570001FF9238E012B03D8134BC421134AEEE726
:10158000E28D40F63F10531C9BB2092B194688BFD1
:10159000A3F10A0104EB4101498B814209D10A2BD5
:1015A00004EB420228BF0023508B04EB4303588313
:1015B00051832046BDE810400CF0DEBF58CD0190AD
:1015C00085CE019061CD0190A5CD0190B3CD019064
:1015D0000CF08CBF10B586B002AC84E806001A4649
:1015E0000AAB214605930193099B0093089B0AF0DF
:1015F0000FFA06B010BD000038B5D8B9114B12482B
:101600001B681249BBB11A689C681A441C440260EA
:101610005A681A440A606CB10D4B00221A80FFF719
:1016200063FF0546FFF75EFF0A4B1C600A4B1D6017
:101630000A4B188038BD0A4B03600A4B0B600A4BFB
:101640001C68E8E7E8010020EC010020F001002020
:10165000F4010020842201208C2201208822012014
:10166000780310906803109074031090044B1B686B
:1016700053F82100034B1B6803EB4000704700BF89
:10168000F0010020EC010020012380F8741080F8A4
:10169000753070470020704700207047836B0BB196
:1016A0000846184770474FF6FF7070474068036858
:1016B0009B691847134A0023F0B5C2F88430BFF382
:1016C0004F8FD2F8803043F6E076C3F3C904C3F3FA
:1016D0004E33A5075B0103EA060C284621464CEA77
:1016E0000007013900F14040C2F874724F1CF6D176
:1016F000203B13F1200FEED1BFF34F8FBFF36F8F5D
:10170000F0BD00BF00ED00E0034B902283F85A23A8
:1017100083F85823704700BF00E100E0094A0A49F6
:10172000D3680A48C3F30A03013B9BB20B801169DB
:10173000C1F30A01013901801364536B43F00103C3
:101740005363704700680140F8010020F601002053
:10175000014B986A704700BF84680140024B012228
:10176000996243F8602C704784680140034B5B69C1
:10177000DB0301D5FFF79EBF704700BF00ED00E01F
:1017800070B5044607F08BFA2368DD6D0AF0D8FDCA
:1017900001462046A84723682046054AD3F88050D2
:1017A0004FF040410023AC46BDE87040604700BFA9
:1017B00000FC03C008B531B90A4B4FF425710A4A41
:1017C0000A4819F063FEC0E90F1200324364084969
:1017D00018BF012200330A7018BF0123054A137095
:1017E00008BD00BF30CF0190A7CF019068CF019016
:1017F000322201203322012007F038BA07F042BA22
:1018000008B507F0FFF9044B5B69DB0303D5BDE8BE
:101810000840FFF74FBF08BD00ED00E007F04DBBEB
:1018200010B5044608F016F823682046D3F8A03017
:10183000BDE81040184790F877301BB14068036846
:101840001B6818471846704730B590F8744090F8F8
:101850003410104B8C421A780DD05AB90E4A0F49E9
:1018600014880F480C8001880E4D118001222980B8
:1018700004801A7030BD002AFCD00948074A01884C
:10188000084D1180044A1488118000222C800480A5
:10189000EFE700BF2C220120282201202E22012068
:1018A0002A22012030220120034B4FF080629A60EF
:1018B0004FF080729A60704700E100E0084B4FF0F3
:1018C0008062C3F88820BFF34F8FBFF36F8F4FF054
:1018D0008072C3F88820BFF34F8FBFF36F8F7047BC
:1018E00000E100E0134B144A10B51B6C1188134C37
:1018F0008B4213D1124B198802F062F9226892F8D8
:101900006630013382F8663000F024FA206807F070
:10191000A1FF0020BDE8104000F09BBC02F050F990
:10192000002000F097FC20680368BDE81040DB69E8
:10193000184700BF00680140F80100203422012050
:10194000F601002003685B6C1847012070470368AC
:101950009B6A18470D4B82B01A6B42F400021A635F
:101960001A6B02F400020192019A1A6942F4000211
:101970001A611A6922F400021A61054B054A1A61BC
:101980004FF08062044B9A6002B07047003802400A
:101990009C240120A519009000E100E040F2EF3006
:1019A00070470000024B1B68586803685B69184762
:1019B0003422012008B50B280BD8DFE800F012060E
:1019C000100A0A0A0A0808080808012008BD0520AC
:1019D000FCE7054B6521054A054819F057FD002035
:1019E000F4E70220F2E700BF0FD00190E4D00190AD
:1019F0002AD0019008B50A2809D8DFE800F01006BF
:101A00000E080808080606060600012008BD054B5A
:101A10008621054A054819F039FD0020F6E7022025
:101A2000F4E700BF0FD0019030D101902AD001908F
:101A3000F8B50C46487FFFF7BDFF0546A77F38463F
:101A4000FFF7B8FF06463846FFF7D4FFA38A628B3C
:101A5000D21A514B1A64A18A628B521A9A61A18AD6
:101A6000228B521A1A615863A18AE28A42EA014221
:101A70005A642269DA636268DA602268402A00F0F8
:101A8000838012D8042A49D0202A7DD0237F45EABA
:101A90000365414B45F40035DD61A27F617F9142D2
:101AA00014BF3E4A40F2012233E0B2F5807F1BD0E2
:101AB000B2F5007F2FD0802AE8D1A068021DDA623B
:101AC000227F45EA026545F40035DD615E622269E8
:101AD0005A6102784AB3012A3DD0314B4FF48871E4
:101AE000304A314819F0D2FC217F304A42EA016283
:101AF000DA61E1680A02480102F47802C90000F4E0
:101B00007C40C9B202430A431A625E6222695A618A
:101B1000274A1A6035E0217F264AE7E7227F45EA17
:101B2000026545F40035DD61EFE742880125D9699A
:101B3000501E21F47F4222F0100242EA0022DA61B4
:101B4000154CE36943F02003E361E3699B0613D579
:101B500000F020F9F9E7DA69418822F47F42257F15
:101B6000013922F01002FF3D42F0100218BF01259A
:101B700042EA0122DA61E3E71023A36015B10C4BBE
:101B80002360F8BD054BFBE7237F45EA0365024B65
:101B900045F40035C7E700BF00B002400102010074
:101BA000F5CF0190A4D001902AD001900A00020044
:101BB000010202000900020010B5887F0C46FFF701
:101BC00019FF254B5863A18AE28A42EA01425A640E
:101BD0002269DA63628BA18A521A1A642268082A7F
:101BE00020D1A18A628B521A9A61A18A628B521A01
:101BF0001A615862194A217F42EA0162DA61E1689A
:101C00000A02480102F47802C90000F47C40C9B21B
:101C100002430A431A6222695A612269DA60104A51
:101C20001A6010BD0022D8611A61A27FE1681AB95A
:101C30009963094B0B4AF3E70A02480102F4780260
:101C4000C90000F47C40C9B202430A43217F42EA42
:101C500001629A63EDE700BF00B002400900010095
:101C60000102020001020300054B4FF08062036095
:101C7000044BC3F88820BFF34F8FBFF36F8F7047BB
:101C80005CD0019000E100E010B50446FFF7ECFFE6
:101C90004FF44261204619F0EDFB204610BD0000D4
:101CA00070B505460A4B0C3000262C466022686051
:101CB0002E726E7244F8203B214607F039FF05F57D
:101CC0004263E6602034A342FBD1284670BD00BFCA
:101CD0005CD001900121002208B5084605F0EEFB1A
:101CE0000A4B186028B90A4B27210A4A0A4819F0FA
:101CF000CDFB00220421012005F0C2FC074B186037
:101D000018B9074B2B21034AF0E708BD0002002059
:101D10007DD1019031D20190C6D10190FC0100200B
:101D2000EFD10190024B4FF0FF31186805F01CBC59
:101D300000020020014B186805F052BC0002002090
:101D4000024B0021186805F00FBC00BF0002002004
:101D5000FFF7F0BF0023034803491A46006805F067
:101D6000D5BC00BFFC0100200400002013B50023F7
:101D7000074C01A91A46206805F00AFD4FF0FF3311
:101D8000002201A9206805F003FD02B010BD00BFCC
:101D9000FC01002005F05ABB7047704770470120D6
:101DA000704754207047542303FB010008307047EC
:101DB000542303FB010008307047012070474FF4A3
:101DC000C07070474FF4C07303FB010008307047C8
:101DD0004FF4C07303FB01000830704701207047C7
:101DE0001020704700EB01100830704700EB011025
:101DF000083070470846FFF761B80000034B10B584
:101E00000446036006F00CFD204610BDD0D20190C0
:101E100010B50446FFF7F2FF5C21204619F02AFBBB
:101E2000204610BD034B10B50446036006F0F8FCD5
:101E3000204610BD9CD2019010B50446FFF7F2FF7A
:101E40004FF4C471204619F015FB204610BD000068
:101E5000034B10B50446036006F0E2FC204610BDBB
:101E600068D2019010B50446FFF7F2FF1821204612
:101E700019F000FB204610BD084B10B50446036066
:101E800000F5DA70FFF7BAFF04F12C00FFF7CAFF84
:101E900004F11400FFF7DCFF204610BD04D30190CD
:101EA00010B50446FFF7E8FF4FF48E61204619F0A5
:101EB000E1FA204610BD00002DE9F341FFF70CFBCD
:101EC00000240546FFF70CFB234601462246284620
:101ED00000940DF0F1FA274B274A2046274D1A604F
:101EE000FFF78AFB26480DF029FA2B78BFF35B8FAA
:101EF000DB0738D4284619F094FA002833D0214C57
:101F0000214B04F5467604F1140004F12C0804F585
:101F1000DA776060C4F80880E7602661236006F025
:101F200081FC1A4B4046636106F07CFC184B384636
:101F3000E36206F077FC174B04F50470C4F8B43183
:101F4000FEF7BCFB224604F504713046FEF710FC98
:101F50003046FEF7B3FF284619F06FFA0E4A0F49D4
:101F6000204619F082FA0E4802B0BDE8F04100F0B8
:101F7000D5B800BF902201201813002004020020D1
:101F8000080000200802002004D3019068D20190CC
:101F90009CD20190D0D2019000000020791E0090C8
:101FA0009C120020014800F0DBB800BF9C1200200A
:101FB00010B50446042119F05DFA204610BD10B595
:101FC0000446782119F056FA204610BD10B5044693
:101FD0007C2119F04FFA204610BD0000F8B53A4CAC
:101FE0003A4D3B4B22463B4F28463B492B6019F06C
:101FF0003CFA3A4E3846FFF753FE224638493846F7
:1020000019F033FA304610F0B3FB2246354930461A
:1020100019F02BFA22463449344819F026FA34488C
:10202000002301223349C560038580F82A30C3624A
:10203000038680F8483080F8492080F84A3080F8DC
:102040004B3041664FF4F07180F8683080F86930A9
:1020500080F86A3080F86B30274DC0E90176C0E91E
:102060000433C0E90633C0E90833C0E90E33C0E9E0
:102070001033C0E91333C0E91533C0E9173380F8D2
:102080006C3080F8772080F878201C4A0367106055
:102090001B4A80F8743011804FF4887280F87530D4
:1020A0002A80184D80F876302B70174D80F8343028
:1020B0002980164B164903600A8022461549BDE85F
:1020C000F84019F0D2B900BF0000002078060020C7
:1020D00030D401907C060020991D00901C13002034
:1020E000691C00909B1D0090A11400900800002026
:1020F0009C120020010000012A220120342201202C
:10210000282201202C2201202E22012018D3019008
:10211000302201209D1D00907047000038B5044614
:1021200000F096F82046FFF72BFB2368094A4FF092
:102130004041D3F880502046074BA8470023074D65
:1021400084F84A30284600F0B9F80123256184F864
:102150006C3038BD00FC03C000F807C094130020A9
:1021600008B5036804469B6F9847236820461B6F99
:102170009847FFF7FBFD236820469B6E98474FF476
:102180008051074803F0DDF80821064803F0D9F82C
:10219000FFF7ECFD236820469B6E9847F8E700BFE9
:1021A0000020024000280240FFF7D2BAFFF7D6BA5B
:1021B000F8B5FFF725FB134A0023C2F88430BFF3BC
:1021C0004F8FD2F8803043F6E076C3F3C904C3F3EF
:1021D0004E33A5075B0103EA060C284621464CEA6C
:1021E0000007013900F14040C2F874724F1CF6D16B
:1021F000203B13F1200FEED1BFF34F8FBFF36F8F52
:10220000F8BD00BF00ED00E0FFF77EBAFFF74CBB62
:10221000FFF754BBFFF782BA06F0EEBC10B50446D8
:102220000C2119F027F9204610BD000004480023B6
:10223000044A43608360044B0449036019F015B9F4
:10224000941300200000002074D401901921009004
:10225000704770477047704730B58DB00D461446D3
:1022600000212C2201A819F086F901A806F052F8E5
:102270009DF8040030B1BDF8063001202B60BDF898
:10228000103023600DB030BD08B54FF488714FF4A5
:10229000F07005F0E7FF28B1034B1D21034A044805
:1022A00019F0F4F808BD00BFDCD3019040D40190D0
:1022B000FDD301904068704741607047094A136838
:1022C00043F080731360A2F54E42074B4C3A1168FD
:1022D0000B431360A2F57B62136843F001031360A4
:1022E000704700BFFCED00E055CEACC5521A02EBC2
:1022F0005302B2FBF3F07047014B1868704700BF00
:10230000041000E010B5036804461B6931B198471A
:10231000A26863689B1A1844606010BD9847A0606B
:10232000FBE7000014490020D1F8883043F4700323
:10233000C1F88830114B1A6842F001021A609860A7
:102340001A6822F0847222F480321A600C4A5A60B1
:102350001A6822F480221A60D8609A6B42F0010257
:102360009A634FF02042136823F0010313604FF08B
:1023700010438B60704700BF00ED00E00038024062
:102380001030002408B5642005F07EF8FBE700005B
:1023900030B5B5B030220021012507A8022419F07C
:1023A000EAF81422002102A819F0E5F8842200219D
:1023B00013A819F0E0F8274B4FF0190C07A81A6C76
:1023C00042F080521A641B6C03F080530093009B10
:1023D000214B1A6842F440421A601B6803F44043E0
:1023E0000193019B4FF48033CDE907534FF48003F1
:1023F000CDE90D434FF4D873CDE91144CDE90FC3B6
:1024000001F08EFC00B1FEE701F0FAFB00B1FEE73F
:102410000F2304904FF4A0500721CDE902344FF46C
:102420008053CDE9050302A801F05CFE00B1FEE790
:1024300048231B9024901393642318930523CDE91C
:102440001D5013A8CDE9194300F030FF00B1FEE79D
:1024500035B030BD003802400070004080B598B003
:102460001022002101240BA81C2619F084F8032552
:1024700002F0FCFC4FF0005CAF4B0BA8ADF82C4019
:1024800040F20117CDE90CC3AC4B0E9302F010FDE6
:102490008DF82D404FF0404300240BA80C938DF88D
:1024A00034608DF83740ADF83A4002F001FD022368
:1024B0000BA88DF837508DF82D301623ADF83A70F3
:1024C0008DF8343002F0F4FC4FF010430BA88DF877
:1024D000346004260C938DF82D508DF83740ADF8FC
:1024E0003A4002F0E5FC17230BA88DF82D608DF81B
:1024F00034308DF83750ADF83A7002F0D9FC05232E
:102500000BA88DF838408DF82D3013238DF834301A
:1025100002F0CEFC304602F0B9FCBFF34F8FBFF3A0
:102520006F8F874BC3F85042BFF34F8FBFF36F8F4E
:102530005A6942F400325A61BFF34F8FBFF36F8F75
:10254000C3F88440BFF34F8FD3F8802043F6E07682
:10255000C2F3C904C2F34E32A507520102EA060CC7
:102560002846214640EA0C07013900F14040C3F8F3
:1025700060724F1CF6D1203A12F1200FEED1BFF35A
:102580004F8F5A6942F480325A61BFF34F8FBFF3C5
:102590006F8F00F029FC0024FFF7FAFE14220021BF
:1025A0000BA818F0E8FF674B082167481A6B012554
:1025B00042F010021A631A6B02F010020092009AA5
:1025C0001A6B42F002021A631A6B02F002020192C5
:1025D000019A1A6B42F040021A631A6B02F0400231
:1025E0000292029A1A6B42F400721A631A6B02F496
:1025F00000720392039A1A6B42F008021A631A6B74
:1026000002F008020492049A1A6B42F480621A6380
:102610001A6B02F480620592059A1A6B42F020024E
:102620001A631A6B02F020020692069A1A6B42F4A1
:1026300080721A631A6B02F480720792079A1A6BFF
:1026400042F001021A631A6B02F001020892089A22
:102650001A6B42F080021A631A6B02F08002099230
:10266000099A1A6B42F004021A6300221B6B03F0F2
:1026700004030A930A9B02F05FFE00224FF480518C
:10268000324802F059FE08230BA92F48CDE90B353B
:10269000CDE90D4402F0D4FC4FF480532B480BA934
:1026A000CDE90B35CDE90D4402F0CAFC2848294B91
:1026B000848003600562C0E9054401F09BF800B125
:1026C000FEE7254C254BC4E90200C4E90030C4E90B
:1026D0000A00C4E90C00204602F03CFE00B1FEE70F
:1026E0002946204602F0F6FE00B1FEE71C4B04210D
:1026F0001C4A40249860C3E900201022C3E9031259
:1027000080211192C3E90541C3E90700C3E909002B
:102710000BA91846CDE90B22CDE90D22CDE90F22F8
:1027200001F0A6FA00B1FEE705F084FD05F034FDE6
:102730000546C8B1FEE700BF120000030100010119
:1027400000ED00E000380240002802400020024076
:1027500044230120003002409C24012000B00240AC
:1027600008260120400100A0342201460BA8454C58
:1027700018F001FF444B2826352740F2152C40F273
:10278000352E25612046A58684F83650C4E90035EB
:102790000923C4E905630B23C4E9077340F21B1343
:1027A000C4E909C340F21D13C4E90255C4E90BE3AF
:1027B00001F000F9024600B1FEE74FF4F0714FF46A
:1027C00088730B904FF480651693ADF85C208DF8FC
:1027D0005E20CDE90C100220CDE90E30FF20CDE9BE
:1027E00010020520CDE91421CDE912500BA9204695
:1027F00001F0BDF900B1FEE7244B4FF4E13224496A
:1028000018615862C3E900120C22C3E90200C3E94F
:102810000520C3E90700184600F018FD00B1FEE7E7
:102820001C4804231C4AC0E900230023C0E90233EA
:10283000C0E90433037643768376C3760377437720
:1028400002F055F8044600B1FEE703F040F804F04A
:102850006DFD124A0121102004F012FF104B114AA5
:1028600021461860104804F09BFD104B104A214689
:102870001860104804F094FD0F4B186004F070FDD0
:10288000FEE700BF6C2301200068014018240120EE
:1028900000100140E025012000640040D0D40190E8
:1028A00068230120E8D40190852300904023012073
:1028B000ACD40190D3580090142401200268034B3B
:1028C0009A4201D100F0A6BA704700BF0010004044
:1028D00010B5014688B00022362002F073FA362087
:1028E00002F0A2FA144B01A903A81A6C134C42F08F
:1028F00010021A641B6C03F010030293029B01F098
:10290000B3FC01F091FC0E4B4000236040F2E73332
:10291000E3600C4BB0FBF3F001380023606020460D
:102920002361A36002F080FF20B9204602F01EFE62
:1029300008B010BD0120FBE7003802403C26012012
:102940000010004040420F000D4B82B00F216FF08D
:1029500001001A6C42F080521A641A6C02F0805224
:102960000092009A5A6C42F480425A6400225B6CD6
:1029700003F480430193019B02B002F023BA00BF2D
:102980000038024010B588B004461422002103A884
:1029900018F0F1FD2268234B9A4240D103F5EA3347
:1029A000032121481A6C42F000721A641A6C02F07A
:1029B00000720192019A1A6B42F002021A634FF4FC
:1029C00040721B6B03F002030293029B0223CDE9CA
:1029D00003230923CDE9061303A902F031FB0022EA
:1029E0000521132002F0EEF9132002F01DFA002257
:1029F0000521142002F0E6F9142002F015FA002255
:102A00000521152002F0DEF9152002F00DFA16203E
:102A10000022052102F0D6F9162002F005FA08B0CE
:102A200010BD00BF0064004000040240026882B094
:102A3000084B9A420BD1D3F8302803F5006342F4D7
:102A400080521A631B6B03F480530193019B02B005
:102A5000704700BF0030024007B50E4B02689A4233
:102A600015D1A3F5F04305215A201A6B42F4000258
:102A70001A6300221B6B03F400030193019B02F015
:102A8000A1F95A2003B05DF804EB02F0CDB903B010
:102A90005DF804FB00B0024070B58CB0044614220F
:102AA000002107A818F067FD22683E4B9A4277D1B3
:102AB00003F5504302240E2607A95A6C00253A4814
:102AC00042F080625A645A6C02F080620192019A6C
:102AD0001A6B42F010021A631A6B02F01002029293
:102AE000029A1A6B42F400721A631A6B02F40072B3
:102AF0000392039A1A6B42F480621A631A6B02F40F
:102B000080620492049A1A6B42F040021A631A6BB4
:102B100002F040020592059A1A6B42F480721A6321
:102B20001B6B03F480730693069B1023CDE90734D7
:102B30000A940B9602F084FA4EF6FF7307A91B481D
:102B40000B96CDE90734CDE9095402F079FAF72361
:102B500007A917480B96CDE90734CDE9095402F0CF
:102B60006FFA4FF4805307A91248CDE907340923BF
:102B7000CDE909540B9302F063FA4FF4464307A9D9
:102B80000D480B96CDE90734CDE9095402F058FA07
:102B900058202A46052102F015F9582002F044F980
:102BA0000CB070BD006801400010024000240240DB
:102BB00000280240001802400020024070B588B092
:102BC00004461422002103A818F0D5FC22681D4BEE
:102BD0009A4234D103F594330226032507245A6C14
:102BE00003A9194842F010025A645A6C02F010020C
:102BF0000092009A1A6B42F002021A631A6B02F0FA
:102C000002020192019A1A6B42F001021A631B6BD5
:102C100003F001030293029B8023CDE90654CDE922
:102C2000033602F00DFA4FF4007303A90748079426
:102C3000CDE903360023CDE9053502F001FA08B0ED
:102C400070BD00BF001001400004024000000240BF
:102C5000F0B587B01422002101A818F08CFC2A4B93
:102C60001E68002E4ED10122022703250C241A6073
:102C700001A9264B26489A6B42F001029A639B6B8E
:102C800003F001030093009B4FF68373CDE90454D6
:102C9000CDE9013702F0D4F948F2331301A91D48F8
:102CA0000594CDE90137CDE9036502F0C9F94CF28D
:102CB000037301A918480594CDE90137CDE90365EF
:102CC00002F0BEF94FF63F0301A914480594CDE97F
:102CD0000137CDE9036502F0B3F9242301A91048B7
:102CE0000594CDE90137CDE9036502F0A9F9042384
:102CF0000C480DEB03010594CDE90137CDE90365DF
:102D000002F09EF907B0F0BDA41300200038024085
:102D10000010024000180240000C02400014024063
:102D2000001C02400008024008B5144B1A6822BB80
:102D300001224FF6837112481A60124A936B23F0F6
:102D40000103936302F05EFA48F233110E4802F079
:102D500059FA4CF203710D4802F054FA4FF63F0154
:102D60000B4802F04FFA24210A4802F04BFA0421E2
:102D70000948BDE8084002F045BA08BDA01300208C
:102D8000001002400038024000180240000C0240CF
:102D900000140240001C02400008024070477047C7
:102DA000FEE7FEE7FEE7FEE770470000014801F09E
:102DB0002CBE00BFE0250120FFF7F8BFFFF7F6BFEC
:102DC000FFF7F4BF014802F015BC00BF3C2601200C
:102DD000014800F06BBE00BF6C230120014802F0E7
:102DE000E9BA00BF9C24012008B5094B03201A68EA
:102DF00042F400721A601A6842F480721A6001F09C
:102E0000CFFF0020FFF764FDFFF79EFD002008BD07
:102E1000003C0240034A044B11681B780B441360CA
:102E2000704700BF8826012024000020014B18684D
:102E3000704700BF8826012038B50446FFF7F6FF2B
:102E40000546631C1EBF044B1B78E418FFF7EEFF1A
:102E5000401BA042FAD338BD2400002010B5044620
:102E600001682269A3680868134362691343E26931
:102E70001343874A024013430B602268E16853689A
:102E800023F440530B4353602168A3698A68206A86
:102E900022F43062034313437E4A8B6023689342DB
:102EA00015D17D4B7D4AD3F8903003F00303D35CFA
:102EB000E269B2F5004F40F0B680082B00F2A58021
:102EC000DFE803F0878F95A392A3A3A3A500744A1C
:102ED000934206D1704B734AD3F8903003F00C0341
:102EE000E5E7714A934210D16B4BD3F8903003F071
:102EF0003003102B6BD002D8002BD9D033E0202B1D
:102F000063D0302B2FD10823D2E7684A93420BD1EC
:102F1000614BD3F8903003F0C003402B57D0EBD96E
:102F2000802B52D0C02BEDE7614A93420ED15A4B11
:102F3000D3F8903003F44073B3F5807F47D0DBD9EA
:102F4000B3F5007F41D0B3F5407FDBE7594A9342A8
:102F500013D1514BD3F8903003F44063B3F5806F35
:102F600035D002D83BB11023A2E7B3F5006F2CD0C7
:102F7000B3F5406FC6E701239AE74F4A934212D157
:102F8000454BD3F8903003F44053B3F5805F1ED027
:102F900003D8002BE7D100238AE7B3F5005F14D0F4
:102FA000B3F5405FAEE7454A9342DCD13A4BD3F8E4
:102FB000903003F44043B3F5804F08D09CD9B3F56B
:102FC000004F02D0B3F5404F9CE7022370E7042383
:102FD0006EE701F029F958B900200023C4E919333C
:102FE00010BD01F031F9F6E701F04EF8F3E734488F
:102FF0006268530803EB4000B0FBF2F083B24FF677
:10300000EF72A3F11001914204D90120E5E74FF4DA
:103010000040EDE720F00F00C3F34203226880B2C6
:103020001843D060D8E7082BEFD801A252F823F05C
:1030300077300090813000908D3000900B30009000
:10304000873000900B3000900B3000900B300090D8
:10305000553000904FF40040636800EB5300B0FB24
:10306000F3F080B24FF6EF73A0F110029A42CCD881
:103070002368D860B0E701F0D7F80028ECD1ABE7BF
:1030800001F0E2F8F9E700F0FFFFF6E70C48E3E7AC
:10309000F369FFEF00100140003802402ED5019087
:1030A0000044004032D5019000480040004C0040F0
:1030B000005000400014014000780040007C0040B7
:1030C0000024F400436ADA0706D50268816A53686F
:1030D00023F400330B435360436A9B0706D5026811
:1030E000C16A536823F480330B435360436A590722
:1030F00006D50268016B536823F480230B435360A9
:10310000436A1A0706D50268416B536823F40043EB
:103110000B435360436ADB0606D50268816B9368F4
:1031200023F480530B439360436A990606D50268E3
:10313000C16B936823F400530B439360436A5A06B0
:1031400011D50268016C536823F480130B4353605C
:10315000036CB3F5801F06D10268416C536823F4F9
:10316000C0030B435360436A1B0606D50268816C9B
:10317000536823F400230B43536070472DE9F0415B
:10318000069D04460F46164698462168CA6937EAE6
:1031900002030CBF01220022B24201D0002019E03C
:1031A000681CF3D0FFF742FEA0EB0800A84220689D
:1031B000036800D885B923F4D0730360226893684C
:1031C00023F0010393602023A367E3670023032018
:1031D00084F87430BDE8F0815A07D6D5C3691B0561
:1031E000D3D54FF4006303622268136823F4D073CD
:1031F00013602268936823F0010393602023A36780
:10320000E367C4F88030E1E737B500250446C0F82D
:103210008050FFF70BFE226803461268120708D49D
:1032200020230020A36784F87400E367206603B0BE
:1032300030BD6FF07E424FF40011204600922A46C6
:10324000FFF79CFF0028EBD00320F0E710B5044601
:1032500050B3836F1BB980F87430FFF7AFFC22685E
:1032600024232046A367136823F001031360FFF7AC
:10327000F5FD012818D0636A13B12046FFF722FF3D
:1032800022682046536823F4904353602268936871
:1032900023F02A0393602268136843F0010313604C
:1032A000BDE81040FFF7B0BF012010BD2DE9F74386
:1032B0000668044616F001060CD0B34B9A6822F457
:1032C00000029A609A68416B0A439A60466BB6FAAC
:1032D00086F67609256815F4002511D0AA4AE16B17
:1032E000D2F88C3023F440130B43C2F88C30E56BDA
:1032F000B5F5801F13BFB5FA85F5002501266D09C8
:103300002368DF0210D5A04A216CD2F88C3023F458
:1033100040030B43C2F88C30236CB3F5800F00F0F0
:103320009B81002B08BF0125236813F0807F18BF05
:103330000126980632D5944B944F1A6C42F0805275
:103340001A641B6C03F080530193019B3B6843F4A8
:1033500080733B60FFF76AFD80463B68D90540F10A
:103360007D81894F3B6F13F4407340F08281226B63
:1033700002F44073B3F5407F834B40F0A08199681D
:1033800022F0704221F4F81122F440720A439A604C
:10339000226B196FC2F30B020A431A672368D8061F
:1033A0000CD5794BD3F88C2022F08072C3F88C2096
:1033B000D3F88C20A16B0A43C3F88C2023685904EE
:1033C00008D5714A616ED2F8903023F440330B4334
:1033D000C2F8903023681A0408D56B4AA16ED2F85F
:1033E000903023F440230B43C2F890302368DB0372
:1033F00008D5654AE16ED2F8903023F440130B43B0
:10340000C2F8903023689F0308D55F4A216FD2F835
:10341000903023F440030B43C2F8903023685806E1
:1034200008D5594A616CD2F8903023F003030B435E
:10343000C2F890302368190608D5534AA16CD2F817
:10344000903023F00C030B43C2F890302368DA0568
:1034500008D54D4AE16CD2F8903023F030030B438D
:10346000C2F8903023689B0508D5474A216DD2F8F1
:10347000903023F0C0030B43C2F8903023685F05FF
:1034800008D5414A616DD2F8903023F440730B4364
:10349000C2F890302368180508D53B4AA16DD2F8D0
:1034A000903023F440630B43C2F890302368D90472
:1034B00008D5354AE16DD2F8903023F440530B43E0
:1034C000C2F8903023689A0408D52F4A216ED2F8AA
:1034D000903023F440430B43C2F8903023685B02E2
:1034E00008D5294AA16FD2F8903023F080630B43AE
:1034F000C2F8903023689F020DD5234AE16FD2F8BD
:10350000903023F000630B43C2F89030E36FB3F1C7
:10351000006F08BF0125236813F0080F18BF0125AD
:10352000580308D5184A616FD2F8903023F04073E1
:103530000B43C2F890302368190209D5124AD4F817
:103540008010D2F8903023F080530B43C2F89030B3
:10355000012E00F0B88023689A0100F1B480012D9B
:1035600078D1094D2B6823F080532B60FFF75EFC68
:1035700006462B689F0000F12D8123681D0307D5A7
:10358000E26B4AB104E000BF003802400070004026
:10359000D8021DD5236CDBB99549D1F88830D1F814
:1035A000882003F4403302F0E0421343626943EAA7
:1035B0008213A26943EA0263C1F88830D1F88C30E3
:1035C000A26A23F4F853013A43EA0223C1F88C308B
:1035D0002368990215D5E36FB3F1006F11D1844AC6
:1035E000D2F88830D2F8881003F0706301F0E0411F
:1035F0000B43616943EA8113216A43EA0143C2F83C
:10360000883023681A0719D57949D1F88820D1F86C
:10361000883002F0706203F440331343626943EA76
:103620008213E26943EA0273C1F88830D1F88C3022
:10363000E26A23F440331343C1F88C306C4C2368A6
:1036400043F080532360FFF7F1FB054623689B009E
:1036500040F1C780002009E0012665E6FFF7E6FBA0
:10366000A0EB080064287FF678AE032003B0BDE825
:10367000F083226B02F4407293423FF478AE3B6FCA
:103680003A6F23F4407342F480323A673A6F22F47F
:1036900080323A673B673B6FDA077FF568AEFFF72A
:1036A000C5FB41F2883980463B6F9B073FF55FAE13
:1036B000FFF7BCFBA0EB08004845F5D9D5E79A68B1
:1036C00022F4F81263E64A4E336823F080633360D5
:1036D000FFF7ACFB074633681B0175D42368DF078F
:1036E00012D5636B83B9D6F88430D6F8842003F4FE
:1036F000403302F070621343626843EA8213A268A7
:1037000043EA0273C6F8843023681E0303D5E26BD4
:10371000B2F5801F05D0D8021ED5236CB3F5800FFB
:103720001AD1334AD2F88430D2F8841003F44033EB
:1037300001F0E0410B43616843EA8113E16843EA29
:103740000163C2F88430D2F88C10636A21F01F0143
:10375000013B0B43C2F88C302368D90111D5244AB0
:10376000D2F88430D2F8841003F0706301F0E041A5
:103770000B43616843EA8113216943EA0143C2F8BC
:10378000843023689A010DD5236962681B0443EADB
:103790008213E26843EA0263A26843EA0273144AAE
:1037A000C2F88430124E336843F080633360FFF711
:1037B0003DFB074633681B013FF5D1AEFFF736FBF3
:1037C000C01B6428F6D950E7FFF730FBC01B642804
:1037D00081D94AE7FFF72AFB801B64287FF6C9AE30
:1037E00043E7FFF723FB401B64287FF62FAF3CE73E
:1037F0000038024010B5044608B9012010BD437FCF
:1038000003F0FF0213B90277FFF710F90223637781
:103810002379FBB92368144A5A612268936823F01C
:103820001803936062792368E2B94FF0FF321A619E
:10383000002022686169936823F060030B43936062
:103840002268A169936823F080030B4393600123EE
:103850006377D3E7D4E90212204602F015F8002876
:10386000E0D0CAE72269E2E7B71DC104F0B5D20192
:1038700005684C68EB688432C3F30B4315441C4461
:103880006B6803F470436B6005680E68EB68154461
:103890000136C3F30B43334443EA04436B600568CA
:1038A000CC68EB68C3F30A031C44AB189D6805F4AD
:1038B00070459D6005688B68EE6815440133C6F35A
:1038C0000A06334443EA0443AB600025036813440B
:1038D0001C6924F007041C6103680C6913441C6113
:1038E000046891F83260144491F83170D1F818C02E
:1038F000A369A561046891F83030144443EA0C636D
:1039000043EA072343EA0643A361036813445C695F
:1039100024F0FF045C6103684C6913445C61046833
:103920001444E36923F4E06323F00703E3610368CD
:10393000D1E9074613443443DC61036813449C6AAD
:103940009D6203684C6A13449C620B6963B3012B4C
:103950002CD09C1E022C2BD9072B14BF012402242F
:1039600003681344DD6A05F0E025DD6203689D18F5
:10397000D1E900639B1B8E6A63437443033343EABC
:103980000443EB6204681444236B23F4FF6323F0C5
:10399000070323630368C96A1344196301688B58DA
:1039A00043F001038B50F0BD0424D9E70324D7E78B
:1039B0000224D5E738B50446002870D090F8A1302D
:1039C00003F0FF021BB980F8A020FFF765F822681A
:1039D000022384F8A130936923F070439361226835
:1039E000D4E9013091690343E0680343206903434C
:1039F0000B43936121682B4A8B6813408B602168CD
:103A000060698B6843EA0043A06903438B602168C7
:103A1000CB681340CB602168E069CB6843EA004380
:103A2000206A0343CB6021680B6913400B61216856
