:020000040800F2
:10000000B0080020F51E0008CD1E0008CF1E000815
:10001000D11E0008D31E0008D51E000800000000F5
:10002000000000000000000000000000D71E0008D3
:10003000D91E000800000000DB1E0008DD1E0008BD
:100040001D1F0008211F0008251F0008291F000888
:100050002D1F0008311F0008351F0008391F000838
:100060003D1F0008411F0008451F0008491F0008E8
:100070004D1F0008511F0008551F0008591F000898
:100080005D1F0008611F0008651F0008691F000848
:100090006D1F0008711F0008751F0008791F0008F8
:1000A0007D1F0008811F0008851F0008891F0008A8
:1000B0008D1F0008911F0008951F0008991F000858
:1000C0009D1F0008A11F0008A51F0008A91F000808
:1000D000AD1F0008B11F0008B51F0008B91F0008B8
:1000E000BD1F0008C11F0008C51F0008C91F000868
:1000F000CD1F0008D11F0008D51F0008D91F000818
:10010000DD1F0008E11F0008E51F0008E91F0008C7
:10011000ED1F0008F11F0008F51F0008F91F000877
:10012000FD1F000801200008052000080920000824
:100130000D200008112000081520000819200008D3
:100140001D20000821200008252000082920000883
:100150002D20000831200008352000083920000833
:100160003D200008412000084520000849200008E3
:100170004D20000851200008552000085920000893
:100180005D20000861200008652000086920000843
:100190006D200008712000087520000879200008F3
:1001A0007D200008812000088520000889200008A3
:1001B0008D20000891200008952000089920000853
:1001C0009D200008A12000087CB50400012600F055
:1001D000FBFB0500002C01D101205AE0206A4028D9
:1001E00094F84000012801D1022052E0012084F857
:1001F000400094F8410000280AD1002084F8400013
:10020000200000F0E0FB41F28831200000F0B4FA59
:100210002068006830F4F850A168491E50EA0120B7
:1002200021680860A06C00902B0000222021200093
:1002300000F0A4FA0100C9B2002926D121680A6899
:1002400014490A40616852EA0162E1680A43E169BF
:100250000A43216A0A4321680A6021684A680E49F4
:100260000A40216952EA014261690A43A1690A43CD
:1002700021684A602168096851F001012268116013
:1002800000216164012184F84110002184F84010AC
:10029000C0B276BD2FFFFF00FEF8E0FF10B50400EE
:1002A000002C01D101201AE094F84000012801D16E
:1002B000022014E0012084F8400020680068400813
:1002C000400021680860200000F084FB002060648A
:1002D000002084F84100002084F84000002010BD78
:1002E0002DE9F84304000D0016005FF0010800F04E
:1002F0006BFB0700A8690028E8690028286A002825
:1003000094F84000012801D102203DE0012084F84A
:10031000400094F8410001282FD1002060640220A1
:1003200084F8410000963B0000222021200000F0CC
:1003300025FA81464846C0B2002820D10022290073
:10034000200000F044FA686A002812D100963B00B1
:1003500001220221200000F011FA81464846C0B275
:1003600000280CD102202168C860012084F84100D7
:1003700005E0012084F8410001E05FF0020900205F
:1003800084F840004846C0B2BDE8F2832DE9F84346
:1003900005000C001600002700F016FB80462868B8
:1003A00010F1200995F84000012801D102205EE0FB
:1003B000012085F8400095F84100012850D1002027
:1003C0006864002C45D0122085F841002868006937
:1003D000401CE86228680069401CA8626C622868BA
:1003E000406930F0406029684861E86A002815D00B
:1003F0000096434601220421280000F0BFF90700BF
:100400003800C0B2002809D1686A411C69620078CE
:1004100089F80000E86A401EE862E6E73800C0B2EA
:10042000002812D10096434601220221280000F044
:10043000A5F907003800C0B2002806D102202968BB
:10044000C860280000F04CF90700012085F8410041
:1004500008E0686C50F0080068640120070001E0C3
:1004600002200700002085F840003800C0B2BDE837
:10047000F2832DE9FC4705000C001600002700F070
:10048000A3FA80462868D0F81890286810F1200A4E
:1004900095F84000012801D1022063E0012085F891
:1004A000400095F84100012855D100206864002CD7
:1004B0004AD0222085F8410028680069401CA863C2
:1004C00028680069401C68632C632868406930F024
:1004D000406050F08060296848612868C0F8189032
:1004E000A86B002815D0009643460122062128005B
:1004F00000F044F907003800C0B2002809D1286B89
:10050000411C29639AF800100170A86B401EA86373
:10051000E6E73800C0B2002812D100964346012217
:100520000221280000F02AF907003800C0B2002894
:1005300006D102202968C860280000F0D1F8070021
:10054000012085F8410008E0686C50F008006864FC
:100550000120070001E002200700002085F840008C
:100560003800C0B2BDE8F6872DE9FC4704000D0055
:1005700016001F005FF0010800F026FA8146A86906
:100580000028E8690028286A002894F8400001281B
:1005900001D102204CE0012084F8400094F8410091
:1005A00001283ED100206064422084F84100009779
:1005B0004B4600222021200000F0E0F88246504601
:1005C000C0B200282FD13068216888627068216825
:1005D0004862B0682168C8622068016831F440014F
:1005E0003069014351F4800120680160F068A8621D
:1005F0005FF000622900200000F0E9F800974B4608
:1006000001220821200000F0B9F882465046C0B20D
:10061000002808D108202168C860012084F8410022
:1006200001E05FF0020A002084F840005046C0B2AA
:10063000BDE8F6872DE9F84304000D0016005FF0D1
:10064000010800F0C1F90700A8690028E86900283E
:10065000286A002894F84000012801D102203DE0DA
:10066000012084F8400094F8410001282FD1002097
:100670006064822084F84100A06C00903B0000225E
:100680002021200000F07AF881464846C0B20028B8
:100690001FD12068016831F00801706801432068AB
:1006A0000160706808280BD1306821680863102049
:1006B0002168C8602068006850F4801021680860D4
:1006C0005FF040622900200000F081F801E05FF057
:1006D0000209002084F840004846C0B2BDE8F28319
:1006E0007CB50400002500F06FF9060094F8410085
:1006F00080073ED5002084F840002068006840074D
:1007000011D52068006830F0040021680860E06BB3
:1007100000F07EF905002800C0B2002803D0606C0C
:1007200050F0040060642068006850F00200216806
:100730000860A06C0090330001220221200000F02C
:100740001DF805002800C0B200280BD10220216846
:10075000C860A06C0090330000222021200000F02F
:100760000DF805002800C0B2002802D1012084F84D
:1007700041002800C0B276BD816470472DE9F04188
:1007800005000E0090461F00069C286880683042D5
:1007900001D0012000E000204146C0B2C9B2884229
:1007A00012D014F1010FF0D0002C04D000F00CF99D
:1007B000C01B8442E9D2042085F84100686C50F0E7
:1007C00001006864012000E00020BDE8F08110B461
:1007D0004B6A002B06D0B2F1406F03D08B6A5B1ED0
:1007E000046823618B69002B79D00B6A002B3ED003
:1007F0008B680468E361CB69002B20D0CC6A0B6B5B
:100800001C434B6B1C434B6A1C434B6954EA8344A7
:100810000B691C430B6A1C43CB681C43CB691C430C
:100820008B691C430B681C43144303685C61B2F181
:10083000406F00F0C6804B680468A361C1E0CC6AD9
:100840000B6B1C434B6B1C434B6A1C434B6954EAB8
:1008500083440B691C430B6A1C43CB691C438B69A3
:100860001C430B681C43144303685C61A9E0CB691B
:10087000002B1ED0CC6A0B6B1C434B6B1C434B6A8A
:100880001C434B6954EA83440B6A1C43CB681C43EA
:10089000CB691C438B691C430B681C4314430368DE
:1008A0005C61B2F1406F00F08C804B680468A3611A
:1008B00087E0CC6A0B6B1C434B6B1C434B6A1C439D
:1008C0004B6954EA83440B6A1C43CB691C438B6914
:1008D0001C430B681C43144303685C6171E00B6AA2
:1008E000002B39D08B680468E361CB69002B1DD0E5
:1008F000CC6A0B6B1C434B6B1C434B6A1C434B6910
:1009000054EA83440B691C430B6A1C43CB681C43A9
:10091000CB691C438B691C43144303685C61B2F1CF
:10092000406F4ED04B680468A3614AE0CC6A0B6B01
:100930001C434B6B1C434B6A1C434B6954EA834476
:100940000B691C430B6A1C43CB691C438B691C431A
:10095000144303685C6134E0CB69002B1BD0CC6A84
:100960000B6B1C434B6B1C434B6A1C434B6954EA97
:1009700083440B6A1C43CB681C43CB691C438B69C3
:100980001C43144303685C61B2F1406F19D04B689B
:100990000468A36115E04B6A002B12D0CC6A0B6B84
:1009A0001C434B6B1C434B6A1C434B6954EA834406
:1009B0000B6A1C43CB691C438B691C4314430368BB
:1009C0005C6110BC7047704701480068704700BF09
:1009D000AC000020704730B4002513E050F8042B21
:1009E000D30744BFA9F101039A18091F042942F84B
:1009F000045BFAD213468C0744BF15809B1CC907C1
:100A000048BF1D7050F8041B0029E7D130BC704767
:100A100070B50400A56DFFF7D7FF060094F8350008
:100A2000022806D080206065002084F83400012070
:100A30003BE02068006830F01600216808602068FC
:100A4000406930F0800021684861206C002802D1A4
:100A5000A06C002805D02068006830F008002168EC
:100A6000086020680068400840002168086020682D
:100A70000068C0070ED5FFF7A7FF801B0628F6D336
:100A800020206065002084F83400032084F83500BD
:100A900003200AE03F21E06D8140A960002084F836
:100AA0003400012084F83500002070BD2DE9FC41A0
:100AB00004000026002C01D10120D8E12078C007D5
:100AC0006DD5DFF89405016811F00C01042909D0F7
:100AD000006810F00C0008280ED1DFF880050068CF
:100AE000400209D5DFF86C050068800357D56068BF
:100AF000002854D10120BAE16068B0F5803F06D1EA
:100B0000DFF85005016851F48031016026E060682B
:100B100000280AD1DFF83C05016831F4803101601A
:100B2000016831F48021016018E06068B0F5A02F01
:100B30000AD1DFF82005016851F4802101600168C5
:100B400051F48031016009E0DFF80805016831F4F3
:100B500080310160016831F4802101606068002803
:100B60000ED0FFF731FF0500DFF8E80400688003CE
:100B700015D4FFF729FF401B6528F5D3032076E144
:100B8000FFF722FF0500DFF8CC040068800306D5DC
:100B9000FFF71AFF401B6528F5D3032067E1207893
:100BA000800752D5DFF8B004016811F00C0F09D0AE
:100BB000006810F00C00082816D1DFF8A0040068C7
:100BC000400211D4DFF88C040168890704D5E1687C
:100BD000012901D001204AE1016831F0F8012269C0
:100BE00051EAC201016030E0E06800281AD0DFF865
:100BF0006474386850F001003860FFF7E5FE0500C6
:100C00003868800706D4FFF7DFFE401B0328F7D3C0
:100C100003202CE1386830F0F800216950EAC10067
:100C2000386012E0DFF82C74386840084000386003
:100C3000FFF7CAFE05003868800706D5FFF7C4FE37
:100C4000401B0328F7D3032011E12078000728D5A3
:100C50006069002812D0DFF80874386850F001008D
:100C60003860FFF7B1FE05003868800719D4FFF738
:100C7000ABFE401B0328F7D30320F8E0DFF8E07356
:100C80003868400840003860FFF79EFE050038686D
:100C9000800706D5FFF798FE401B0328F7D30320F3
:100CA000E5E02078400740F18780DFF8C0733868BE
:100CB000C0000AD4386850F080503860386810F0AE
:100CC00080500090009801200600DFF8A483D8F837
:100CD0000000C00513D4D8F8000050F48070C8F8A4
:100CE0000000FFF771FE0500D8F80000C00506D42B
:100CF000FFF76AFE401B6528F6D30320B7E0A06823
:100D0000012806D1DFF86C03016851F00101016090
:100D100025E0A06800280AD1DFF8580301684908D7
:100D200049000160016831F00401016017E0A0682A
:100D300005280AD1DFF83C03016851F00401016085
:100D4000016851F00101016009E0DFF82803016842
:100D5000490849000160016831F004010160A068A0
:100D6000002810D0FFF730FE0500DFF80803006808
:100D7000800719D4FFF728FE401B41F289318842D1
:100D8000F3D3032073E0FFF71FFE0500DFF8E40252
:100D90000068800708D5FFF717FE401B41F2893134
:100DA0008842F3D3032062E03000C0B2012803D1AF
:100DB000386830F080503860A069002856D0DFF8DD
:100DC0009802006810F00C0008284DD0A069022895
:100DD00037D1DFF88072386830F080703860FFF704
:100DE000F3FD80463868800107D5FFF7EDFDB0EBD5
:100DF00008000328F6D3032039E0E169206A0143A3
:100E0000606A51EA8011A06A4008401E51EA004120
:100E1000E06A51EA006151F00051DFF840020160E0
:100E2000386850F080703860FFF7CEFD05003868F4
:100E300080011BD4FFF7C8FD401B0328F7D3032014
:100E400015E0DFF81072386830F080703860FFF716
:100E5000BBFD05003868800108D5FFF7B5FD401BD4
:100E60000328F7D3032002E0012000E00020BDE8C2
:100E7000F6812DE9F04104000D000026002C01D17F
:100E800001209FE0DFF8F071386810F00F00A842F1
:100E90000BD238680009000128433860386810F028
:100EA0000F00A84201D001208CE02078800719D5DE
:100EB0002078400705D5DFF8A001016851F4E05122
:100EC00001602078000705D5DFF88C01016851F436
:100ED00060410160DFF880110A6832F0F002A0681A
:100EE00002430A602078C00737D56068012806D120
:100EF000DFF860010068800311D4012062E06068BF
:100F0000022806D1DFF84C010068800107D40120D7
:100F100058E050480068800701D4012052E0DFF813
:100F20003881D8F800108908890060680143C8F842
:100F30000010FFF749FD0600D8F8000010F00C0083
:100F40006168B0EB810F08D0FFF73EFD801B41F2D6
:100F500089318842F0D3032034E0386810F00F0064
:100F600085420BD238680009000128433860386890
:100F700010F00F00A84201D0012023E020784007A4
:100F800006D535490A6832F4E052E06802430A6047
:100F90002078000707D53048016831F460412269A4
:100FA00051EAC201016000F00FF834492A4A126880
:100FB000C2F30312895CC8402B4908600F2000F07F
:100FC00061F80020BDE8F0812DE9F0410024002502
:100FD000002600272048006810F00C00002804D0EC
:100FE000042804D0082804D031E01E4830E024480A
:100FF0002EE0DFF86880D8F8000010F03F00040011
:10100000D8F8000040020CD5D8F80000C0F38810D2
:101010001B49A1FB00012200002300F059F8050044
:101020000BE0D8F80000C0F388100E49A1FB0001C6
:101030002200002300F04CF80500D8F80000C0F3AF
:101040000140401C40000600B5FBF6F000E00548FA
:10105000BDE8F08100380240083802400438024000
:10106000743802400024F40004000020403802409C
:101070000070004070380240003C0240E41E00084E
:1010800040787D0110B504004FF47A700D4909785D
:10109000B0FBF1F00C490968B1FBF0F000F0B0F9D9
:1010A000002801D001200CE0102C09D200222100E0
:1010B0005FF0FF3000F08FF904480460002000E08A
:1010C000012010BD080000200400002000000020C6
:1010D000BBBBE1B1B2F5803F80F07E80022A1ED911
:1010E0008C46B1FBF2F102FB11C31B0443EA10432F
:1010F000B3FBF2FC02FB1C3380B240EA0343B3FBB8
:10110000F2F002FB103240EA0C4000237047022A42
:1011100005D98446B0FBF2F002FB10C270474AB119
:1011200005D100F0010249085FEA30007047002253
:101130000023704700F078B90B0002000021002066
:101140007047904271EB030CF6D3B3F5803F2FD27A
:10115000F0B5B3FA83F7B1FA81F4A7F10F0E3D1B96
:101160005340CEF1200602FA0EF2F3415340B5F19E
:101170000F0746D80F3C2C444140C4F12006A04044
:10118000F1414140B1FBF3F603FB1611A2FB06450A
:10119000001BA94102D2761E8018594180EA010243
:1011A00021FA0EF362FA0EF200215A403046F0BDE9
:1011B00030B4B1FBF3FC03FB1C11A2FB0C45001B7C
:1011C000A94103D2ACF1010C8018594130BC024650
:1011D0000B46604600217047B2F1807F65D3F0B5C1
:1011E000B2FA82F7B1FA81F4C7F10F063D1B22FA79
:1011F00006F307F1110EF24120355A40B5F10F0701
:10120000B8D94140C4F12006A040F1414140B1FBB2
:10121000F3FC03FB1C11A2FB0C45001BA94103D2EC
:10122000BCF1010C801859410F2F12D30F3FC90395
:1012300041EA5041B1FBF3F603FB1611A2FB064550
:10124000D4EBC030A94102D2761E8018594146EA3B
:10125000CC3C07B34140C7F12006B840F1414140C2
:10126000B1FBF3F603FB1611A2FB0645001BA941D7
:1012700002D2761E8018594180EA010221FA0EF34B
:10128000C7F1200462FA0EF20CFA07F05A402CFA69
:1012900004F13043F0BD80EA010221FA0EF300218F
:1012A00062FA0EF260465A40F0BD8C46B1FBF2F194
:1012B00002FB11C31B0243EA1063B3FBF2FC02FB07
:1012C0001C331B024CEA002043EA1063B3FBF2FC20
:1012D00002FB1C331B024CEA002043EA1063B3FB01
:1012E000F2FC02FB1C331B024CEA002043EA1063B1
:1012F000B3FBF2FC02FB1C324CEA002000237047D7
:1013000010B410F00703DFF8044122684FF6FF0124
:101310000A40DFF8FC1051EA03210A43226010BCA6
:101320007047DFF8E8000068C0F30220704710B48F
:10133000020052B2002A05D40A01364B040064B2FE
:101340001A5508E00A01344B040064B214F00F048B
:10135000234403F8042C10BC704770B4030013F04E
:101360000704D4F10700052801D3042001E0D4F1DB
:101370000700251D072D01D2002500E0E51E0126EE
:1013800016FA00F0401E0140A94016FA05F56D1E40
:101390002A401143080070BC704710B50400601E5D
:1013A000B0F1807F01D301200EE0601E1B49086070
:1013B0000F215FF0FF30FFF7BAFF002018490860E7
:1013C000072018490860002010BD10B50400200057
:1013D000FFF796FF10BD2DE9F04104000D00160047
:1013E0000027FFF79EFF8046320029004046FFF7A6
:1013F000B4FF0100200040B2FFF799FFBDE8F08183
:1014000010B504002000FFF7C8FF10BD0CED00E090
:101410000000FA0500E400E018ED00E014E000E050
:1014200018E000E010E000E07047000010B5CC4C80
:10143000CC4820602000FEF731FF002801D00120B9
:1014400055E000F095F9C8480021C1610021016212
:1014500000214162002141610021C162002101633C
:10146000002141634FF40051C160C0480021016177
:101470000121C160102181605FF480014161012080
:1014800060600420A0601020E0608020B0FA80F04E
:10149000401E20614FF4A06060610020A061002028
:1014A000E061002020622000FEF78EFE002801D0BF
:1014B00001201CE0200000F01BF8002801D00120D2
:1014C00015E0200000F0ACF8002801D001200EE06B
:1014D000200000F04DF8002801D0012007E0200096
:1014E00000F028F8002801D0012000E0002010BD05
:1014F00070B504009C4D4FF48070A8616620286090
:101500000020686241F28836320029002000FEF790
:10151000E7FE002801D001200BE09920286032006E
:1015200029002000FEF7DCFE002801D0012000E0A9
:10153000002070BD1CB504008B494FF440708861D9
:10154000EB2008604FF44060C8615FF04070486273
:101550000A20486100200190002000906A46200087
:10156000FFF768F8002801D0012000E0002016BD38
:1015700030B58FB004004FF4807007908520019043
:1015800000200890002009905FF080700A900020F1
:10159000069001200B9000200C9000200D90002060
:1015A0000E9041F288352A0001A92000FEF798FE2E
:1015B000002801D0012031E02A0069462000FEF712
:1015C00058FF002801D0012028E0200000F09EF8FC
:1015D000002801D0012021E0812001909DF8001019
:1015E00011F00F010A225FF07060B0FA80F08240C3
:1015F00011438DF800102A0001A92000FEF770FEAB
:10160000002801D0012009E02A0069462000FEF7E9
:10161000BDFE002801D0012000E000200FB030BD49
:10162000F0B595B004004FF4807007900020099049
:101630000020069000200C9000200D9000200E90BD
:1016400010201190002013905FF48000149065200A
:101650000190002008905FF080750A9501200B90A2
:101660003F4E41F288373A0001A93000FEF738FEBC
:10167000002801D0012047E03A0069463000FEF71B
:10168000F8FE002801D001203EE006200190002055
:101690000A903A0001A93000FEF722FE002801D08E
:1016A000012031E002200F900220109001201290C2
:1016B000052001900A953B000FAA01A93000FEF712
:1016C00053FF002801D001201EE06120019001207D
:1016D0000B909DF8000010F03F0050F040008DF896
:1016E00000003A0001A93000FEF7FAFD002801D001
:1016F000012009E03A0069463000FEF747FE002865
:1017000001D0012000E0002015B0F0BD70B504004C
:10171000154D4FF44070A8610620286000206862D3
:1017200041F28836320029002000FEF7D9FD00285A
:1017300001D0012013E00D4A022010600220506009
:10174000052028605FF040706862330029002000A7
:10175000FEF70AFF002801D0012000E0002070BD44
:101760000C000020001000A0580000209000002075
:1017700010B586B03648016851F00201016000687A
:1017800010F00200059005983248016851F00201FE
:101790000160016831F0020101602F48016851F0D9
:1017A00002010160016811F00201059105990168CB
:1017B00051F008010160016811F0080105910599D7
:1017C000016851F010010160006810F010000590F0
:1017D0000598402000900A200490022001900120EA
:1017E0000290022003901D4C6946200000F03CF856
:1017F00004200090092004900020029069462000F7
:1018000000F032F84FF40060009009200490144C6E
:101810006946200000F028F84FF48050009009201D
:1018200004906946200000F01FF804200090092071
:10183000049069460B4800F017F84FF400500090F0
:10184000092004906946200000F00EF806B010BD93
:101850003838024018380240303802400004024054
:10186000000C0240001002402DE9F8410022002344
:10187000002400260025102D80F00B81012717FA87
:1018800005F213000A681A4014009C4240F0FF80E1
:101890004A68022A02D04A68122A1FD12A00D208B6
:1018A00000EB8202D2F820C05FF00F0E15F00702A5
:1018B000D2B292001EFA02FE3CEA0E0CD1F810E001
:1018C00015F00702D2B292001EFA02FE5EEA0C0C7C
:1018D00066462A00D20800EB82021662D0F800C0E9
:1018E0005FF0030E2A00D2B252001EFA02F23CEA66
:1018F000020C91F8048018F003082A00D2B25200BA
:1019000018FA02F858EA0C0CC0F800C04A68012A1C
:1019100008D04A68022A05D04A68112A02D04A68CB
:10192000122A1BD186682A00D2B252001EFA02F295
:101930009643D1F80C802A00D2B2520018FA02F86D
:1019400058EA060686604268AF40BA434F68C7F35C
:101950000017AF403A439446C0F804C0C6682A0056
:10196000D2B252001EFA02FE36EA0E068F682A0034
:10197000D2B2520097403E43C6604A68D20040F15E
:101980008680DFF81421176857F4804717601268C3
:1019900012F480420092009ADFF800C12A009208F7
:1019A0005CF822705FF00F0E15F00302D2B29200C5
:1019B0001EFA02FE37EA0E07DFF8E420904201D15A
:1019C000002631E0DFF8DC20904201D101262BE037
:1019D000DFF8D420904201D1022625E0DFF8CC20A8
:1019E000904201D103261FE0DFF8C420904201D1CC
:1019F000042619E02F4A904201D1052614E02E4A10
:101A0000904201D106260FE02C4A904201D10726D0
:101A10000AE02B4A904201D1082605E0294A90426B
:101A200001D1092600E00A26F6B215F00302D2B26F
:101A30009200964037432A0092084CF82270224EBA
:101A40003268A243D1F804C05FEACC3C00D52243FF
:101A500032601E4F3E68A643D1F804C05FEA8C3C5A
:101A600000D526433E601A4F3A68A243D1F804C01D
:101A70005FEACC2C00D522433A60164F3E68A6435D
:101A8000D1F804C05FEA8C2C00D526433E606D1C63
:101A9000F1E6BDE8F1810000443802400838014019
:101AA000000002400004024000080240000C024016
:101AB000001002400014024000180240001C0240C6
:101AC0000020024000240240003C0140043C014050
:101AD000083C01400C3C0140BFF34F8FBFF36F8FB8
:101AE000002049490860BFF34F8FBFF36F8F47480D
:101AF000016851F400310160BFF34F8FBFF36F8F66
:101B00007047BFF34F8FBFF36F8F4048016831F4C8
:101B10000031016000203C490860BFF34F8FBFF3E4
:101B20006F8F704710B4002039490860BFF34F8FA2
:101B300038480168C1F34E32C1F3C900030043F6CF
:101B4000E07010EA421050EA8370334C20601800B5
:101B5000431E0028F3D11000421E0028ECD1BFF331
:101B60004F8F2A48046854F480340460BFF34F8FC9
:101B7000BFF36F8F10BC704710B400202449086079
:101B8000BFF34F8F2148016831F480310160BFF30A
:101B90004F8F20480168C1F34E32C1F3C9000300E2
:101BA00043F6E07010EA421050EA83701B4C20604C
:101BB0001800431E0028F3D11000421E0028ECD16B
:101BC000BFF34F8FBFF36F8F10BC704780B500F02D
:101BD00072F800F07DF800F030F800F027F80028E7
:101BE00001D000F029F800F06CF800200C490860E2
:101BF0000C480D49096801605FF01041096881F3E4
:101C0000088800688047FEE750EF00E014ED00E030
:101C100084ED00E080ED00E060EF00E074EF00E0B4
:101C200010E000E0A80000200400009010B500249F
:101C3000FFF7FCFB204310BDFEE730B591B0002458
:101C4000012005905FF48030069002200B905FF435
:101C500080000C9019200D904FF4D8700E90022047
:101C60000F900820109005A8FEF720FF050028001F
:101C7000C0B2002800D0FEE700F03EF804002000CB
:101C8000C0B2002800D0FEE70F2000900220019093
:101C9000002002904FF4A05003904FF48050049025
:101CA00006216846FFF7E5F80100C9B2002900D017
:101CB000FEE711B030BD80B5FFF70EFFFFF732FF32
:101CC00001BD80B5FFF71DFFFFF756FF01BD000006
:101CD00080B50748016851F4807101600320FFF767
:101CE00074FB0F20FFF7CEF900F004F8002002BDCE
:101CF000003C0240704700007CB500241B4801688E
:101D000051F080510160006810F080500090009800
:101D1000154E306850F480303060FEF755FE0500F7
:101D2000104C2068C00308D4FEF74EFE401B40F262
:101D3000E9318842F4D3032013E0306850F40030D6
:101D40003060FEF741FE06002068800308D4FEF7ED
:101D50003BFE801B40F2E9318842F5D3032000E0CE
:101D6000002076BD04700040007000404038024002
:101D70000F48016851F4700101600E49086850F085
:101D80000100086000200C4A10600A680B480240FD
:101D90000A600B480B4A1060086830F48020086025
:101DA0000020094908605FF000600849086070473A
:101DB00088ED00E00038024008380240FFFFF6FEE0
:101DC00010300024043802400C38024008ED00E0D6
:101DD00030B450F8041B79B10268436802440830FB
:101DE000DC0744BFA9F10104E31852F8045B43F88F
:101DF000045B091FF9D1ECE730BC704710B5074907
:101E000079441831064C7C44163404E00A68081DF5
:101E1000114488470146A142F8D110BD2C000000B2
:101E20004C0000004EF68851CEF20001086840F4E4
:101E300070000860BFF34F8FBFF36F8F4FF00070DB
:101E4000E1EE100A704700008FEBFFFFA4000000D6
:101E50000C0000200000000079FFFFFF0C000000D4
:101E6000B0000000000000200000000000F00DF8AD
:101E7000002801D0FFF7C2FFAFF300800020AFF3CE
:101E80000080FFF7A3FE00F002F80120704700F089
:101E900001B800000746384600F002F8FBE70000F2
:101EA00080B5AFF30080024A11001820ABBEFBE7FB
:101EB0002600020003480168034A1278891801606D
:101EC000704700BFAC000020080000207047FEE70C
:101ED000FEE7FEE7FEE770477047704780B5FFF703
:101EE000E9FF01BD00000000000000000102030442
:101EF000060708090148804701480047711D00088E
:101F0000051F0008AFF30080FFF78CFFFFF7AEFF5F
:101F1000100000000024F40001000000FFF7FEBFE5
:101F2000FFF7FEBFFFF7FEBFFFF7FEBFFFF7FEBFE5
:101F3000FFF7FEBFFFF7FEBFFFF7FEBFFFF7FEBFD5
:101F4000FFF7FEBFFFF7FEBFFFF7FEBFFFF7FEBFC5
:101F5000FFF7FEBFFFF7FEBFFFF7FEBFFFF7FEBFB5
:101F6000FFF7FEBFFFF7FEBFFFF7FEBFFFF7FEBFA5
:101F7000FFF7FEBFFFF7FEBFFFF7FEBFFFF7FEBF95
:101F8000FFF7FEBFFFF7FEBFFFF7FEBFFFF7FEBF85
:101F9000FFF7FEBFFFF7FEBFFFF7FEBFFFF7FEBF75
:101FA000FFF7FEBFFFF7FEBFFFF7FEBFFFF7FEBF65
:101FB000FFF7FEBFFFF7FEBFFFF7FEBFFFF7FEBF55
:101FC000FFF7FEBFFFF7FEBFFFF7FEBFFFF7FEBF45
:101FD000FFF7FEBFFFF7FEBFFFF7FEBFFFF7FEBF35
:101FE000FFF7FEBFFFF7FEBFFFF7FEBFFFF7FEBF25
:101FF000FFF7FEBFFFF7FEBFFFF7FEBFFFF7FEBF15
:10200000FFF7FEBFFFF7FEBFFFF7FEBFFFF7FEBF04
:10201000FFF7FEBFFFF7FEBFFFF7FEBFFFF7FEBFF4
:10202000FFF7FEBFFFF7FEBFFFF7FEBFFFF7FEBFE4
:10203000FFF7FEBFFFF7FEBFFFF7FEBFFFF7FEBFD4
:10204000FFF7FEBFFFF7FEBFFFF7FEBFFFF7FEBFC4
:10205000FFF7FEBFFFF7FEBFFFF7FEBFFFF7FEBFB4
:10206000FFF7FEBFFFF7FEBFFFF7FEBFFFF7FEBFA4
:10207000FFF7FEBFFFF7FEBFFFF7FEBFFFF7FEBF94
:10208000FFF7FEBFFFF7FEBFFFF7FEBFFFF7FEBF84
:10209000FFF7FEBFFFF7FEBFFFF7FEBFFFF7FEBF74
:0420A000FFF7FEBF89
:0200000490006A
:100000000000052049A40090D14D0090D34D0090F0
:10001000D54D0090D74D0090D94D009000000000C4
:100020000000000000000000000000006198009047
:10003000DB4D009000000000019900906599009050
:1000400099A4009099A4009099A4009099A400907C
:1000500099A4009099A4009099A4009099A400906C
:1000600099A4009099A4009099A4009099A400905C
:1000700099A4009099A4009099A4009099A400904C
:1000800099A4009099A4009099A4009099A400903C
:1000900099A4009099A4009099A4009099A400902C
:1000A00099A4009099A4009099A4009099A400901C
:1000B00099A4009099A4009099A4009099A400900C
:1000C00099A4009099A4009099A4009099A40090FC
:1000D00099A4009099A4009099A4009099A40090EC
:1000E00099A4009099A4009099A4009099A40090DC
:1000F00099A4009099A4009099A4009099A40090CC
:1001000099A4009099A4009099A4009099A40090BB
:1001100099A4009099A40090DD4D009099A40090BE
:1001200099A4009099A4009099A4009099A400909B
:1001300099A4009099A4009099A4009099A400908B
:1001400099A4009099A4009099A4009099A400907B
:1001500099A4009099A4009099A4009099A400906B
:1001600099A4009099A4009099A4009099A400905B
:1001700099A4009099A4009099A4009099A400904B
:1001800099A4009099A4009099A4009099A400903B
:1001900099A4009099A4009099A4009099A400902B
:1001A000E94D009099A40090F54D009099A400901D
:1001B00099A4009099A4009099A4009099A400900B
:0801C00099A4009099A400909D
:1001D00010B5054C237833B9044B13B10448AFF381
:1001E00000800123237010BD2401002000000000C6
:1001F000FC05029008B5034B1BB103490348AFF35C
:10020000008008BD0000000028010020FC050290CD
:1002100081F0004102E000BF83F0004330B54FEAB7
:1002200041044FEA430594EA050F08BF90EA020F24
:100230001FBF54EA000C55EA020C7FEA645C7FEAB7
:10024000655C00F0E2804FEA5454D4EB5555B8BFDA
:100250006D420CDD2C4480EA020281EA030382EA4B
:10026000000083EA010180EA020281EA0303362DDD
:1002700088BF30BD11F0004F4FEA01314FF4801CB0
:100280004CEA113102D0404261EB410113F0004FC2
:100290004FEA03334CEA133302D0524263EB430379
:1002A00094EA050F00F0A780A4F10104D5F1200E17
:1002B0000DDB02FA0EFC22FA05F2801841F1000172
:1002C00003FA0EF2801843FA05F359410EE0A5F146
:1002D00020050EF1200E012A03FA0EFC28BF4CF077
:1002E000020C43FA05F3C01851EBE37101F000452D
:1002F00007D54FF0000EDCF1000C7EEB00006EEB3A
:100300000101B1F5801F1BD3B1F5001F0CD34908C3
:100310005FEA30004FEA3C0C04F101044FEA44521A
:1003200012F5800F80F09A80BCF1004F08BF5FEAA1
:10033000500C50F1000041EB045141EA050130BD81
:100340005FEA4C0C404141EB010111F4801FA4F124
:100350000104E9D191F0000F04BF01460020B1FA79
:1003600081F308BF2033A3F10B03B3F120020CDAB1
:100370000C3208DD02F1140CC2F10C0201FA0CF08F
:1003800021FA02F10CE002F11402D8BFC2F1200CF4
:1003900001FA02F120FA0CFCDCBF41EA0C019040AA
:1003A000E41AA2BF01EB0451294330BD6FEA0404F3
:1003B0001F3C1CDA0C340EDC04F11404C4F12002DE
:1003C00020FA04F001FA02F340EA030021FA04F3F0
:1003D00045EA030130BDC4F10C04C4F1200220FA47
:1003E00002F001FA04F340EA0300294630BD21FA85
:1003F00004F0294630BD94F0000F83F4801306BF4B
:1004000081F480110134013D4EE77FEA645C18BF3E
:100410007FEA655C29D094EA050F08BF90EA020FD5
:1004200005D054EA000C04BF1946104630BD91EACD
:10043000030F1EBF0021002030BD5FEA545C05D1D0
:100440004000494128BF41F0004130BD14F580040F
:100450003CBF01F5801130BD01F0004545F0FE4183
:1004600041F470014FF0000030BD7FEA645C1ABFB8
:10047000194610467FEA655C1CBF0B46024650EAEF
:10048000013406BF52EA033591EA030F41F400211B
:1004900030BD00BF90F0000F04BF0021704730B5A1
:1004A0004FF4806404F132044FF000054FF0000176
:1004B00050E700BF90F0000F04BF0021704730B537
:1004C0004FF4806404F1320410F0004548BF40420C
:1004D0004FF000013EE700BF42004FEAE2014FEA61
:1004E00031014FEA02701FBF12F07F4393F07F4F3C
:1004F00081F06051704732F07F4208BF704793F03F
:100500007F4F04BF41F40021704730B54FF4607451
:1005100001F0004521F000411CE700BF50EA010254
:1005200008BF704730B54FF000050AE050EA0102FD
:1005300008BF704730B511F0004502D5404261EB6D
:1005400041014FF4806404F132045FEA915C3FF4AE
:10055000D8AE4FF003025FEADC0C18BF03325FEA4B
:10056000DC0C18BF033202EBDC02C2F1200300FAFC
:1005700003FC20FA02F001FA03FE40EA0E0021FA21
:1005800002F11444BDE600BF70B54FF0FF0C4CF40F
:10059000E06C1CEA11541DBF1CEA135594EA0C0FC1
:1005A00095EA0C0F00F0DEF82C4481EA030621EAFC
:1005B0004C5123EA4C5350EA013518BF52EA033537
:1005C00041F4801143F4801338D0A0FB02CE4FF0E9
:1005D0000005E1FB02E506F00042E0FB03E54FF019
:1005E0000006E1FB03569CF0000F18BF4EF0010E11
:1005F000A4F1FF04B6F5007F64F5407404D25FEA0D
:100600004E0E6D4146EB060642EAC62141EA5551BF
:100610004FEAC52040EA5E504FEACE2EB4F1FD0C01
:1006200088BFBCF5E06F1ED8BEF1004F08BF5FEA7F
:10063000500E50F1000041EB045170BD06F0004631
:1006400046EA010140EA020081EA0301B4EB5C04DE
:10065000C2BFD4EB0C0541EA045170BD41F48011D6
:100660004FF0000E013C00F3AB8014F1360FDEBFFB
:10067000002001F0004170BDC4F10004203C35DAD7
:100680000C341BDC04F11404C4F1200500FA05F35A
:1006900020FA04F001FA05F240EA020001F00042FB
:1006A00021F0004110EBD37021FA04F642EB060171
:1006B0005EEA430E08BF20EAD37070BDC4F10C049B
:1006C000C4F1200500FA04F320FA05F001FA04F25F
:1006D00040EA020001F0004110EBD37041F100014B
:1006E0005EEA430E08BF20EAD37070BDC4F1200556
:1006F00000FA05F24EEA020E20FA04F301FA05F2BE
:1007000043EA020321FA04F001F0004121FA04F265
:1007100020EA020000EBD3705EEA430E08BF20EA35
:10072000D37070BD94F0000F0FD101F0004640006F
:1007300041EB010111F4801F08BF013CF7D041EAF1
:10074000060195F0000F18BF704703F000465200F5
:1007500043EB030313F4801F08BF013DF7D043EAC6
:100760000603704794EA0C0F0CEA135518BF95EA7C
:100770000C0F0CD050EA410618BF52EA4306D1D103
:1007800081EA030101F000414FF0000070BD50EA22
:10079000410606BF1046194652EA430619D094EAAC
:1007A0000C0F02D150EA013613D195EA0C0F05D196
:1007B00052EA03361CBF104619460AD181EA0301EA
:1007C00001F0004141F0FE4141F470014FF00000A2
:1007D00070BD41F0FE4141F4780170BD70B54FF03D
:1007E000FF0C4CF4E06C1CEA11541DBF1CEA1355BD
:1007F00094EA0C0F95EA0C0F00F0A7F8A4EB05049F
:1008000081EA030E52EA03354FEA013100F0888095
:100810004FEA03334FF0805545EA131343EA12635E
:100820004FEA022245EA111545EA10654FEA002613
:100830000EF000419D4208BF964244F1FD0404F5CC
:10084000407402D25B084FEA3202B61A65EB030528
:100850005B084FEA32024FF480104FF4002CB6EBE5
:10086000020E75EB030E22BFB61A754640EA0C0065
:100870005B084FEA3202B6EB020E75EB030E22BFA5
:10088000B61A754640EA5C005B084FEA3202B6EBE6
:10089000020E75EB030E22BFB61A754640EA9C00A5
:1008A0005B084FEA3202B6EB020E75EB030E22BF75
:1008B000B61A754640EADC0055EA060E18D04FEA33
:1008C000051545EA16754FEA06164FEAC30343EAD3
:1008D00052734FEAC2025FEA1C1CC0D111F4801FA0
:1008E0000BD141EA00014FF000004FF0004CB6E799
:1008F00011F4801F04BF01430020B4F1FD0C88BF38
:10090000BCF5E06F3FF6AFAEB5EB030C04BFB6EB42
:10091000020C5FEA500C50F1000041EB045170BD35
:100920000EF0004E4EEA113114EB5C04C2BFD4EB62
:100930000C0541EA045170BD41F480114FF0000EE6
:10094000013C90E645EA060E8DE60CEA135594EA62
:100950000C0F08BF95EA0C0F3FF43BAF94EA0C0F65
:100960000AD150EA01347FF434AF95EA0C0F7FF4DA
:1009700025AF104619462CE795EA0C0F06D152EA2E
:1009800003353FF4FDAE1046194622E750EA410612
:1009900018BF52EA43067FF4C5AE50EA41047FF423
:1009A0000DAF52EA43057FF4EBAE12E74FEA410286
:1009B00012F5001215D211D56FF47873B3EB6252B1
:1009C00012D94FEAC12343F0004343EA505311F0D8
:1009D000004F23FA02F018BF404270474FF000006A
:1009E000704750EA013005D111F0004008BF6FF0A8
:1009F000004070474FF00000704700BF53B94AB93C
:100A0000002908BF00281CBF4FF0FF314FF0FF3016
:100A100000F072B9ADF1080C6DE904CE00F006F8F3
:100A2000DDF804E0DDE9022304B070472DE9F0476A
:100A3000089E04468846002B4BD18A42154667D94A
:100A4000B2FA82F24AB1C2F1200701FA02F320FAA7
:100A500007F7954047EA030894404FEA154E230CE8
:100A6000B8FBFEF71FFA85FC0EFB178843EA084324
:100A700007FB0CF1994209D9EB1807F1FF3080F020
:100A80001B81994240F21881023F2B445B1AA4B2A9
:100A9000B3FBFEF00EFB103344EA034400FB0CFCF6
:100AA000A44509D92C1900F1FF3380F00781A44532
:100AB00040F2048102382C4440EA0740A4EB0C04C5
:100AC00000271EB1D4400023C6E900433946BDE8E3
:100AD000F0878B4209D9002E00F0EB800027C6E991
:100AE000000138463946BDE8F087B3FA83F7002F96
:100AF00047D18B4202D3824200F2FA80841A61EB22
:100B0000030301209846002EE0D0C6E90048DDE747
:100B100002B9FFDEB2FA82F2002A40F08F80491B50
:100B20004FEA154E1FFA85F80127B1FBFEFC230C96
:100B30000EFB1C1143EA014308FB0CF1994207D953
:100B4000EB180CF1FF3002D2994200F2CD808446BE
:100B5000591AA3B2B1FBFEF00EFB101443EA044491
:100B600008FB00F8A04507D92C1900F1FF3302D289
:100B7000A04500F2B6801846A4EB080440EA0C40F9
:100B80009FE7C7F1200CBB4022FA0CFE4EEA030E91
:100B900001FA07F420FA0CF521FA0CF34FEA1E488B
:100BA0002543B3FBF8F92C0C08FB19331FFA8EFA16
:100BB00044EA034309FB0AF49C4202FA07F200FAF2
:100BC00007F10BD91EEB030309F1FF3080F087809A
:100BD0009C4240F28480A9F1020973441B1BADB210
:100BE000B3FBF8F008FB103345EA034400FB0AFAB4
:100BF000A24508D91EEB040400F1FF336BD2A245D5
:100C000069D90238744440EA0940A0FB0289A4EB88
:100C10000A044C45C2464B4654D351D0002E69D0ED
:100C2000B1EB0A0564EB030404FA0CFCFD40FC4044
:100C30004CEA0505C6E90054002747E7C2F1200346
:100C400020FA03F7954001FA02F021FA03F34FEA84
:100C5000154E3843010CB3FBFEF71FFA85F80EFB67
:100C6000173341EA034107FB08F38B4204FA02F40D
:100C700007D9691807F1FF3C2FD28B422DD9023FCB
:100C80002944CB1A81B2B3FBFEF00EFB103341EACC
:100C9000034100FB08F38B4207D9691800F1FF3CC0
:100CA00017D28B4215D902382944C91A40EA07479E
:100CB0003BE73746304609E70746E7E61846FBE6D6
:100CC0004145ABD2B8EB020A69EB0E02013813467C
:100CD000A4E76046E9E7184695E76746D1E781460D
:100CE0007CE702382C4447E7ACF1020C2B442FE799
:100CF000384608E73746E9E6704700BF00000000C5
:100D000001F0FF01102A2BDB10F0070F08D010F8BC
:100D1000013B013A8B422DD010F0070F42B3F6D1C0
:100D2000F0B441EA012141EA014122F007047FF0D9
:100D300000070023F0E80256083C85EA010586EA30
:100D4000010685FA47F5A3FA87F586FA47F6A5FA6C
:100D500087F68EB9EED1F0BC01F0FF0102F0070278
:100D600032B110F8013B013A83EA010313B1F8D123
:100D70000020704701387047002D06BF3546033804
:100D8000073815F0010F07D1013015F4807F02BF3D
:100D9000013015F4C03F0130F0BC0138704700BF8E
:100DA0000022026070470000054B19686329D4BF18
:100DB000013100211960006803689B68184700BF73
:100DC000400100207047704770477047704700002F
:100DD00070B5084B0646054600F5717446F8043BAD
:100DE000A64205D054F8A03D1B6820469847F7E777
:100DF000284670BD840602900620704700F045BB6F
:100E000010B50446FFF7E4FF4FF4717120461EF061
:100E100003FC204610BD000008B58BB2052B05D998
:100E2000054B5421054A06481EF002FCA02301FB95
:100E30000300043008BD00BF9406029040070290F2
:100E4000AF060290044B10B50446036000F5CE7067
:100E5000FFF7BEFF204610BDB80A029010B5044649
:100E6000FFF7F0FF4FF4B06120461EF0D5FB20469F
:100E700010BD000010B5044600F094FB014B204665
:100E8000236010BD10070290704770470438704708
:100E9000704710B5044610211EF0BEFB204610BD61
:100EA000A0F10400F5E700000022C1608260044A5E
:100EB00010B502F1080420320460426010BD00BF8A
:100EC000D4070290704710B5044618211EF0A4FB09
:100ED000204610BD82B037B50446084606A96061B9
:100EE00081E80C000A4B1146079A2360089BE360D7
:100EF000099BC4E901122361002305680093D5F81A
:100F00009850A847204603B0BDE8304002B0704773
:100F1000080802902DE9F041436804460E468B42D2
:100F20003EDC83688B423BDB40690368D3F8A83022
:100F30009847E56823695FFA85FEC5F30748C5F35E
:100F40000727DDB26069A5EB0E05D4E90121A1EB0D
:100F5000020CC3F30741C3F307230268A1EB0801A6
:100F6000DB1BD2F8CC2091FBFCF195FBFCF593FB4D
:100F7000FCF306FB05E506FB018106FB0373EDB2FE
:100F8000090445F07F451B0201F47F019BB2294310
:100F90001943904760690368BDE8F0415B691847F1
:100FA000BDE8F08181807047C18070470181704742
:100FB0004181704770477047704770477047C388DA
:100FC000D21A8388C91A036812B209B210B45DF844
:100FD000044B1B6D1847806A7047704700F0C4BB14
:100FE00010B50446A0211EF017FB204610BD0000DE
:100FF00010B5044600F0E0FB014B2046236010BD15
:10100000180802907047704700F05DBC10B50446A8
:101010004FF49C711EF000FB204610BD10B5044635
:1010200000F0F0FC014B2046236010BDA4080290A4
:10103000704704387047704710B5044610211EF001
:10104000EBFA204610BDA0F10400F5E70022C160D4
:101050008260044A10B502F1080420320460426044
:1010600010BD00BFD0080290704700002DE9F0418C
:101070001E4C8EB0074600F099FD02AD06AE94E816
:101080000F00103485E80F0094E80F000AAC86E8E2
:101090000F000CAE84E80F0018201EF07BFA80468B
:1010A00096E803008DE8030007F51271404694E8C6
:1010B0000C00FFF70FFFC7F8708A95E80F0084E86F
:1010C0000F0018201EF066FA054696E803008DE82A
:1010D000030007F58071284694E80C00FFF7FAFE3C
:1010E000C7F8745A0EB0BDE8F08100BF1406029034
:1010F000D0F8740AFFF70EBF38B5414D0446286892
:10110000C30726D4FFF7D6F93BA3D3E90023FFF7A3
:1011100065FBFFF74BFC014604F2047009F078FA16
:101120002968032304F2E470C1F1640191FBF3F137
:1011300009F06EFA2A68192304F2445092FBF3F185
:1011400003FB112109F064FA296804F2246009F014
:101150005FFA2968322204F5557091FBF2F302FB25
:101160001313182BC9BF274B4FF0FF33C4F87C3340
:10117000A3F5E523DBBFC4F87C33234BA3F20D5367
:101180001B68C4F8803310F031F82968232204F575
:10119000627091FBF2F302FB13130E2BD7BF4FF0DB
:1011A000FF331A4BC4F8B033174BCABFC4F8B0337F
:1011B0001B68174BC4F8B43310F018F82B68154AA5
:1011C0000A2104F64C2012F083F904F58C6010F02B
:1011D0000DF82B68104A632B06DD00211170127880
:1011E00032B101332B6038BD002BF8DC0121F5E76B
:1011F000013BF7E7AFF30080CDCCCCCCCCCCFC3FAF
:101200004801002038C31FFF440100201FC3FFFF17
:101210001499FFFFFC0802904C01002010B5044611
:1012200000F014FD014B2046236010BD0809029018
:10123000014B024A1A60704744010020383838FFD9
:10124000044B10B50446036000F6C4000AF000FC2D
:10125000204610BDFC0C029010B50446FFF7F0FFCD
:1012600040F6782120461EF0D7F9204610BD704781
:10127000043870477047C0680368DB6A1847A0F1FC
:101280000400FFF7F8BF10B5044610211EF0C4F9A2
:10129000204610BDA0F10400F5E700000022C16067
:1012A0008260044A10B502F10804243204604260EE
:1012B00010BD00BF38090290704700F596730868AA
:1012C000496803C37047704710B504464FF4AC71CA
:1012D0001EF0A2F9204610BD10B50446D0F8540106
:1012E000FFF762FD2046BDE810400EF0DFBE10B5EE
:1012F0000446D0F83C0158B10368DB68984738B120
:10130000D4F83C0103689B6898470023C4F83C313B
:1013100010BD000010B5044601F00EFB014B204645
:10132000236010BD70090290704704387047704701
:1013300010B5044610211EF06FF9204610BDA0F133
:101340000400F5E70022C1608260044A10B502F192
:10135000080420320460426010BD00BFAC09029056
:101360007047704701F0E1BE10B50446F4211EF04D
:1013700053F9204610BD000010B5044601F00CFFE3
:10138000014B2046236010BDE00902900020704709
:101390004FF6FF7383814FF0FF3303621368C3611D
:1013A000106070477047704790F825201AB190F888
:1013B000242002B11860704790F82C0070477047E5
:1013C00070470000044B10B50446036000F5CE7072
:1013D000FFF7FEFC204610BDB80A02907047F0B43B
:1013E000C768846846687D10F80706EB050C44BFA3
:1013F000705904596046A446F0BC604743682BB15D
:1014000083682BB9C06800F0010070471846704728
:101410000120704730B4C568034644686A10ED0780
:101420009B6804EB020048BFA25830BC48BFD358A9
:10143000184743682BB183682BB9C06800F00100DE
:101440007047184670470120704710B50446402188
:101450001EF0E2F8204610BD10B5044610211EF023
:10146000DBF8204610BD10B5044610211EF0D4F85C
:10147000204610BD10B50446FFF7A4FF4FF4B0613D
:1014800020461EF0C9F8204610BD38B54FF4D07480
:10149000054600F5827009F008FD2B592819A03483
:1014A000D3F880309847B4F5AC6FF6D138BD10B59D
:1014B0000446806A50B10368DB68984730B1A06A7F
:1014C00021460368BDE810409B68184710BD70B501
:1014D000044600F5CE701E4688420BD11146FFF738
:1014E0009BFC236832460146DD6A20462B46BDE858
:1014F0007040184770BD70B504460D460BF06AFF8A
:10150000E06B58B10368DB68984738B1E06B2A4656
:1015100021460368BDE870409B68184770BD98304D
:10152000884208B505D10EF0A3FEBDE8084001F0E1
:1015300037BA08BD2DE9F0411E4603680446174638
:10154000DB6ABDF9185098472368394620461B6B63
:1015500098472368314620465A6B904723682946AE
:1015600020469B6BBDE8F041184700000121002296
:1015700080F825100A4982800160FF21C280028123
:1015800042818281C28102824282C261028442849B
:1015900080F8242080F826108262C0E90522704776
:1015A000783502902DE9F04F044689B010F00AFA20
:1015B0000025634B274604F16C0AE56304F19809A2
:1015C00047F8403B384604F1D806FFF7CFFF5046B6
:1015D000FFF7CCFF48460DF033F85A4BC4F8D4500F
:1015E0003046C4F89830012304F5D07804F5AC6592
:1015F00084F8BC3009F0AEFE04F5CE730393524B71
:10160000C4F89C31404608F1A008FFF7F1FCA8455A
:10161000F8D14E4B00254FF4887B3846C4F860352E
:101620002A464B4B2946C4F86C55C4F86835494BDB
:10163000C4F87C55C4F87035474BC4F86445C4F809
:1016400078354FF4F073C4F87445CDF800B0FFF767
:1016500071FF4FF07F432A462946A3665046CDF8D6
:1016600000B04FF4F073FFF765FF3C4BC4F89C509B
:1016700005AAC4F89430012304A94846ADF81030F7
:101680000223ADF814300423ADF81830ADF81C3047
:1016900007AB009306AB0CF030FF16232A4630460A
:1016A000A4F8D0300F23C4F8C0804421A4F8D2306D
:1016B00040F29313CDF800B0FFF73CFF29463046C7
:1016C0000AF04FF8294630460AF0A2F8304624497D
:1016D00009F08BFF30460A2109F08AFF30460A21C3
:1016E00009F089FF3046072109F0FCFE2A46294609
:1016F000304609F041FE2946304609F055FE2A469B
:101700003046251D3B2109F069FF04F5AE620399BF
:10171000304609F04FFD394628460AF07BFD514618
:1017200028460AF077FD494628460AF073FD284608
:1017300031460AF06FFD204609B0BDE8F08F00BFCA
:10174000B80A0290140A029084060290880A029055
:101750001F150090A00A0290CF1400900000FFFF18
:10176000CD1C019070477047704710B504460821A2
:101770001DF052FF204610BD10B50446A0211DF0FB
:101780004BFF204610BD00000A4A02600022828002
:10179000C280028142818281C28102824282C26110
:1017A0000284428480F82420C0E90522012280F8C6
:1017B00025207047243B02902DE9F043044685B074
:1017C0000025FFF7E1FF2646384B4FF02609294652
:1017D000A5624FF6FF7746F82C3B4A46304604F1A7
:1017E00064081DF0A2FF3046FFF7CEFF01234A46F2
:1017F000294684F8503040462D4BA4F85A70E362D5
:10180000A4F85C7084F85E70A4F86070656584F874
:1018100058501DF08AFF4046FFF7B6FF254BDFF812
:10182000A090304663664FF47F03A4F890704FF4A5
:101830008471C4F8983004AF1F4BC4F88C90A36037
:10184000C4F8945084F89C5084F89D50FFF7AAFB8C
:1018500030460A21FFF7A8FB0A2301A93046ADF85C
:1018600004300B2327F8083D3A46A4F860300CF00A
:10187000E0FB124B39464046A3664FF07F43A4F885
:101880009850C4F894300923CDF80890ADF80C3086
:101890000CF08FFB314620460AF0BCFC2046414646
:1018A0000AF0B8FC204605B0BDE8F083000B0290BA
:1018B000D8320290D034029093013B000B0011000B
:1018C000F00A029070477047704730B4C56803460D
:1018D00044686A10ED079B6804EB020048BFA258F9
:1018E00030BC48BFD358184743682BB183682BB925
:1018F000C06800F00100704718467047012070472B
:1019000010B5044610211DF087FE204610BD10B50D
:1019100004464FF49C711DF07FFE204610BD9830A8
:10192000884208B505D10EF0A3FCBDE8084001F0DF
:1019300037B808BD70B5036804461546DB6A98479A
:101940002368294620461B6BBDE87040184770B5D8
:101950000368044615465B6B984723682946204672
:101960009B6BBDE870401847F8B54FF6FF73018FC9
:101970000646994232D01B4B1B682BB91A4BAE213D
:101980001A4A1B481DF054FE1A4A12888A4203D88C
:10199000194BAF21154AF4E713F81120174B1B68B8
:1019A00053F82250164B186801F0ECFE2B680746DE
:1019B00001469B6A284698472B68044639461B6CAB
:1019C0002846984714FB00F42B683946E4B22846B1
:1019D0005B6A9847204486F84500F8BD002380F8EC
:1019E0004530FAE7702A01209C0B0290A80C029067
:1019F000DE0B0290742A01201F0C0290782A01202D
:101A00007C2A01202DE9F04F044685B00FF0DAFF63
:101A10000025A246614BE56304F16C064AF8403BA1
:101A2000012304AF04F1980984F8653004F1E0085B
:101A30005B4B3046A4F844504FF0FF3B2364FF2338
:101A4000A4F8465084F866304FF6FF73A4F8485067
:101A500027F8043D3946A4F84A50A4F84C50A4F89D
:101A60004E50A4F85050A4F85250E565A4F86050C8
:101A7000A4F8625084F86450A566C4E915550BF0CB
:101A8000BDFE48460CF048FF40460CF045FF454B74
:101A9000C4F834512A46C4F828312946424B5046EE
:101AA000C4F82C41C4F83031FFF744FF4FF488727A
:101AB00050464FF4F071FFF74AFF4FF07F4339462D
:101AC0003046A3661A23ADF80C300CF0E0FD30462A
:101AD0006FF00B026FF00E01FFF72CFF40F229129E
:101AE00030464FF4FE71FFF732FF294630460BF0C7
:101AF0004BFE4846CE2240F24311FFF71BFF132353
:101B000002A93A46ADF80830484601934FF0140355
:101B1000ADF80C300CF08DFA0D224846A4F8D02018
:101B2000FFF722FF04F5947284F8CA504046C4F8C7
:101B3000C0206FF00E01D422C4E935BBFFF7FAFED6
:101B4000019B3A4602A9ADF808304FF01403404615
:101B5000ADF80C300CF06DFA0E234046A4F81831A5
:101B6000FFF702FF84F81251251D5146C4F81CB13D
:101B70002846C4F820B10AF04DFB314628460AF049
:101B800049FB494628460AF045FB284641460AF0EB
:101B900041FB204605B0BDE8F08F00BF7C0C0290F1
:101BA000783502908C0B02901F1900907047704797
:101BB00030B4C568034644686A10ED079B6804EBBF
:101BC000020048BFA25830BC48BFD35818474368EA
:101BD0002BB183682BB9C06800F00100704718462C
:101BE00070470120704710B5044610211DF014FD08
:101BF000204610BD00F60C20884208B505D10EF035
:101C000037FBBDE8084000F0DBBE08BD10B5044658
:101C1000262200211DF089FD2046FFF7B5FD094B66
:101C20004FF47F0220462360074BA3624FF6FF73F9
:101C3000A3850023C4E90C3284F8383084F83930A5
:101C400010BD00BFD0340290F00A02902DE9F04F91
:101C50000446A3B000250FF0B5FE2246DE4BE56337
:101C600004F1C40B42F8403B10461892FFF77EFC8B
:101C700004F16C03D94E04F5807804F51277184608
:101C80001993FFF773FC04F19803DFF8709304F6DF
:101C9000C40A18460D93FFF777FDC4F898605846BC
:101CA000C4F8C050FFF7B2FF404608F03FFD04F50E
:101CB000F07318460E93FFF767FD04F50373C4F83D
:101CC000E0611846C4F808521193FFF79FFF3846A9
:101CD00008F02CFD04F54A7318460C93FFF754FDE9
:101CE00004F55573C4F828631846C4F850531A9382
:101CF000FFF73CFC04F56273C4F85493C4F88053B6
:101D00001846A4F884531B93FFF730FC04F56F7357
:101D1000C4F88893C4F8B4534FF07F491846A4F828
:101D2000B8531293FFF772FF04F57E7318461393AE
:101D3000FFF76CFF04F2344318460F93FFF724FDBE
:101D400004F58C63C4F834641846C4F85C541493E6
:101D5000FFF75CFFA24BC4F89C54C4F8603404F550
:101D6000946318461593FFF751FF04F2DC431846BD
:101D70000B93FFF709FD04F5A163C4F8DC644FF091
:101D800001061846C4F804551693FFF73FFF04F206
:101D900044531846079308F0C9FC04F2246318461C
:101DA000089308F0C3FC04F204731846099308F082
:101DB000BDFC04F2E47318460A9308F0B7FC5046E1
:101DC0000AF01EF804F6D41329462622184610936A
:101DD0001DF0ABFC1098FFF7D7FC4FF6FF73814A5C
:101DE000A4F8023AA4F8043A84F8063AA4F8083AA7
:101DF00004F60C2384F8F869C4F8D4291846C4F80A
:101E0000FC5984F8005A17930CF01AFC764B2A46BA
:101E100084F8306A4FF48876C4F80C3A2946734B3C
:101E20000096C4F8603A724B1898C4F8683A4FF4B8
:101E3000F073C4F8485AC4F8644AC4F86C5AFFF7FF
:101E400079FB00964FF4F0732A4629461998C4F896
:101E5000689020AEFFF76EFB4FF0FF332C2229462F
:101E6000C4F89430CE230D9800938823FFF762FBCB
:101E7000C22258460C21FFF75DFD5E4B58463146A5
:101E800020930423C4F8F490A4F8F850ADF88430FB
:101E90000CF08FF859460D980AF0BCF940462A46D6
:101EA0002D21FFF747FDB422404623230092022252
:101EB0004FF0050B114608F093FB2B466422404679
:101EC0002946009508F040FD4046032108F085FCB6
:101ED0004FF0090240463146ADF8802008F0DCFDA5
:101EE0004046454908F066FB40463C2108F090FB1F
:101EF00041460D980AF08EF948232A469421009312
:101F0000B8230E98FFF716FB0D223D211198FFF71D
:101F100011FD384B4FF0080231461198C4F83C923D
:101F2000A4F840522093ADF884200CF042F81199A7
:101F30000E980AF06FF938461D222946FFF7FAFC81
:101F40000222232338461146DFF8B4800093B423DD
:101F500008F046FB64222B4638462946009508F0D7
:101F6000F3FC3846294608F038FC18233846314639
:101F7000ADF8803008F090FD38461F4908F01AFB94
:101F800038463C2108F044FB39462C270E980AF0CD
:101F900041F9C2230097E4228F210C98FFF7CAFA77
:101FA000322300972A4629461A98FFF7C3FA4FF0C2
:101FB000FF32C4F88083C4F87C231A990C98A4F8E3
:101FC00084B30AF027F9322300972A4690211B9800
:101FD000FFF7B0FA16E000BFFC0C02900C2A02904A
:101FE00080360290D8320290140A0290E00C0290DF
:101FF000F51B0090F00A0290FF9700FF283702902F
:10200000242424FF4FF0FF32C4F8B48304F64C2894
:10201000C4F8B0231B990C98A4F8B8B30AF0FAF8E6
:102020001022A2211298FFF785FC264F4FF00703DC
:1020300031461298C4F8EC93A4F8F053ADF884300C
:1020400020970BF0B6FF12990C980AF0E3F81122D2
:1020500013211398FFF76EFC4FF0060331461398D7
:10206000C4F82894A4F82C54ADF8843020970BF0D1
:10207000A0FF13994E270C980AF0CCF86723612231
:1020800094210093B8230F98FFF754FAB8230097D0
:102090002A4629461498FFF74DFA0B4BC4F8909442
:1020A0001B68A4F894542BB9084BAE21084A094880
:1020B0001DF0BEFA084B1B88022B11D8074BAF212D
:1020C000034AF4E7F00A0290702A01209C0B029068
:1020D000280D0290DE0B0290742A01201F0C029042
:1020E000C74B0221186801F04DFBC64A03460A217E
:1020F000404611F0EDF9C44B4FF00102C4F89C8446
:102100003146149820934FF06408ADF884200BF00A
:1021100050FF14990F980AF07DF83A46159842211D
:10212000FFF708FC0327B84B3146C4F8D094A4F855
:10213000D45415982093ADF884700BF03AFF15999C
:102140000F980AF067F8EB230B98162200934FF4D0
:10215000C6714523FFF7EEF9DF2229461698FFF7EF
:10216000E9FBA94BC4F838953146A4F83C554FF02B
:102170001B0916982093ADF884B00BF01AFF16993E
:102180000B980AF047F82A4607982821FFF7D2FB58
:10219000022207980F231146CDF8008008F020FA9C
:1021A0002B46424600952946079808F0CDFB394654
:1021B000079808F012FB31460798ADF8809008F0B8
:1021C0006BFC0798914908F0F5F907983C2108F055
:1021D0001FFA07990B980AF01DF82A46089809215A
:1021E000FFF7A8FB022208980F231146CDF80080C4
:1021F00008F0F6F92B46424600952946089808F063
:10220000A3FB3946089808F0E8FA31460898ADF87B
:10221000809008F041FC08987C4908F0CBF90898B8
:102220003C2108F0F5F908990B9809F0F3FF09989B
:1022300070222821FFF77EFB022209980F23114606
:10224000CDF8008008F0CCF92B464246009529468F
:10225000099808F079FB3946099808F0BEFA31462A
:102260000998ADF8809008F017FC0998674908F0C4
:10227000A1F909983C2108F0CBF909990B9809F0CC
:10228000C9FF0A9870220921FFF754FB02220A981D
:102290000F231146CDF8008008F0A2F92B464246E4
:1022A000009529460A9808F04FFB39460A9808F02D
:1022B00094FA31460A98ADF8809008F0EDFB0A9840
:1022C000524908F077F90A983C2108F0A1F9DDE9B4
:1022D0000A1009F09FFF19231EA94022ADF878309B
:1022E0001C2350460096ADF87C30ADF88030CE23EC
:1022F000CDE90155CDE903321FAB0A46294609F065
:10230000EFFC2946504609F0CDFA5046072109F066
:10231000A1FA2946504609F0A8FA50463C4909F06E
:10232000BBFA5046122109F0B1FA5046B42109F027
:10233000A7FA2A4629465046FFF7FCFA10981422BD
:102340000821FFF7F7FA0A2332461FA9ADF87C30BF
:102350000B231098251DA4F8083AADF880300BF037
:1023600068FE1099504609F058FB5A46179840F2FB
:102370009F11FFF7DFFA02234FF001021DA9ADF80C
:1023800078304FF00603ADF874201EAAADF87C300B
:10239000ADF880301FAB179800960CF0AEF80F2305
:1023A00017995046A4F8443AA4F8463A04F526632F
:1023B000C4F8343A09F031FB1899284609F02AFF8D
:1023C0001999284609F026FF0D99284609F022FFA1
:1023D0000E99284609F01EFF0C99284609F01AFFAD
:1023E0000F99284609F016FF0B99284609F012FFAD
:1023F0002846514609F00EFF204623B0BDE8F08F75
:102400007C2A0120F00C0290F00A0290FF9700FF56
:10241000B71D0190044B10B50446036000F6C400DC
:1024200009F016FB204610BDFC0C029010B50446C6
:10243000FFF7F0FF4FF4276120461DF0EDF820462E
:1024400010BD7047704741607047704701230372A9
:102450007047704770477047704710B40A680B4662
:102460000021146DB0F92020184623465DF8044B76
:10247000184770477047704770477047436800F1CE
:1024800024011A681846126E104700001FB50A4B47
:1024900004461C226946CDE9003040680123CDE99D
:1024A000022303685B6F9847606804F124010368A6
:1024B000DB6D984704B010BDAC0E0290044B08468B
:1024C0001A880B68002152421B6D12B2184700BFD8
:1024D000162A0120704710B50022B1F90840B1F961
:1024E0000A10028042808480C18010BD30B4C5686B
:1024F000034644686A10ED079B6804EB020048BF7E
:10250000A25830BC48BFD358184743682BB18368E2
:102510002BB9C06800F001007047184670470120D1
:10252000704700000B680846024A00211B6DB2F993
:1025300000201847162A012030B4C56803464468B5
:102540006A10ED079B6804EB020048BFA25830BC3C
:1025500048BFD358184743682BB183682BB9C0686C
:1025600000F001007047184670470120704743682B
:1025700000F110011A681846126E1047436800F106
:1025800010011A681846D26D10477047704710B591
:102590000022B1F90840B1F90A100280428084801B
:1025A000C18010BD10B4C468034641686210E407DE
:1025B0009B6801EB020048BF8A585DF8044B48BF96
:1025C000D358184743682BB183682BB9C06800F013
:1025D00001007047184670470120704710B5044647
:1025E0000C211DF019F8204610BD10B504464FF41B
:1025F000AC711DF011F8204610BD10B50446102135
:102600001DF00AF8204610BD10B5044628211DF023
:1026100003F8204610BD10B5044638211CF0FCFF1D
:10262000204610BD10B5044628211CF0F5FF2046B9
:1026300010BD10B504464C211CF0EEFF204610BD25
:1026400010B5044610211CF0E7FF204610BD10B560
:10265000044654211CF0E0FF204610BD10B504468E
:1026600010211CF0D9FF204610BD10B50DF000FE62
:102670000368BDE810401B6B184710B4826B0B4613
:102680008A4209D00A680021146DB0F9502018461A
:1026900023465DF8044B18475DF8044B7047000073
:1026A000054B1B783BB143682BB11A6800F10C0154
:1026B0001846126E104770471F2A01201F4B10B595
:1026C0001B78044613B90123037210BD90F84D0026
:1026D00094F84C300130C0B2984284F84D0024D8B0
:1026E000B4F94E2000210FF031FB83B213F0010248
:1026F00021D04FF6FF710028D8BF0A461344A4F832
:102700005030B4F8502004F10C00638A0021D21A32
:1027100012B2A4F850200EF099FD606804F13C015B
:102720000368BDE810405B6F184701232372002344
:1027300084F84D30C9E7A4F85000E2E71F2A0120D1
:102740001FB50C4B04461B788BB10B4B1C22694602
:10275000CDE9003040680123CDE9022303685B6FB7
:102760009847606804F10C010368DB6D984704B07A
:1027700010BD00BF1F2A0120680E0290044B1B6889
:1027800093F876200AB1D86C00B99868704700BFFA
:10279000202A01202DE9F0410446407F86B0013017
:1027A000237FC0B2984260774AD8B4F91E20002136
:1027B0000FF0CCFA83B213F0010248D04FF6FF714C
:1027C0000028D8BF0A4613442384B4F92010638C30
:1027D0006184CB1A617F9BB201291AB2228428D16D
:1027E0001C49097829B31C4F0025ADF80A201B4E5F
:1027F0003A88ADF80850ADF80C203288D31AADF8FD
:102800000E30174B18680368DB6A98473B88804690
:102810000495ADF814303388ADF81630FFF7AEFFED
:10282000FF22036841460195009204AADD6802ABCD
:10283000A847606804F10C0103685B6F984703E0E8
:10284000012323720023637706B0BDE8F081208462
:10285000BBE700BF1E2A0120142A0120162A0120EE
:10286000202A01202DE9F0410446807A86B001300B
:10287000637AC0B29842A0724DD8B4F90C200021FE
:102880000FF064FA83B213F001024BD04FF6FF71E0
:102890000028D8BF0A461344E381234E0025E1896E
:1028A0003388224F5B1A628BB7F900009BB2ADF8F8
:1028B0001050ADF8140019B26068D31A6183ADF8F6
:1028C000121004A9ADF8163003681B699847A37A63
:1028D000012B24D1164B1B780BB354F8140F02AB09
:1028E000616803C3134B18680368DB6A98473B8829
:1028F00080460495ADF814303388ADF81630FFF7F4
:102900003DFFFF22036841460195009204AADC685E
:1029100002ABA04703E0012323720023A37206B099
:10292000BDE8F081E081B8E7162A0120142A0120D1
:102930001E2A0120202A0120F8B5044617460E461B
:102940000DF000FD124B0025C4F850711C602946A3
:10295000104BC4F8385123600F4BC4F83C51C4F8F5
:1029600040310E4BC4F844511868C4F84851C4F8BB
:102970004C51C4F8546103689B689847284600F09E
:10298000C7FEFFF7FBFE15F0FCFC2046F8BD00BFBC
:102990006C2A0120780D0290600D0290202A0120FF
:1029A000064BC0F84401C0F848310023C0F84C3150
:1029B00000F5A073C0F83C31704700BFD92B0090E0
:1029C000064BC0F84401C0F848310023C0F84C3130
:1029D00000F5A073C0F83C31704700BFC52D0090D2
:1029E000064BC0F84401C0F848310023C0F84C3110
:1029F00000F5A073C0F83C31704700BF292F00904C
:102A0000064BC0F84401C0F848310023C0F84C31EF
:102A100000F5A073C0F83C31704700BF0131009051
:102A20002DE9F74F07469068994688460368164691
:102A30001B6A984740F67723984205D85C4BA32140
:102A40005C4A5D481CF0F4FD706803681B6A984797
:102A50000F2803D8594BA421564AF2E7F0680368BF
:102A60001B6A9847532803D8554BA521514AE8E7DC
:102A70000DF0FEFB0DF04AFCD9F8000010B1036820
:102A8000DB689847D9F8000010B103681B689847C5
:102A9000386810B103685B699847D8F8000010B136
:102AA00003685B689847386810B103681B689847EB
:102AB000D8F8000010B103689B689847F0680021BF
:102AC00003685B6A98470446002835D00022054613
:102AD0003C4B4260027245F80C3B284601920AF0DA
:102AE00049FD394B2022A563C4E90F340123C4E911
:102AF00011231423019AA4F84C30344BA4F850202D
:102B00001B78CBB1324B1146DFF8C8A02846B3F989
:102B100000B0BAF900300193FEF70CFF019B594653
:102B200028461A46FEF713FF28460AF09FFCBAF81B
:102B300000305B42A4F84E30B068002103685B6A45
:102B40009847824608B1FEF769FB70680021036868
:102B50005B6A9847054610B15146FEF79FFBC9F8DE
:102B60000040C8F80050C7F800A0F5B12B1D0C9A22
:102B700050461360AA60DAF80030CAF83C50DB68AF
:102B800098472B6828461B689847214650460FF007
:102B900096F8236820461B699847236820465B699E
:102BA0009847284603B0BDE8F08F2B46DFE700BF0B
:102BB0004C0F029082120290DA0F02901B100290CA
:102BC000BE100290800E0290680E02901F2A012013
:102BD000142A0120162A012007B5D0F8543100F537
:102BE0009C710093044BD0F850210448FFF718FF64
:102BF00003B05DF804FB00BF602A01205C2A0120BD
:102C00002DE9F74F804690689A4689460368164634
:102C10001B6A9847B0F5B06F05D2604BA321604A9C
:102C200060481CF005FD706803681B6A98470F2810
:102C300003D85D4BA4215A4AF2E7F06803681B6A87
:102C400098474B2803D8594BA521554AE8E70DF082
:102C50000FFB0DF05BFBDAF8000010B10368DB68D6
:102C60009847DAF8000010B103681B689847D8F855
:102C7000000010B103685B699847D9F8000010B1F3
:102C800003685B689847D8F8000010B103681B68B8
:102C90009847D9F8000010B103689B689847F0681E
:102CA000002103685B6A9847044600283CD0404BEB
:102CB0004FF0010B002500F12407036028223D4B53
:102CC0002946456005720562C0E903302023C0E94A
:102CD000053B1423838338461CF027FD364B84F8CC
:102CE00049B02A4663622946344B38462585B3F9F4
:102CF00000B0334B6585B3F90030A585E5852586A1
:102D00006586A586E586A4F84450A4F8465084F864
:102D10004850A4F81EB00193FEF70CFE019B5A46E2
:102D200038461946FEF713FEB068002103685B6A57
:102D30009847074608B1FEF79DF8706800210368C0
:102D40005B6A9847054610B13946FEF7ADF8CAF8F8
:102D50000040C9F80050C8F80070E5B12B1D0C9A6E
:102D600038461360AA603B68FD63DB6898472B68B0
:102D700028461B689847214638460EF0A0FF236876
:102D800020461B699847236820465B699847284678
:102D900003B0BDE8F08F2B46E1E700BF4C0F029077
:102DA00061110290DA0F02901B100290BE10029087
:102DB000280F0290AC0E0290C40E0290162A012039
:102DC000142A012007B5D0F8543100F59C71009306
:102DD000044BD0F850210448FFF712FF03B05DF810
:102DE00004FB00BF602A01205C2A01202DE9F04786
:102DF000074690689946884603681546DDF820A086
:102E00001B6A9847F32805D8414BA321414A424801
:102E10001CF00EFC686803681B6A98470F2803D8EB
:102E20003E4BA4213B4AF2E7E86803681B6A9847D7
:102E30000B2803D83A4BA521364AE8E70DF018FADB
:102E40000DF064FAD9F8000010B10368DB68984708
:102E5000D9F8000010B103681B689847386810B1B2
:102E600003685B699847D8F8000010B103685B6895
:102E70009847386810B103681B689847D8F8000075
:102E800010B103689B689847E868002103685B6A93
:102E90009847044620B1002343600372214B03602E
:102EA000A868002103685B6A9847064608B1FEF7E8
:102EB00063FA6868002103685B6A9847054610B1A9
:102EC0003146FEF73FFAC9F80040C8F800503E60AE
:102ED000E5B12B1DCAF800303046C5F808A03368AC
:102EE000F563DB6898472B6828461B68984721469E
:102EF00030460EF0E4FE236820461B69984723689D
:102F000020465B6998472846BDE8F0872B46E1E7F5
:102F10004C0F0290A5130290DA0F02901B10029042
:102F2000BE100290BC0D029007B5D0F8543100F5E8
:102F30009C710093044BD0F850210448FFF756FFD2
:102F400003B05DF804FB00BF602A01205C2A012069
:102F50002DE9F74F804690689A46894603681646E1
:102F60001B6A9847B0F59C7F05D25C4BA3215C4A55
:102F70005C481CF05DFB706803681B6A98470F286B
:102F800003D8594BA421564AF2E7F06803681B6A3C
:102F90009847372803D8554BA521514AE8E70DF04B
:102FA00067F90DF0B3F9DAF8000010B10368DB68D7
:102FB0009847DAF8000010B103681B689847D8F802
:102FC000000010B103685B699847D9F8000010B1A0
:102FD00003685B689847D8F8000010B103681B6865
:102FE0009847D9F8000010B103689B689847F068CB
:102FF000002103685B6A98470446002834D03C4BA4
:10300000002500F11007282203601423456029469B
:10301000437205728572C58138461CF086FB012318
:103020002A46294684F835303846324BA58223613A
:10303000314BE582B3F900B0304B2583B3F9003052
:103040006583A583E583258465842586658684F864
:103050003450A4F80CB00193FEF76CFC019B5A4667
:1030600038461946FEF773FCB068002103685B6AB6
:103070009847074608B1FDF7D1FF70680021036843
:103080005B6A9847054610B13946FDF7DFFFCAF87D
:103090000040C9F80050C8F80070E5B12B1D0C9A2B
:1030A00038461360AA603B68FD63DB6898472B686D
:1030B00028461B689847214638460EF000FE2368D4
:1030C00020461B699847236820465B699847284635
:1030D00003B0BDE8F08F2B46E1E700BF4C0F029034
:1030E000AF140290DA0F02901B100290BE100290F3
:1030F000440E0290E00D0290162A0120142A0120AD
:1031000007B5D0F8543100F59C710093044BD0F80A
:1031100050210448FFF71CFF03B05DF804FB00BF1B
:10312000602A01205C2A012070477047704730B444
:10313000C568034644686A10ED079B6804EB02000B
:1031400048BFA25830BC48BFD358184743682BB17A
:1031500083682BB9C06800F00100704718467047BB
:103160000120704710B5044610211CF055FA204686
:1031700010BD10B50446F4211CF04EFA204610BDD7
:10318000A830884208B505D10DF072F8BDE80840B6
:10319000FFF736BC08BD00002DE9F047044686B0B5
:1031A0000EF010FC00252746644BE56304F16C0625
:1031B00047F8403B4FF0010A614B0DF11809614A95
:1031C00030462364FF23A4F8445004F1A80884F88F
:1031D00066304FF6FF73A4F8465029F8043D49467F
:1031E000A4F84850A4F84A50A4F84C50A4F84E5003
:1031F000A4F85050A4F85250E565A4F86050A4F823
:10320000625084F86450A566A4F87050A4F8725017
:10321000A4F87450A4F87650A4F87850A4F87A5022
:10322000A4F87C50A4F87E50C4F8885084F865A0B7
:10323000C4E91555C4E92055A4F88C50E266A4F8F9
:103240008E5084F89050A4F8923084F8943084F82A
:1032500091A00BF01CFA3C4BC4F898504046E36632
:103260004FF0FF3384F8A250C4F89C3084F8A35088
:1032700084F8A450A4F8A0A00BF0E2F9334B2A463E
:1032800029463846C4E93934314BC4E93B35FEF7A9
:1032900051FB38464FF4F071FDF788FE38464FF485
:1032A0008871FDF785FE4FF07F432A462946A366C5
:1032B0003046FEF73FFB102230460C210AF04BFA55
:1032C00030462D210AF05AFA5346524629463046D6
:1032D000251D0AF08DF94046CC2240F29D11FEF7E3
:1032E00029FB112303AA02A9ADF808301223404696
:1032F000CDF80090ADF80C300523ADF81030ADF8E6
:10330000143004AB0BF0F9F8102339462846A4F822
:10331000E030A4F8E23004F1E403C4F8D03008F05F
:1033200079FF3146284608F075FF2846414608F0E7
:1033300071FF204606B0BDE8F08700BFF41502908B
:103340007835029034380290E8330290DC15029010
:1033500081310090704710B5044628211CF05CF9BB
:10336000204610BD30B5164D8DB02C78BFF35B8F65
:1033700014F0010421D128461CF01DF9E8B15823AE
:10338000042210490793104B089406930F4B0394A3
:103390000F48CDE904430123CDE90944CDE90123D8
:1033A00000930B22452300F063F828461CF00FF928
:1033B000084A094906481CF02AF905480DB030BDF5
:1033C00050010020000010902C5002902016029016
:1033D00054010020000000205533009013B5002256
:1033E00049B102AB019203F8052D0268946801AA65
:1033F000A04702B010BD0846FBE7408970478089AE
:1034000070478088704783798088184480B27047FD
:10341000C07900F07F007047C079C0097047006A2A
:103420007047406A70478B888069DB0A0A6850F8E9
:1034300023001044704710B5C2B1137BB3B1547B65
:10344000D27A240204F4E0641443C26998B202EB15
:10345000840213888B4202D192F9020010BD05D874
:103460000138043280B20028F3D1F7E70020F5E7F5
:1034700030B589B00446BDF850500695BDF84C50A3
:1034800005959DF8405004959DF83C5003959DF896
:10349000385002959DF8345001959DF830500095B4
:1034A0000DF064FF064B20462360119BA361129B25
:1034B000E361159B2362169B636209B030BD00BFB8
:1034C0002C16029030B5174D8DB02C78BFF35B8F62
:1034D00014F0010422D128461CF06DF8F0B13F230E
:1034E000042211490793114B08940693104B11487D
:1034F00005930123CDE9034302930223CDE9094457
:10350000CDE900321D220A23FFF7B2FF28461CF046
:103510005EF8094A094907481CF079F805480DB0DA
:1035200030BD00BF7C0100208C3310900050029011
:103530007C1602908001002000000020553300908E
:1035400030B5164D8DB02C78BFF35B8F14F00104AD
:1035500021D128461CF02FF8E8B158232222104927
:103560000793104B089406930F4B104805930123C3
:10357000CDE9033302930423CDE90944CDE90033B7
:103580001423FFF775FF28461CF021F8084A094963
:1035900006481CF03CF805480DB030BDA8010020DD
:1035A000CC3710900450029080160290AC0100209D
:1035B0000000002055330090704710B504460421E8
:1035C0001CF02AF8204610BD012908B508D003D305
:1035D000022909D0002002E000F012F8006808BDBE
:1035E00000F00EF84068FAE700F00AF88068F6E7A5
:1035F00000487047981602901D2070470F207047B2
:1036000000487047D401002010B5054CFFF798FF23
:103610002060FFF7A7FE6060FFF754FFA06010BDB9
:10362000D401002000207047002070470EB403B57D
:1036300003AB002153F8042B01930DF0B5FC02B04D
:103640005DF804EB03B070470CB407B504AB53F856
:10365000042B01930DF0A8FC03B05DF804EB02B05D
:103660007047000010B5C36B044673B3038E2BB9CB
:10367000184BBF21184A19481BF0DAFFC38D00EB25
:1036800043035B8B0BB30FF06BF9238E012B03D835
:10369000134BC421134AEEE7E28D40F63F10531C52
:1036A0009BB2092B194688BFA3F10A0104EB410123
:1036B000498B814209D10A2B04EB420228BF002327
:1036C000508B04EB4303588351832046BDE81040E0
:1036D0000FF02AB8DC180290091A0290E51802903F
:1036E00029190290371902900EF0D8BF10B586B094
:1036F00002AC84E806001A460AAB21460593019302
:10370000099B0093089B0CF061F906B010BD000006
:1037100038B5D8B9114B12481B681249BBB11A68A9
:103720009C681A441C4402605A681A440A606CB1CE
:103730000D4B00221A80FFF763FF0546FFF75EFF7F
:103740000A4B1C600A4B1D600A4B188038BD0A4B9F
:1037500003600A4B0B600A4B1C68E8E7E00100209D
:10376000E4010020E8010020EC010020702A012083
:10377000782A0120742A0120283A1090A839109044
:10378000043A1090044B1B6853F82100034B1B684C
:1037900003EB4000704700BFE8010020E401002077
:1037A000012380F8741080F875307047002070474E
:1037B00000207047836B0BB10846184770474FF6DF
:1037C000FF707047406803689B69184770477047EF
:1037D000034B902283F85A2383F85823704700BF85
:1037E00000E100E0094A0A49D3680A48C3F30A0322
:1037F000013B9BB20B801169C1F30A0101390180C1
:103800001364536B43F00103536370470068014036
:10381000F0010020EE010020014B986A704700BFC4
:1038200084680140024B0122996243F8602C704782
:103830008468014070B5044608F07FFE2368DD6DA2
:103840000CF016FD01462046A84723682046054A8D
:10385000D3F880504FF040410023AC46BDE87040A3
:10386000604700BF00FC03C008B531B90A4B4FF4F4
:1038700025710A4A0A481BF0DBFEC0E90F1200322C
:103880004364084918BF012200330A7018BF01239E
:10389000054A137008BD00BFB41A02902B1B02909A
:1038A000EC1A02901E2A01201F2A012008F0F8BD00
:1038B00010B5044609F010FC23682046D3F8A03068
:1038C000BDE81040184790F877301BB14068036896
:1038D0001B6818471846704730B590F8744090F848
:1038E0003410104B8C421A780DD05AB90E4A0F4939
:1038F00014880F480C8001880E4D11800122298008
:1039000004801A7030BD002AFCD00948074A01889B
:10391000084D1180044A1488118000222C800480F4
:10392000EFE700BF182A0120142A01201A2A0120DB
:10393000162A01201C2A0120034B4FF080629A6056
:103940004FF080729A60704700E100E0084B4FF042
:103950008062C3F88820BFF34F8FBFF36F8F4FF0A3
:103960008072C3F88820BFF34F8FBFF36F8F70470B
:1039700000E100E0134B144A10B51B6C1188134C86
:103980008B4213D1124B198802F02AF9226892F85F
:103990006630013382F8663000F062FA206809F080
:1039A0009BFB0020BDE8104000F0CBBC02F018F9F2
:1039B000002000F0C7FC20680368BDE81040DB6908
:1039C000184700BF00680140F0010020202A0120B4
:1039D000EE010020134A0023F0B5C2F88430BFF393
:1039E0004F8FD2F8803043F6E076C3F3C904C3F3B7
:1039F0004E33A5075B0103EA060C284621464CEA34
:103A00000007013900F14040C2F874724F1CF6D132
:103A1000203B13F1200FEED1BFF34F8FBFF36F8F19
:103A2000F0BD00BF00ED00E003685B6C18470020AC
