:020000040800F2
:10000000B0080020F51E0008CD1E0008CF1E000815
:10001000D11E0008D31E0008D51E000800000000F5
:10002000000000000000000000000000D71E0008D3
:10003000D91E000800000000DB1E0008DD1E0008BD
:100040001D1F0008211F0008251F0008291F000888
:100050002D1F0008311F0008351F0008391F000838
:100060003D1F0008411F0008451F0008491F0008E8
:100070004D1F0008511F0008551F0008591F000898
:100080005D1F0008611F0008651F0008691F000848
:100090006D1F0008711F0008751F0008791F0008F8
:1000A0007D1F0008811F0008851F0008891F0008A8
:1000B0008D1F0008911F0008951F0008991F000858
:1000C0009D1F0008A11F0008A51F0008A91F000808
:1000D000AD1F0008B11F0008B51F0008B91F0008B8
:1000E000BD1F0008C11F0008C51F0008C91F000868
:1000F000CD1F0008D11F0008D51F0008D91F000818
:10010000DD1F0008E11F0008E51F0008E91F0008C7
:10011000ED1F0008F11F0008F51F0008F91F000877
:10012000FD1F000801200008052000080920000824
:100130000D200008112000081520000819200008D3
:100140001D20000821200008252000082920000883
:100150002D20000831200008352000083920000833
:100160003D200008412000084520000849200008E3
:100170004D20000851200008552000085920000893
:100180005D20000861200008652000086920000843
:100190006D200008712000087520000879200008F3
:1001A0007D200008812000088520000889200008A3
:1001B0008D20000891200008952000089920000853
:1001C0009D200008A12000087CB50400012600F055
:1001D000FBFB0500002C01D101205AE0206A4028D9
:1001E00094F84000012801D1022052E0012084F857
:1001F000400094F8410000280AD1002084F8400013
:10020000200000F0E0FB41F28831200000F0B4FA59
:100210002068006830F4F850A168491E50EA0120B7
:1002200021680860A06C00902B0000222021200093
:1002300000F0A4FA0100C9B2002926D121680A6899
:1002400014490A40616852EA0162E1680A43E169BF
:100250000A43216A0A4321680A6021684A680E49F4
:100260000A40216952EA014261690A43A1690A43CD
:1002700021684A602168096851F001012268116013
:1002800000216164012184F84110002184F84010AC
:10029000C0B276BD2FFFFF00FEF8E0FF10B50400EE
:1002A000002C01D101201AE094F84000012801D16E
:1002B000022014E0012084F8400020680068400813
:1002C000400021680860200000F084FB002060648A
:1002D000002084F84100002084F84000002010BD78
:1002E0002DE9F84304000D0016005FF0010800F04E
:1002F0006BFB0700A8690028E8690028286A002825
:1003000094F84000012801D102203DE0012084F84A
:10031000400094F8410001282FD1002060640220A1
:1003200084F8410000963B0000222021200000F0CC
:1003300025FA81464846C0B2002820D10022290073
:10034000200000F044FA686A002812D100963B00B1
:1003500001220221200000F011FA81464846C0B275
:1003600000280CD102202168C860012084F84100D7
:1003700005E0012084F8410001E05FF0020900205F
:1003800084F840004846C0B2BDE8F2832DE9F84346
:1003900005000C001600002700F016FB80462868B8
:1003A00010F1200995F84000012801D102205EE0FB
:1003B000012085F8400095F84100012850D1002027
:1003C0006864002C45D0122085F841002868006937
:1003D000401CE86228680069401CA8626C622868BA
:1003E000406930F0406029684861E86A002815D00B
:1003F0000096434601220421280000F0BFF90700BF
:100400003800C0B2002809D1686A411C69620078CE
:1004100089F80000E86A401EE862E6E73800C0B2EA
:10042000002812D10096434601220221280000F044
:10043000A5F907003800C0B2002806D102202968BB
:10044000C860280000F04CF90700012085F8410041
:1004500008E0686C50F0080068640120070001E0C3
:1004600002200700002085F840003800C0B2BDE837
:10047000F2832DE9FC4705000C001600002700F070
:10048000A3FA80462868D0F81890286810F1200A4E
:1004900095F84000012801D1022063E0012085F891
:1004A000400095F84100012855D100206864002CD7
:1004B0004AD0222085F8410028680069401CA863C2
:1004C00028680069401C68632C632868406930F024
:1004D000406050F08060296848612868C0F8189032
:1004E000A86B002815D0009643460122062128005B
:1004F00000F044F907003800C0B2002809D1286B89
:10050000411C29639AF800100170A86B401EA86373
:10051000E6E73800C0B2002812D100964346012217
:100520000221280000F02AF907003800C0B2002894
:1005300006D102202968C860280000F0D1F8070021
:10054000012085F8410008E0686C50F008006864FC
:100550000120070001E002200700002085F840008C
:100560003800C0B2BDE8F6872DE9FC4704000D0055
:1005700016001F005FF0010800F026FA8146A86906
:100580000028E8690028286A002894F8400001281B
:1005900001D102204CE0012084F8400094F8410091
:1005A00001283ED100206064422084F84100009779
:1005B0004B4600222021200000F0E0F88246504601
:1005C000C0B200282FD13068216888627068216825
:1005D0004862B0682168C8622068016831F440014F
:1005E0003069014351F4800120680160F068A8621D
:1005F0005FF000622900200000F0E9F800974B4608
:1006000001220821200000F0B9F882465046C0B20D
:10061000002808D108202168C860012084F8410022
:1006200001E05FF0020A002084F840005046C0B2AA
:10063000BDE8F6872DE9F84304000D0016005FF0D1
:10064000010800F0C1F90700A8690028E86900283E
:10065000286A002894F84000012801D102203DE0DA
:10066000012084F8400094F8410001282FD1002097
:100670006064822084F84100A06C00903B0000225E
:100680002021200000F07AF881464846C0B20028B8
:100690001FD12068016831F00801706801432068AB
:1006A0000160706808280BD1306821680863102049
:1006B0002168C8602068006850F4801021680860D4
:1006C0005FF040622900200000F081F801E05FF057
:1006D0000209002084F840004846C0B2BDE8F28319
:1006E0007CB50400002500F06FF9060094F8410085
:1006F00080073ED5002084F840002068006840074D
:1007000011D52068006830F0040021680860E06BB3
:1007100000F07EF905002800C0B2002803D0606C0C
:1007200050F0040060642068006850F00200216806
:100730000860A06C0090330001220221200000F02C
:100740001DF805002800C0B200280BD10220216846
:10075000C860A06C0090330000222021200000F02F
:100760000DF805002800C0B2002802D1012084F84D
:1007700041002800C0B276BD816470472DE9F04188
:1007800005000E0090461F00069C286880683042D5
:1007900001D0012000E000204146C0B2C9B2884229
:1007A00012D014F1010FF0D0002C04D000F00CF99D
:1007B000C01B8442E9D2042085F84100686C50F0E7
:1007C00001006864012000E00020BDE8F08110B461
:1007D0004B6A002B06D0B2F1406F03D08B6A5B1ED0
:1007E000046823618B69002B79D00B6A002B3ED003
:1007F0008B680468E361CB69002B20D0CC6A0B6B5B
:100800001C434B6B1C434B6A1C434B6954EA8344A7
:100810000B691C430B6A1C43CB681C43CB691C430C
:100820008B691C430B681C43144303685C61B2F181
:10083000406F00F0C6804B680468A361C1E0CC6AD9
:100840000B6B1C434B6B1C434B6A1C434B6954EAB8
:1008500083440B691C430B6A1C43CB691C438B69A3
:100860001C430B681C43144303685C61A9E0CB691B
:10087000002B1ED0CC6A0B6B1C434B6B1C434B6A8A
:100880001C434B6954EA83440B6A1C43CB681C43EA
:10089000CB691C438B691C430B681C4314430368DE
:1008A0005C61B2F1406F00F08C804B680468A3611A
:1008B00087E0CC6A0B6B1C434B6B1C434B6A1C439D
:1008C0004B6954EA83440B6A1C43CB691C438B6914
:1008D0001C430B681C43144303685C6171E00B6AA2
:1008E000002B39D08B680468E361CB69002B1DD0E5
:1008F000CC6A0B6B1C434B6B1C434B6A1C434B6910
:1009000054EA83440B691C430B6A1C43CB681C43A9
:10091000CB691C438B691C43144303685C61B2F1CF
:10092000406F4ED04B680468A3614AE0CC6A0B6B01
:100930001C434B6B1C434B6A1C434B6954EA834476
:100940000B691C430B6A1C43CB691C438B691C431A
:10095000144303685C6134E0CB69002B1BD0CC6A84
:100960000B6B1C434B6B1C434B6A1C434B6954EA97
:1009700083440B6A1C43CB681C43CB691C438B69C3
:100980001C43144303685C61B2F1406F19D04B689B
:100990000468A36115E04B6A002B12D0CC6A0B6B84
:1009A0001C434B6B1C434B6A1C434B6954EA834406
:1009B0000B6A1C43CB691C438B691C4314430368BB
:1009C0005C6110BC7047704701480068704700BF09
:1009D000AC000020704730B4002513E050F8042B21
:1009E000D30744BFA9F101039A18091F042942F84B
:1009F000045BFAD213468C0744BF15809B1CC907C1
:100A000048BF1D7050F8041B0029E7D130BC704767
:100A100070B50400A56DFFF7D7FF060094F8350008
:100A2000022806D080206065002084F83400012070
:100A30003BE02068006830F01600216808602068FC
:100A4000406930F0800021684861206C002802D1A4
:100A5000A06C002805D02068006830F008002168EC
:100A6000086020680068400840002168086020682D
:100A70000068C0070ED5FFF7A7FF801B0628F6D336
:100A800020206065002084F83400032084F83500BD
:100A900003200AE03F21E06D8140A960002084F836
:100AA0003400012084F83500002070BD2DE9FC41A0
:100AB00004000026002C01D10120D8E12078C007D5
:100AC0006DD5DFF89405016811F00C01042909D0F7
:100AD000006810F00C0008280ED1DFF880050068CF
:100AE000400209D5DFF86C050068800357D56068BF
:100AF000002854D10120BAE16068B0F5803F06D1EA
:100B0000DFF85005016851F48031016026E060682B
:100B100000280AD1DFF83C05016831F4803101601A
:100B2000016831F48021016018E06068B0F5A02F01
:100B30000AD1DFF82005016851F4802101600168C5
:100B400051F48031016009E0DFF80805016831F4F3
:100B500080310160016831F4802101606068002803
:100B60000ED0FFF731FF0500DFF8E80400688003CE
:100B700015D4FFF729FF401B6528F5D3032076E144
:100B8000FFF722FF0500DFF8CC040068800306D5DC
:100B9000FFF71AFF401B6528F5D3032067E1207893
:100BA000800752D5DFF8B004016811F00C0F09D0AE
:100BB000006810F00C00082816D1DFF8A0040068C7
:100BC000400211D4DFF88C040168890704D5E1687C
:100BD000012901D001204AE1016831F0F8012269C0
:100BE00051EAC201016030E0E06800281AD0DFF865
:100BF0006474386850F001003860FFF7E5FE0500C6
:100C00003868800706D4FFF7DFFE401B0328F7D3C0
:100C100003202CE1386830F0F800216950EAC10067
:100C2000386012E0DFF82C74386840084000386003
:100C3000FFF7CAFE05003868800706D5FFF7C4FE37
:100C4000401B0328F7D3032011E12078000728D5A3
:100C50006069002812D0DFF80874386850F001008D
:100C60003860FFF7B1FE05003868800719D4FFF738
:100C7000ABFE401B0328F7D30320F8E0DFF8E07356
:100C80003868400840003860FFF79EFE050038686D
:100C9000800706D5FFF798FE401B0328F7D30320F3
:100CA000E5E02078400740F18780DFF8C0733868BE
:100CB000C0000AD4386850F080503860386810F0AE
:100CC00080500090009801200600DFF8A483D8F837
:100CD0000000C00513D4D8F8000050F48070C8F8A4
:100CE0000000FFF771FE0500D8F80000C00506D42B
:100CF000FFF76AFE401B6528F6D30320B7E0A06823
:100D0000012806D1DFF86C03016851F00101016090
:100D100025E0A06800280AD1DFF8580301684908D7
:100D200049000160016831F00401016017E0A0682A
:100D300005280AD1DFF83C03016851F00401016085
:100D4000016851F00101016009E0DFF82803016842
:100D5000490849000160016831F004010160A068A0
:100D6000002810D0FFF730FE0500DFF80803006808
:100D7000800719D4FFF728FE401B41F289318842D1
:100D8000F3D3032073E0FFF71FFE0500DFF8E40252
:100D90000068800708D5FFF717FE401B41F2893134
:100DA0008842F3D3032062E03000C0B2012803D1AF
:100DB000386830F080503860A069002856D0DFF8DD
:100DC0009802006810F00C0008284DD0A069022895
:100DD00037D1DFF88072386830F080703860FFF704
:100DE000F3FD80463868800107D5FFF7EDFDB0EBD5
:100DF00008000328F6D3032039E0E169206A0143A3
:100E0000606A51EA8011A06A4008401E51EA004120
:100E1000E06A51EA006151F00051DFF840020160E0
:100E2000386850F080703860FFF7CEFD05003868F4
:100E300080011BD4FFF7C8FD401B0328F7D3032014
:100E400015E0DFF81072386830F080703860FFF716
:100E5000BBFD05003868800108D5FFF7B5FD401BD4
:100E60000328F7D3032002E0012000E00020BDE8C2
:100E7000F6812DE9F04104000D000026002C01D17F
:100E800001209FE0DFF8F071386810F00F00A842F1
:100E90000BD238680009000128433860386810F028
:100EA0000F00A84201D001208CE02078800719D5DE
:100EB0002078400705D5DFF8A001016851F4E05122
:100EC00001602078000705D5DFF88C01016851F436
:100ED00060410160DFF880110A6832F0F002A0681A
:100EE00002430A602078C00737D56068012806D120
:100EF000DFF860010068800311D4012062E06068BF
:100F0000022806D1DFF84C010068800107D40120D7
:100F100058E050480068800701D4012052E0DFF813
:100F20003881D8F800108908890060680143C8F842
:100F30000010FFF749FD0600D8F8000010F00C0083
:100F40006168B0EB810F08D0FFF73EFD801B41F2D6
:100F500089318842F0D3032034E0386810F00F0064
:100F600085420BD238680009000128433860386890
:100F700010F00F00A84201D0012023E020784007A4
:100F800006D535490A6832F4E052E06802430A6047
:100F90002078000707D53048016831F460412269A4
:100FA00051EAC201016000F00FF834492A4A126880
:100FB000C2F30312895CC8402B4908600F2000F07F
:100FC00061F80020BDE8F0812DE9F0410024002502
:100FD000002600272048006810F00C00002804D0EC
:100FE000042804D0082804D031E01E4830E024480A
:100FF0002EE0DFF86880D8F8000010F03F00040011
:10100000D8F8000040020CD5D8F80000C0F38810D2
:101010001B49A1FB00012200002300F059F8050044
:101020000BE0D8F80000C0F388100E49A1FB0001C6
:101030002200002300F04CF80500D8F80000C0F3AF
:101040000140401C40000600B5FBF6F000E00548FA
:10105000BDE8F08100380240083802400438024000
:10106000743802400024F40004000020403802409C
:101070000070004070380240003C0240E41E00084E
:1010800040787D0110B504004FF47A700D4909785D
:10109000B0FBF1F00C490968B1FBF0F000F0B0F9D9
:1010A000002801D001200CE0102C09D200222100E0
:1010B0005FF0FF3000F08FF904480460002000E08A
:1010C000012010BD080000200400002000000020C6
:1010D000BBBBE1B1B2F5803F80F07E80022A1ED911
:1010E0008C46B1FBF2F102FB11C31B0443EA10432F
:1010F000B3FBF2FC02FB1C3380B240EA0343B3FBB8
:10110000F2F002FB103240EA0C4000237047022A42
:1011100005D98446B0FBF2F002FB10C270474AB119
:1011200005D100F0010249085FEA30007047002253
:101130000023704700F078B90B0002000021002066
:101140007047904271EB030CF6D3B3F5803F2FD27A
:10115000F0B5B3FA83F7B1FA81F4A7F10F0E3D1B96
:101160005340CEF1200602FA0EF2F3415340B5F19E
:101170000F0746D80F3C2C444140C4F12006A04044
:10118000F1414140B1FBF3F603FB1611A2FB06450A
:10119000001BA94102D2761E8018594180EA010243
:1011A00021FA0EF362FA0EF200215A403046F0BDE9
:1011B00030B4B1FBF3FC03FB1C11A2FB0C45001B7C
:1011C000A94103D2ACF1010C8018594130BC024650
:1011D0000B46604600217047B2F1807F65D3F0B5C1
:1011E000B2FA82F7B1FA81F4C7F10F063D1B22FA79
:1011F00006F307F1110EF24120355A40B5F10F0701
:10120000B8D94140C4F12006A040F1414140B1FBB2
:10121000F3FC03FB1C11A2FB0C45001BA94103D2EC
:10122000BCF1010C801859410F2F12D30F3FC90395
:1012300041EA5041B1FBF3F603FB1611A2FB064550
:10124000D4EBC030A94102D2761E8018594146EA3B
:10125000CC3C07B34140C7F12006B840F1414140C2
:10126000B1FBF3F603FB1611A2FB0645001BA941D7
:1012700002D2761E8018594180EA010221FA0EF34B
:10128000C7F1200462FA0EF20CFA07F05A402CFA69
:1012900004F13043F0BD80EA010221FA0EF300218F
:1012A00062FA0EF260465A40F0BD8C46B1FBF2F194
:1012B00002FB11C31B0243EA1063B3FBF2FC02FB07
:1012C0001C331B024CEA002043EA1063B3FBF2FC20
:1012D00002FB1C331B024CEA002043EA1063B3FB01
:1012E000F2FC02FB1C331B024CEA002043EA1063B1
:1012F000B3FBF2FC02FB1C324CEA002000237047D7
:1013000010B410F00703DFF8044122684FF6FF0124
:101310000A40DFF8FC1051EA03210A43226010BCA6
:101320007047DFF8E8000068C0F30220704710B48F
:10133000020052B2002A05D40A01364B040064B2FE
:101340001A5508E00A01344B040064B214F00F048B
:10135000234403F8042C10BC704770B4030013F04E
:101360000704D4F10700052801D3042001E0D4F1DB
:101370000700251D072D01D2002500E0E51E0126EE
:1013800016FA00F0401E0140A94016FA05F56D1E40
:101390002A401143080070BC704710B50400601E5D
:1013A000B0F1807F01D301200EE0601E1B49086070
:1013B0000F215FF0FF30FFF7BAFF002018490860E7
:1013C000072018490860002010BD10B50400200057
:1013D000FFF796FF10BD2DE9F04104000D00160047
:1013E0000027FFF79EFF8046320029004046FFF7A6
:1013F000B4FF0100200040B2FFF799FFBDE8F08183
:1014000010B504002000FFF7C8FF10BD0CED00E090
:101410000000FA0500E400E018ED00E014E000E050
:1014200018E000E010E000E07047000010B5CC4C80
:10143000CC4820602000FEF731FF002801D00120B9
:1014400055E000F095F9C8480021C1610021016212
:1014500000214162002141610021C162002101633C
:10146000002141634FF40051C160C0480021016177
:101470000121C160102181605FF480014161012080
:1014800060600420A0601020E0608020B0FA80F04E
:10149000401E20614FF4A06060610020A061002028
:1014A000E061002020622000FEF78EFE002801D0BF
:1014B00001201CE0200000F01BF8002801D00120D2
:1014C00015E0200000F0ACF8002801D001200EE06B
:1014D000200000F04DF8002801D0012007E0200096
:1014E00000F028F8002801D0012000E0002010BD05
:1014F00070B504009C4D4FF48070A8616620286090
:101500000020686241F28836320029002000FEF790
:10151000E7FE002801D001200BE09920286032006E
:1015200029002000FEF7DCFE002801D0012000E0A9
:10153000002070BD1CB504008B494FF440708861D9
:10154000EB2008604FF44060C8615FF04070486273
:101550000A20486100200190002000906A46200087
:10156000FFF768F8002801D0012000E0002016BD38
:1015700030B58FB004004FF4807007908520019043
:1015800000200890002009905FF080700A900020F1
:10159000069001200B9000200C9000200D90002060
:1015A0000E9041F288352A0001A92000FEF798FE2E
:1015B000002801D0012031E02A0069462000FEF712
:1015C00058FF002801D0012028E0200000F09EF8FC
:1015D000002801D0012021E0812001909DF8001019
:1015E00011F00F010A225FF07060B0FA80F08240C3
:1015F00011438DF800102A0001A92000FEF770FEAB
:10160000002801D0012009E02A0069462000FEF7E9
:10161000BDFE002801D0012000E000200FB030BD49
:10162000F0B595B004004FF4807007900020099049
:101630000020069000200C9000200D9000200E90BD
:1016400010201190002013905FF48000149065200A
:101650000190002008905FF080750A9501200B90A2
:101660003F4E41F288373A0001A93000FEF738FEBC
:10167000002801D0012047E03A0069463000FEF71B
:10168000F8FE002801D001203EE006200190002055
:101690000A903A0001A93000FEF722FE002801D08E
:1016A000012031E002200F900220109001201290C2
:1016B000052001900A953B000FAA01A93000FEF712
:1016C00053FF002801D001201EE06120019001207D
:1016D0000B909DF8000010F03F0050F040008DF896
:1016E00000003A0001A93000FEF7FAFD002801D001
:1016F000012009E03A0069463000FEF747FE002865
:1017000001D0012000E0002015B0F0BD70B504004C
:10171000154D4FF44070A8610620286000206862D3
:1017200041F28836320029002000FEF7D9FD00285A
:1017300001D0012013E00D4A022010600220506009
:10174000052028605FF040706862330029002000A7
:10175000FEF70AFF002801D0012000E0002070BD44
:101760000C000020001000A0580000209000002075
:1017700010B586B03648016851F00201016000687A
:1017800010F00200059005983248016851F00201FE
:101790000160016831F0020101602F48016851F0D9
:1017A00002010160016811F00201059105990168CB
:1017B00051F008010160016811F0080105910599D7
:1017C000016851F010010160006810F010000590F0
:1017D0000598402000900A200490022001900120EA
:1017E0000290022003901D4C6946200000F03CF856
:1017F00004200090092004900020029069462000F7
:1018000000F032F84FF40060009009200490144C6E
:101810006946200000F028F84FF48050009009201D
:1018200004906946200000F01FF804200090092071
:10183000049069460B4800F017F84FF400500090F0
:10184000092004906946200000F00EF806B010BD93
:101850003838024018380240303802400004024054
:10186000000C0240001002402DE9F8410022002344
:10187000002400260025102D80F00B81012717FA87
:1018800005F213000A681A4014009C4240F0FF80E1
:101890004A68022A02D04A68122A1FD12A00D208B6
:1018A00000EB8202D2F820C05FF00F0E15F00702A5
:1018B000D2B292001EFA02FE3CEA0E0CD1F810E001
:1018C00015F00702D2B292001EFA02FE5EEA0C0C7C
:1018D00066462A00D20800EB82021662D0F800C0E9
:1018E0005FF0030E2A00D2B252001EFA02F23CEA66
:1018F000020C91F8048018F003082A00D2B25200BA
:1019000018FA02F858EA0C0CC0F800C04A68012A1C
:1019100008D04A68022A05D04A68112A02D04A68CB
:10192000122A1BD186682A00D2B252001EFA02F295
:101930009643D1F80C802A00D2B2520018FA02F86D
:1019400058EA060686604268AF40BA434F68C7F35C
:101950000017AF403A439446C0F804C0C6682A0056
:10196000D2B252001EFA02FE36EA0E068F682A0034
:10197000D2B2520097403E43C6604A68D20040F15E
:101980008680DFF81421176857F4804717601268C3
:1019900012F480420092009ADFF800C12A009208F7
:1019A0005CF822705FF00F0E15F00302D2B29200C5
:1019B0001EFA02FE37EA0E07DFF8E420904201D15A
:1019C000002631E0DFF8DC20904201D101262BE037
:1019D000DFF8D420904201D1022625E0DFF8CC20A8
:1019E000904201D103261FE0DFF8C420904201D1CC
:1019F000042619E02F4A904201D1052614E02E4A10
:101A0000904201D106260FE02C4A904201D10726D0
:101A10000AE02B4A904201D1082605E0294A90426B
:101A200001D1092600E00A26F6B215F00302D2B26F
:101A30009200964037432A0092084CF82270224EBA
:101A40003268A243D1F804C05FEACC3C00D52243FF
:101A500032601E4F3E68A643D1F804C05FEA8C3C5A
:101A600000D526433E601A4F3A68A243D1F804C01D
:101A70005FEACC2C00D522433A60164F3E68A6435D
:101A8000D1F804C05FEA8C2C00D526433E606D1C63
:101A9000F1E6BDE8F1810000443802400838014019
:101AA000000002400004024000080240000C024016
:101AB000001002400014024000180240001C0240C6
:101AC0000020024000240240003C0140043C014050
:101AD000083C01400C3C0140BFF34F8FBFF36F8FB8
:101AE000002049490860BFF34F8FBFF36F8F47480D
:101AF000016851F400310160BFF34F8FBFF36F8F66
:101B00007047BFF34F8FBFF36F8F4048016831F4C8
:101B10000031016000203C490860BFF34F8FBFF3E4
:101B20006F8F704710B4002039490860BFF34F8FA2
:101B300038480168C1F34E32C1F3C900030043F6CF
:101B4000E07010EA421050EA8370334C20601800B5
:101B5000431E0028F3D11000421E0028ECD1BFF331
:101B60004F8F2A48046854F480340460BFF34F8FC9
:101B7000BFF36F8F10BC704710B400202449086079
:101B8000BFF34F8F2148016831F480310160BFF30A
:101B90004F8F20480168C1F34E32C1F3C9000300E2
:101BA00043F6E07010EA421050EA83701B4C20604C
:101BB0001800431E0028F3D11000421E0028ECD16B
:101BC000BFF34F8FBFF36F8F10BC704780B500F02D
:101BD00072F800F07DF800F030F800F027F80028E7
:101BE00001D000F029F800F06CF800200C490860E2
:101BF0000C480D49096801605FF01041096881F3E4
:101C0000088800688047FEE750EF00E014ED00E030
:101C100084ED00E080ED00E060EF00E074EF00E0B4
:101C200010E000E0A80000200400009010B500249F
:101C3000FFF7FCFB204310BDFEE730B591B0002458
:101C4000012005905FF48030069002200B905FF435
:101C500080000C9019200D904FF4D8700E90022047
:101C60000F900820109005A8FEF720FF050028001F
:101C7000C0B2002800D0FEE700F03EF804002000CB
:101C8000C0B2002800D0FEE70F2000900220019093
:101C9000002002904FF4A05003904FF48050049025
:101CA00006216846FFF7E5F80100C9B2002900D017
:101CB000FEE711B030BD80B5FFF70EFFFFF732FF32
:101CC00001BD80B5FFF71DFFFFF756FF01BD000006
:101CD00080B50748016851F4807101600320FFF767
:101CE00074FB0F20FFF7CEF900F004F8002002BDCE
:101CF000003C0240704700007CB500241B4801688E
:101D000051F080510160006810F080500090009800
:101D1000154E306850F480303060FEF755FE0500F7
:101D2000104C2068C00308D4FEF74EFE401B40F262
:101D3000E9318842F4D3032013E0306850F40030D6
:101D40003060FEF741FE06002068800308D4FEF7ED
:101D50003BFE801B40F2E9318842F5D3032000E0CE
:101D6000002076BD04700040007000404038024002
:101D70000F48016851F4700101600E49086850F085
:101D80000100086000200C4A10600A680B480240FD
:101D90000A600B480B4A1060086830F48020086025
:101DA0000020094908605FF000600849086070473A
:101DB00088ED00E00038024008380240FFFFF6FEE0
:101DC00010300024043802400C38024008ED00E0D6
:101DD00030B450F8041B79B10268436802440830FB
:101DE000DC0744BFA9F10104E31852F8045B43F88F
:101DF000045B091FF9D1ECE730BC704710B5074907
:101E000079441831064C7C44163404E00A68081DF5
:101E1000114488470146A142F8D110BD2C000000B2
:101E20004C0000004EF68851CEF20001086840F4E4
:101E300070000860BFF34F8FBFF36F8F4FF00070DB
:101E4000E1EE100A704700008FEBFFFFA4000000D6
:101E50000C0000200000000079FFFFFF0C000000D4
:101E6000B0000000000000200000000000F00DF8AD
:101E7000002801D0FFF7C2FFAFF300800020AFF3CE
:101E80000080FFF7A3FE00F002F80120704700F089
:101E900001B800000746384600F002F8FBE70000F2
:101EA00080B5AFF30080024A11001820ABBEFBE7FB
:101EB0002600020003480168034A1278891801606D
:101EC000704700BFAC000020080000207047FEE70C
:101ED000FEE7FEE7FEE770477047704780B5FFF703
:101EE000E9FF01BD00000000000000000102030442
:101EF000060708090148804701480047711D00088E
:101F0000051F0008AFF30080FFF78CFFFFF7AEFF5F
:101F1000100000000024F40001000000FFF7FEBFE5
:101F2000FFF7FEBFFFF7FEBFFFF7FEBFFFF7FEBFE5
:101F3000FFF7FEBFFFF7FEBFFFF7FEBFFFF7FEBFD5
:101F4000FFF7FEBFFFF7FEBFFFF7FEBFFFF7FEBFC5
:101F5000FFF7FEBFFFF7FEBFFFF7FEBFFFF7FEBFB5
:101F6000FFF7FEBFFFF7FEBFFFF7FEBFFFF7FEBFA5
:101F7000FFF7FEBFFFF7FEBFFFF7FEBFFFF7FEBF95
:101F8000FFF7FEBFFFF7FEBFFFF7FEBFFFF7FEBF85
:101F9000FFF7FEBFFFF7FEBFFFF7FEBFFFF7FEBF75
:101FA000FFF7FEBFFFF7FEBFFFF7FEBFFFF7FEBF65
:101FB000FFF7FEBFFFF7FEBFFFF7FEBFFFF7FEBF55
:101FC000FFF7FEBFFFF7FEBFFFF7FEBFFFF7FEBF45
:101FD000FFF7FEBFFFF7FEBFFFF7FEBFFFF7FEBF35
:101FE000FFF7FEBFFFF7FEBFFFF7FEBFFFF7FEBF25
:101FF000FFF7FEBFFFF7FEBFFFF7FEBFFFF7FEBF15
:10200000FFF7FEBFFFF7FEBFFFF7FEBFFFF7FEBF04
:10201000FFF7FEBFFFF7FEBFFFF7FEBFFFF7FEBFF4
:10202000FFF7FEBFFFF7FEBFFFF7FEBFFFF7FEBFE4
:10203000FFF7FEBFFFF7FEBFFFF7FEBFFFF7FEBFD4
:10204000FFF7FEBFFFF7FEBFFFF7FEBFFFF7FEBFC4
:10205000FFF7FEBFFFF7FEBFFFF7FEBFFFF7FEBFB4
:10206000FFF7FEBFFFF7FEBFFFF7FEBFFFF7FEBFA4
:10207000FFF7FEBFFFF7FEBFFFF7FEBFFFF7FEBF94
:10208000FFF7FEBFFFF7FEBFFFF7FEBFFFF7FEBF84
:10209000FFF7FEBFFFF7FEBFFFF7FEBFFFF7FEBF74
:0420A000FFF7FEBF89
:0200000490006A
:1000000000000520599C0090D9450090DB450090E8
:10001000DD450090DF450090E145009000000000C4
:10002000000000000000000000000000719000903F
:10003000E345009000000000119100907591009040
:10004000A99C0090A99C0090A99C0090A99C00905C
:10005000A99C0090A99C0090A99C0090A99C00904C
:10006000A99C0090A99C0090A99C0090A99C00903C
:10007000A99C0090A99C0090A99C0090A99C00902C
:10008000A99C0090A99C0090A99C0090A99C00901C
:10009000A99C0090A99C0090A99C0090A99C00900C
:1000A000A99C0090A99C0090A99C0090A99C0090FC
:1000B000A99C0090A99C0090A99C0090A99C0090EC
:1000C000A99C0090A99C0090A99C0090A99C0090DC
:1000D000A99C0090A99C0090A99C0090A99C0090CC
:1000E000A99C0090A99C0090A99C0090A99C0090BC
:1000F000A99C0090A99C0090A99C0090A99C0090AC
:10010000A99C0090A99C0090A99C0090A99C00909B
:10011000A99C0090A99C0090E5450090A99C0090A6
:10012000A99C0090A99C0090A99C0090A99C00907B
:10013000A99C0090A99C0090A99C0090A99C00906B
:10014000A99C0090A99C0090A99C0090A99C00905B
:10015000A99C0090A99C0090A99C0090A99C00904B
:10016000A99C0090A99C0090A99C0090A99C00903B
:10017000A99C0090A99C0090A99C0090A99C00902B
:10018000A99C0090A99C0090A99C0090A99C00901B
:10019000A99C0090A99C0090A99C0090A99C00900B
:1001A000F1450090A99C0090FD450090A99C00900D
:1001B000A99C0090A99C0090A99C0090A99C0090EB
:0801C000A99C0090A99C00908D
:1001D00010B5054C237833B9044B13B10448AFF381
:1001E00000800123237010BD2401002000000000C6
:1001F00038F5019008B5034B1BB103490348AFF331
:10020000008008BD000000002801002038F50190A2
:1002100081F0004102E000BF83F0004330B54FEAB7
:1002200041044FEA430594EA050F08BF90EA020F24
:100230001FBF54EA000C55EA020C7FEA645C7FEAB7
:10024000655C00F0E2804FEA5454D4EB5555B8BFDA
:100250006D420CDD2C4480EA020281EA030382EA4B
:10026000000083EA010180EA020281EA0303362DDD
:1002700088BF30BD11F0004F4FEA01314FF4801CB0
:100280004CEA113102D0404261EB410113F0004FC2
:100290004FEA03334CEA133302D0524263EB430379
:1002A00094EA050F00F0A780A4F10104D5F1200E17
:1002B0000DDB02FA0EFC22FA05F2801841F1000172
:1002C00003FA0EF2801843FA05F359410EE0A5F146
:1002D00020050EF1200E012A03FA0EFC28BF4CF077
:1002E000020C43FA05F3C01851EBE37101F000452D
:1002F00007D54FF0000EDCF1000C7EEB00006EEB3A
:100300000101B1F5801F1BD3B1F5001F0CD34908C3
:100310005FEA30004FEA3C0C04F101044FEA44521A
:1003200012F5800F80F09A80BCF1004F08BF5FEAA1
:10033000500C50F1000041EB045141EA050130BD81
:100340005FEA4C0C404141EB010111F4801FA4F124
:100350000104E9D191F0000F04BF01460020B1FA79
:1003600081F308BF2033A3F10B03B3F120020CDAB1
:100370000C3208DD02F1140CC2F10C0201FA0CF08F
:1003800021FA02F10CE002F11402D8BFC2F1200CF4
:1003900001FA02F120FA0CFCDCBF41EA0C019040AA
:1003A000E41AA2BF01EB0451294330BD6FEA0404F3
:1003B0001F3C1CDA0C340EDC04F11404C4F12002DE
:1003C00020FA04F001FA02F340EA030021FA04F3F0
:1003D00045EA030130BDC4F10C04C4F1200220FA47
:1003E00002F001FA04F340EA0300294630BD21FA85
:1003F00004F0294630BD94F0000F83F4801306BF4B
:1004000081F480110134013D4EE77FEA645C18BF3E
:100410007FEA655C29D094EA050F08BF90EA020FD5
:1004200005D054EA000C04BF1946104630BD91EACD
:10043000030F1EBF0021002030BD5FEA545C05D1D0
:100440004000494128BF41F0004130BD14F580040F
:100450003CBF01F5801130BD01F0004545F0FE4183
:1004600041F470014FF0000030BD7FEA645C1ABFB8
:10047000194610467FEA655C1CBF0B46024650EAEF
:10048000013406BF52EA033591EA030F41F400211B
:1004900030BD00BF90F0000F04BF0021704730B5A1
:1004A0004FF4806404F132044FF000054FF0000176
:1004B00050E700BF90F0000F04BF0021704730B537
:1004C0004FF4806404F1320410F0004548BF40420C
:1004D0004FF000013EE700BF42004FEAE2014FEA61
:1004E00031014FEA02701FBF12F07F4393F07F4F3C
:1004F00081F06051704732F07F4208BF704793F03F
:100500007F4F04BF41F40021704730B54FF4607451
:1005100001F0004521F000411CE700BF50EA010254
:1005200008BF704730B54FF000050AE050EA0102FD
:1005300008BF704730B511F0004502D5404261EB6D
:1005400041014FF4806404F132045FEA915C3FF4AE
:10055000D8AE4FF003025FEADC0C18BF03325FEA4B
:10056000DC0C18BF033202EBDC02C2F1200300FAFC
:1005700003FC20FA02F001FA03FE40EA0E0021FA21
:1005800002F11444BDE600BF70B54FF0FF0C4CF40F
:10059000E06C1CEA11541DBF1CEA135594EA0C0FC1
:1005A00095EA0C0F00F0DEF82C4481EA030621EAFC
:1005B0004C5123EA4C5350EA013518BF52EA033537
:1005C00041F4801143F4801338D0A0FB02CE4FF0E9
:1005D0000005E1FB02E506F00042E0FB03E54FF019
:1005E0000006E1FB03569CF0000F18BF4EF0010E11
:1005F000A4F1FF04B6F5007F64F5407404D25FEA0D
:100600004E0E6D4146EB060642EAC62141EA5551BF
:100610004FEAC52040EA5E504FEACE2EB4F1FD0C01
:1006200088BFBCF5E06F1ED8BEF1004F08BF5FEA7F
:10063000500E50F1000041EB045170BD06F0004631
:1006400046EA010140EA020081EA0301B4EB5C04DE
:10065000C2BFD4EB0C0541EA045170BD41F48011D6
:100660004FF0000E013C00F3AB8014F1360FDEBFFB
:10067000002001F0004170BDC4F10004203C35DAD7
:100680000C341BDC04F11404C4F1200500FA05F35A
:1006900020FA04F001FA05F240EA020001F00042FB
:1006A00021F0004110EBD37021FA04F642EB060171
:1006B0005EEA430E08BF20EAD37070BDC4F10C049B
:1006C000C4F1200500FA04F320FA05F001FA04F25F
:1006D00040EA020001F0004110EBD37041F100014B
:1006E0005EEA430E08BF20EAD37070BDC4F1200556
:1006F00000FA05F24EEA020E20FA04F301FA05F2BE
:1007000043EA020321FA04F001F0004121FA04F265
:1007100020EA020000EBD3705EEA430E08BF20EA35
:10072000D37070BD94F0000F0FD101F0004640006F
:1007300041EB010111F4801F08BF013CF7D041EAF1
:10074000060195F0000F18BF704703F000465200F5
:1007500043EB030313F4801F08BF013DF7D043EAC6
:100760000603704794EA0C0F0CEA135518BF95EA7C
:100770000C0F0CD050EA410618BF52EA4306D1D103
:1007800081EA030101F000414FF0000070BD50EA22
:10079000410606BF1046194652EA430619D094EAAC
:1007A0000C0F02D150EA013613D195EA0C0F05D196
:1007B00052EA03361CBF104619460AD181EA0301EA
:1007C00001F0004141F0FE4141F470014FF00000A2
:1007D00070BD41F0FE4141F4780170BD70B54FF03D
:1007E000FF0C4CF4E06C1CEA11541DBF1CEA1355BD
:1007F00094EA0C0F95EA0C0F00F0A7F8A4EB05049F
:1008000081EA030E52EA03354FEA013100F0888095
:100810004FEA03334FF0805545EA131343EA12635E
:100820004FEA022245EA111545EA10654FEA002613
:100830000EF000419D4208BF964244F1FD0404F5CC
:10084000407402D25B084FEA3202B61A65EB030528
:100850005B084FEA32024FF480104FF4002CB6EBE5
:10086000020E75EB030E22BFB61A754640EA0C0065
:100870005B084FEA3202B6EB020E75EB030E22BFA5
:10088000B61A754640EA5C005B084FEA3202B6EBE6
:10089000020E75EB030E22BFB61A754640EA9C00A5
:1008A0005B084FEA3202B6EB020E75EB030E22BF75
:1008B000B61A754640EADC0055EA060E18D04FEA33
:1008C000051545EA16754FEA06164FEAC30343EAD3
:1008D00052734FEAC2025FEA1C1CC0D111F4801FA0
:1008E0000BD141EA00014FF000004FF0004CB6E799
:1008F00011F4801F04BF01430020B4F1FD0C88BF38
:10090000BCF5E06F3FF6AFAEB5EB030C04BFB6EB42
:10091000020C5FEA500C50F1000041EB045170BD35
:100920000EF0004E4EEA113114EB5C04C2BFD4EB62
:100930000C0541EA045170BD41F480114FF0000EE6
:10094000013C90E645EA060E8DE60CEA135594EA62
:100950000C0F08BF95EA0C0F3FF43BAF94EA0C0F65
:100960000AD150EA01347FF434AF95EA0C0F7FF4DA
:1009700025AF104619462CE795EA0C0F06D152EA2E
:1009800003353FF4FDAE1046194622E750EA410612
:1009900018BF52EA43067FF4C5AE50EA41047FF423
:1009A0000DAF52EA43057FF4EBAE12E74FEA410286
:1009B00012F5001215D211D56FF47873B3EB6252B1
:1009C00012D94FEAC12343F0004343EA505311F0D8
:1009D000004F23FA02F018BF404270474FF000006A
:1009E000704750EA013005D111F0004008BF6FF0A8
:1009F000004070474FF00000704700BF53B94AB93C
:100A0000002908BF00281CBF4FF0FF314FF0FF3016
:100A100000F072B9ADF1080C6DE904CE00F006F8F3
:100A2000DDF804E0DDE9022304B070472DE9F0476A
:100A3000089E04468846002B4BD18A42154667D94A
:100A4000B2FA82F24AB1C2F1200701FA02F320FAA7
:100A500007F7954047EA030894404FEA154E230CE8
:100A6000B8FBFEF71FFA85FC0EFB178843EA084324
:100A700007FB0CF1994209D9EB1807F1FF3080F020
:100A80001B81994240F21881023F2B445B1AA4B2A9
:100A9000B3FBFEF00EFB103344EA034400FB0CFCF6
:100AA000A44509D92C1900F1FF3380F00781A44532
:100AB00040F2048102382C4440EA0740A4EB0C04C5
:100AC00000271EB1D4400023C6E900433946BDE8E3
:100AD000F0878B4209D9002E00F0EB800027C6E991
:100AE000000138463946BDE8F087B3FA83F7002F96
:100AF00047D18B4202D3824200F2FA80841A61EB22
:100B0000030301209846002EE0D0C6E90048DDE747
:100B100002B9FFDEB2FA82F2002A40F08F80491B50
:100B20004FEA154E1FFA85F80127B1FBFEFC230C96
:100B30000EFB1C1143EA014308FB0CF1994207D953
:100B4000EB180CF1FF3002D2994200F2CD808446BE
:100B5000591AA3B2B1FBFEF00EFB101443EA044491
:100B600008FB00F8A04507D92C1900F1FF3302D289
:100B7000A04500F2B6801846A4EB080440EA0C40F9
:100B80009FE7C7F1200CBB4022FA0CFE4EEA030E91
:100B900001FA07F420FA0CF521FA0CF34FEA1E488B
:100BA0002543B3FBF8F92C0C08FB19331FFA8EFA16
:100BB00044EA034309FB0AF49C4202FA07F200FAF2
:100BC00007F10BD91EEB030309F1FF3080F087809A
:100BD0009C4240F28480A9F1020973441B1BADB210
:100BE000B3FBF8F008FB103345EA034400FB0AFAB4
:100BF000A24508D91EEB040400F1FF336BD2A245D5
:100C000069D90238744440EA0940A0FB0289A4EB88
:100C10000A044C45C2464B4654D351D0002E69D0ED
:100C2000B1EB0A0564EB030404FA0CFCFD40FC4044
:100C30004CEA0505C6E90054002747E7C2F1200346
:100C400020FA03F7954001FA02F021FA03F34FEA84
:100C5000154E3843010CB3FBFEF71FFA85F80EFB67
:100C6000173341EA034107FB08F38B4204FA02F40D
:100C700007D9691807F1FF3C2FD28B422DD9023FCB
:100C80002944CB1A81B2B3FBFEF00EFB103341EACC
:100C9000034100FB08F38B4207D9691800F1FF3CC0
:100CA00017D28B4215D902382944C91A40EA07479E
:100CB0003BE73746304609E70746E7E61846FBE6D6
:100CC0004145ABD2B8EB020A69EB0E02013813467C
:100CD000A4E76046E9E7184695E76746D1E781460D
:100CE0007CE702382C4447E7ACF1020C2B442FE799
:100CF000384608E73746E9E6704700BF00000000C5
:100D000001F0FF01102A2BDB10F0070F08D010F8BC
:100D1000013B013A8B422DD010F0070F42B3F6D1C0
:100D2000F0B441EA012141EA014122F007047FF0D9
:100D300000070023F0E80256083C85EA010586EA30
:100D4000010685FA47F5A3FA87F586FA47F6A5FA6C
:100D500087F68EB9EED1F0BC01F0FF0102F0070278
:100D600032B110F8013B013A83EA010313B1F8D123
:100D70000020704701387047002D06BF3546033804
:100D8000073815F0010F07D1013015F4807F02BF3D
:100D9000013015F4C03F0130F0BC0138704700BF8E
:100DA0000022026070470000054B19686329D4BF18
:100DB000013100211960006803689B68184700BF73
:100DC000400100207047704770477047704700002F
:100DD00070B5084B0646054600F5A27446F8043B7C
:100DE000A64205D054F8A03D1B6820469847F7E777
:100DF000284670BDC0F501900220704700F0F7BA98
:100E000010B50446FFF7E4FF4FF4A27120461DF031
:100E1000A1FB204610BD000008B58BB2012B05D9FF
:100E2000054B5421054A06481DF0A0FBA02301FBF9
:100E30000300043008BD00BFD0F501907CF601909E
:100E4000EBF50190044B10B50446036000F5CE703D
:100E5000FFF7BEFF204610BDC0F9019010B5044653
:100E6000FFF7F0FF40F20C4120461DF073FB2046D7
:100E700010BD000010B5044600F050FB014B2046A9
:100E8000236010BD4CF601907047704704387047DE
:100E9000704710B5044610211DF05CFB204610BDC4
:100EA000A0F10400F5E700000022C1608260044A5E
:100EB00010B502F1080420320460426010BD00BF8A
:100EC00010F70190704710B5044618211DF042FB41
:100ED000204610BD82B037B50446084606A96061B9
:100EE00081E80C000A4B1146079A2360089BE360D7
:100EF000099BC4E901122361002305680093D5F81A
:100F00009850A847204603B0BDE8304002B0704773
:100F100044F701902DE9F041436804460E468B42A8
:100F20003EDC83688B423BDB40690368D3F8A83022
:100F30009847E56823695FFA85FEC5F30748C5F35E
:100F40000727DDB26069A5EB0E05D4E90121A1EB0D
:100F5000020CC3F30741C3F307230268A1EB0801A6
:100F6000DB1BD2F8CC2091FBFCF195FBFCF593FB4D
:100F7000FCF306FB05E506FB018106FB0373EDB2FE
:100F8000090445F07F451B0201F47F019BB2294310
:100F90001943904760690368BDE8F0415B691847F1
:100FA000BDE8F08181807047C18070470181704742
:100FB0004181704770477047704770477047C388DA
:100FC000D21A8388C91A036812B209B210B45DF844
:100FD000044B1B6D1847806A7047704700F0E8BBF0
:100FE00010B50446A0211DF0B5FA204610BD000042
:100FF00010B5044600F004FC014B2046236010BDF0
:1010000054F70190704700F078BB10B504464FF4D8
:1010100086711DF09FFA204610BD000010B50446F1
:1010200000F074FB014B2046236010BDE0F70190F7
:10103000704700002DE9F0411E4C8EB0074600F0CD
:1010400065FC02AD06AE94E80F00103485E80F0091
:1010500094E80F000AAC86E80F000CAE84E80F009D
:1010600018201DF035FA804696E803008DE803004D
:1010700007F51271404694E80C00FFF72BFFC7F804
:10108000708A95E80F0084E80F0018201DF020FA00
:10109000054696E803008DE8030007F580712846B1
:1010A00094E80C00FFF716FFC7F8745A0EB0BDE8BD
:1010B000F08100BF50F50190D0F8740AFFF72ABF05
:1010C00038B5414D04462868C30726D4FFF7F2F926
:1010D0003BA3D3E90023FFF781FBFFF767FC014641
:1010E00004F2047008F09CFE2968032304F2E47003
:1010F000C1F1640191FBF3F108F092FE2A68192313
:1011000004F2445092FBF3F103FB112108F088FE36
:10111000296804F2246008F083FE2968322204F56D
:10112000557091FBF2F302FB1313182BC9BF274B29
:101130004FF0FF33C4F87C33A3F5E523DBBFC4F8DD
:101140007C33234BA3F20D531B68C4F880330FF09C
:101150000DF82968232204F5627091FBF2F302FB7B
:1011600013130E2BD7BF4FF0FF331A4BC4F8B03315
:10117000174BCABFC4F8B0331B68174BC4F8B4335D
:101180000EF0F4FF2B68154A0A2104F64C2011F0EA
:101190003DF904F58C600EF0E9FF2B68104A632BD3
:1011A00006DD00211170127832B101332B6038BD99
:1011B000002BF8DC0121F5E7013BF7E7AFF30080F6
:1011C000CDCCCCCCCCCCFC3F4801002038C31FFF99
:1011D000440100201FC3FFFF1499FFFF64F8019032
:1011E0004C01002010B5044600F0E0FB014B204606
:1011F000236010BD70F80190014B024A1A607047DD
:1012000044010020383838FF044B10B50446036011
:1012100000F6C4000AF024F8204610BD10FC01902E
:1012200010B50446FFF7F0FF40F6782120461DF088
:1012300091F9204610BD7047043870477047C06868
:101240000368DB6A1847A0F10400FFF7F8BF10B588
:10125000044610211DF07EF9204610BDA0F10400C7
:10126000F5E700000022C1608260044A10B502F177
:10127000080424320460426010BD00BFA0F8019051
:10128000704700F596730868496803C37047704754
:1012900010B504464FF4AC711DF05CF9204610BD4A
:1012A00010B50446D0F85401FFF77EFD2046BDE896
:1012B00010400DF0BBBE10B50446D0F83C0158B14B
:1012C0000368DB68984738B1D4F83C0103689B6831
:1012D00098470023C4F83C3110BD000010B5044607
:1012E00001F050F9014B2046236010BDD8F8019061
:1012F000002070474FF6FF7383814FF0FF33036286
:101300001368C361106070477047704790F82520DC
:101310001AB190F8242002B11860704790F82C00A0
:101320007047704770470000044B10B504460360D7
:1013300000F5CE70FFF74CFD204610BDC0F90190BE
:101340007047F0B4C768846846687D10F80706EBFC
:10135000050C44BF705904596046A446F0BC604770
:1013600043682BB183682BB9C06800F00100704757
:10137000184670470120704730B4C568034644687A
:101380006A10ED079B6804EB020048BFA25830BC0E
:1013900048BFD358184743682BB183682BB9C0683E
:1013A00000F001007047184670470120704710B5E3
:1013B000044640211DF0CEF8204610BD10B504466D
:1013C00010211DF0C7F8204610BD10B504461021AD
:1013D0001DF0C0F8204610BD10B50446FFF7A4FF6D
:1013E00040F20C4120461DF0B5F8204610BD10B566
:1013F000044600F5827009F060F904F5D070FFF73B
:10140000EDFDD4F8403204F51070D3F880309847E1
:1014100004F53870BDE81040FFF7F5BD10B504467F
:10142000806A50B10368DB68984730B1A06A2146F2
:101430000368BDE810409B68184710BD70B50446AE
:1014400000F5CE701E4688420BD11146FFF7E4FC32
:10145000236832460146DD6A20462B46BDE87040CF
:10146000184770BD70B504460D460BF0BBFBE06B32
:1014700058B10368DB68984738B1E06B2A462146CB
:101480000368BDE870409B68184770BD983088427B
:1014900008B505D10DF0ACFEBDE8084001F0B6B8C6
:1014A00008BD70B5036804461546DB6A9847236893
:1014B000294620461B6BBDE87040184770B50446AE
:1014C0001E46BDF91050FFF7ECFF23683146204659
:1014D0005A6B90472368294620469B6BBDE87040B5
:1014E000184700000121002280F825100A49828057
:1014F0000160FF21C280028142818281C281028219
:101500004282C2610284428480F8242080F826103E
:101510008262C0E905227047B01F02902DE9F04FAA
:10152000044689B000250FF0EBF92746694B04F11A
:101530006C0A04F19808E56304F1D80647F8403BCB
:101540003846FFF7CFFF5046FFF7CCFF40460CF080
:1015500053F94FF0010B604B3046C4F8D45004F5FA
:101560003879C4F8983084F8BCB009F0FBFA5B4BCA
:1015700004F5D070C4F89C3104F5CE730393FFF7E3
:1015800037FD04F51070FFF733FD4846FFF746FDC1
:10159000534BC4F8F8532A46C4F8EC332946514B50
:1015A0003846C4F80854C4F8F4334F4BC4F8F04339
:1015B000C4F8FC334D4BC4F80044C4F804344FF471
:1015C000887300934FF4F073FFF778FF4FF07F4379
:1015D0002A462946A3664FF48873504600934FF479
:1015E000F073FFF76BFF424B2A462946C4F894304C
:1015F0004046FFF756FF022305AA04A9ADF81830AC
:101600004046ADF81C3007ABADF81050009306AB68
:10161000ADF814B00CF04DF816232A46304644219C
:10162000A4F8D0300F23A4F8D23004F57B73C4F8AB
:10163000C0303C23009340F29313FFF73FFF29464D
:10164000304609F096FC2946304609F0E9FC304660
:10165000284909F0D2FB30460A2109F0D1FB304677
:101660000A2109F0D0FB3046072109F043FB2A4646
:101670002946304609F088FA2946304609F09CFA96
:101680002A4630463B21251D09F0B0FB04F57F7248
:101690000399304609F096F949224846DD21FFF7C3
:1016A00000FF394628460AF0BDF9514628460AF09F
:1016B000B9F9414628460AF0B5F9314628460AF0FC
:1016C000B1F9284649460AF0ADF9204609B0BDE80F
:1016D000F08F00BFC0F901901CF90190C0F5019096
:1016E00090F901908D140090A8F901903D1400909C
:1016F0000000FFFF090C01907047704710B50446C9
:101700004FF486711CF026FF204610BD7FB50123E3
:1017100000250646044680F82530214B8580C5808B
:10172000058145818581C58105824582C561058424
:10173000458480F824508562C0E9055546F82C3B65
:10174000304608F0FBFB174B02223046A360B4235F
:10175000114625630093232308F04AFB64222B469D
:1017600029463046009508F0F7FC3046032108F082
:101770003CFC042304A9304621F8043D08F094FD04
:101780003046094908F01EFB30463C2108F048FB72
:10179000204631460AF046F9204604B070BD00BF2D
:1017A000F8F901902700B800FF9700FF70477047D5
:1017B000704710B5044608211CF0CCFE204610BD31
:1017C00010B50446A0211CF0C5FE204610BD000047
:1017D0000A4A026000228280C280028142818281A4
:1017E000C28102824282C2610284428480F8242043
:1017F000C0E90522012280F82520704720250290AB
:101800002DE9F043044685B00025FFF7E1FF2646A9
:10181000384B4FF026092946A5624FF6FF7746F868
:101820002C3B4A46304604F164081CF01CFF30464D
:10183000FFF7CEFF01234A46294684F85030404640
:101840002D4BA4F85A70E362A4F85C7084F85E70C3
:10185000A4F86070656584F858501CF004FF404699
:10186000FFF7B6FF254BDFF8A090304663664FF4D4
:101870007F03A4F890704FF48471C4F8983004AFDB
:101880001F4BC4F88C90A360C4F8945084F89C500B
:1018900084F89D50FFF786FB30460A21FFF784FB52
:1018A000052301A93046ADF80430062327F8083D8A
:1018B0003A46A4F860300BF098FC124B394640468B
:1018C000A3664FF07F43A4F89850C4F894300923DE
:1018D000CDF80890ADF80C300BF047FC31462046AF
:1018E0000AF0A0F8204641460AF09CF8204605B0D0
:1018F000BDE8F08394FA01902C1E0290081F02901C
:1019000093013B000B00110084FA0190704770476F
:1019100030B4C568034644686A10ED079B6804EB61
:10192000020048BFA25830BC48BFD358184743688C
:101930002BB183682BB9C06800F0010070471846CE
:1019400070470120704710B5044610211CF002FEBC
:10195000204610BD00F60C20884208B505D10DF0D8
:1019600047FCBDE8084000F061BE08BD10B5044664
:10197000262200211CF077FE2046FFF729FF094BA5
:101980004FF47F0220462360074BA3624FF6FF739C
:10199000A3850023C4E90C3284F8383084F8393048
:1019A00010BD00BF081F029084FA01902DE9F04F8E
:1019B0000446A3B000250EF0A3FF2246DE4BE563EC
:1019C00004F1C40A42F8403B10461892FFF78AFD22
:1019D00004F16C03D94E04F5807804F512771846AB
:1019E0001993FFF77FFD04F19803DFF8709304F675
:1019F000C40B18460D93FFF7EBFEC4F898605046F1
:101A0000C4F8C050FFF7B2FF404608F097FA04F55B
:101A1000F07318460E93FFF7DBFE04F50373C4F86A
:101A2000E0611846C4F808521193FFF79FFF38464B
:101A300008F084FA04F54A7318460C93FFF7C8FEC1
:101A400004F55573C4F828631846C4F850531A9324
:101A5000FFF748FD04F56273C4F85493C4F880534B
:101A60001846A4F884531B93FFF73CFD04F56F73ED
:101A7000C4F88893C4F8B4534FF07F491846A4F8CB
:101A8000B8531293FFF772FF04F57E731846139351
:101A9000FFF76CFF04F2344318460F93FFF798FEEC
:101AA00004F58C63C4F834641846C4F85C54149389
:101AB000FFF75CFFA24BC4F89C54C4F8603404F5F3
:101AC000946318461593FFF751FF04F2DC43184660
:101AD0000B93FFF77DFE04F5A163C4F8DC644FF0BF
:101AE00001061846C4F804551693FFF73FFF04F2A9
:101AF00044531846079308F021FA04F22463184669
:101B0000089308F01BFA04F204731846099308F0CE
:101B100015FA04F2E47318460A9308F00FFA5846CF
:101B200009F076FD04F6D4132946262218461093B0
:101B30001CF099FD1098FFF74BFE4FF6FF73814A9A
:101B4000A4F8023AA4F8043A84F8063AA4F8083A49
:101B500004F60C2384F8F869C4F8D4291846C4F8AC
:101B6000FC5984F8005A17930BF046FE764B2A4630
:101B700084F8306A4FF48876C4F80C3A2946734BDF
:101B80000096C4F8603A724B1898C4F8683A4FF45B
:101B9000F073C4F8485AC4F8644AC4F86C5AFFF7A2
:101BA0008DFC00964FF4F0732A4629461998C4F824
:101BB000689020AEFFF782FC4FF0FF332C222946BD
:101BC000C4F89430CE230D9800938823FFF776FC59
:101BD0005046C2220C21FFF764FC5E4B4FF004021A
:101BE00050463146C4F8F490A4F8F8502093ADF86C
:101BF00084200BF0BAFA51460D9809F013FF4046C5
:101C00002A462D21FFF74DFC0222B4214046232312
:101C10004FF0050A0091114608F0EAF82B466422BD
:101C200040462946009508F097FA4046032108F0FF
:101C3000DCF94FF0040240463146ADF8802008F050
:101C400033FB4046444908F0BDF840463C2108F0CB
:101C5000E7F841460D9809F0E5FE48232A4694210D
:101C60000093B8230E98FFF729FC0D223D2111980F
:101C7000FFF717FC374B4FF0080231461198C4F8B4
:101C80003C92A4F840522093ADF884200BF06DFAFA
:101C900011990E9809F0C6FE38461D222946FFF715
:101CA00000FC0222232338461146DFF8B48000935B
:101CB000B42308F09DF82B46642238462946009547
:101CC00008F04AFA3846294608F08FF94FF0070223
:101CD00038463146ADF8802008F0E6FA38461E490D
:101CE00008F070F838463C2108F09AF839462C275D
:101CF0000E9809F097FEC2230097E4228F210C98DA
:101D0000FFF7DCFB32232A46009729461A98FFF793
:101D1000D5FB4FF0FF31C4F88083C4F87C130C98D6
:101D20001A99A4F884A309F07DFE32232A4600976D
:101D300090211B9816E000BF10FC0190C015029086
:101D40001C2102902C1E02901CF9019020FB019096
:101D50005519009084FA0190FF9700FFC42102906A
:101D6000242424FFFFF7AAFB4FF0FF31C4F8B4830B
:101D700004F64C28C4F8B0130C981B99A4F8B8A327
:101D800009F050FE1022A2211298FFF78AFB264F7D
:101D90004FF0070231461298C4F8EC93A4F8F053C0
:101DA000ADF8842020970BF0E0F912990C9809F017
:101DB00039FE112213211398FFF773FB4FF006032E
:101DC00031461398C4F82894A4F82C54ADF8843004
:101DD00020970BF0CAF913994E270C9809F022FEB0
:101DE0006723612294210093B8230F98FFF766FBC5
:101DF000B82300972A4629461498FFF75FFB0B4B40
:101E0000C4F890941B68A4F894542BB9084BAE21E5
:101E1000084A09481CF0AAFB084B1B88022B11D862
:101E2000074BAF21034AF4E784FA0190702A01209E
:101E300030FB01903CFC019072FB0190742A012060
:101E4000B3FB0190C64B0221186801F09FF8C54A08
:101E500003460A21404610F0D9FAC34B4FF0010265
:101E6000C4F89C843146149820934FF06408ADF870
:101E700084200BF07AF914990F9809F0D3FD3A46B3
:101E800015984221FFF70DFB0327B74B3146C4F8E5
:101E9000D094A4F8D45415982093ADF884700BF026
:101EA00064F915990F9809F0BDFDEB230B981622E4
:101EB00000934FF4C6714523FFF700FBDF2229464C
:101EC0001698FFF7EEFAA84BC4F838953146A4F8F7
:101ED0003C554FF0090916982093ADF884A00BF0FB
:101EE00044F916990B9809F09DFD2A460798282178
:101EF000FFF7D7FA022207980F231146CDF800808A
:101F000007F076FF2B46424600952946079808F0D1
:101F100023F93946079808F068F831460798ADF874
:101F2000809008F0C1F90798904907F04BFF079897
:101F30003C2107F075FF07990B9809F073FD2A46BD
:101F400049460898FFF7ADFA022208980F23114678
:101F5000CDF8008007F04CFF2B46424600952946FD
:101F6000089808F0F9F83946089808F03EF8314624
:101F70000898ADF8809008F097F908987B4907F029
:101F800021FF08983C2107F04BFF08990B9809F0B6
:101F900049FD099870222821FFF783FA0222099847
:101FA0000F231146CDF8008007F022FF2B46424652
:101FB00000952946099808F0CFF83946099808F0A5
:101FC00014F831460998ADF8809008F06DF9099839
:101FD000664907F0F7FE09983C2107F021FF0999AF
:101FE0000B9809F01FFD49460A987022FFF759FA2D
:101FF00002220A980F231146CDF8008007F0F8FE60
:102000002B464246009529460A9808F0A5F839461D
:102010000A9807F0EAFF31460A98ADF8809008F078
:1020200043F90A98514907F0CDFE0A983C2107F080
:10203000F7FEDDE90A1009F0F5FC4FF008031EA9D0
:102040004022ADF878300A2358460096ADF87C302F
:10205000ADF88030CE23CDE90155CDE903321FAB79
:102060000A46294609F044FA2946584609F022F85A
:102070005846072108F0F6FF2946584608F0FDFFAC
:1020800058463B4909F010F85846122109F006F865
:102090005846B42108F0FCFF2A4629465846FFF767
:1020A00000FA109814220821FFF7FBF94FF00603FD
:1020B00032461FA9A4F8083A1098ADF88030ADF860
:1020C0007CA00BF092F81099584609F0AEF85246F1
:1020D000179840F29F11FFF7E4F94FF001021FAB90
:1020E0001DA9ADF878201EAA17980096ADF8745077
:1020F000251DADF87C70ADF880700BF0DAFA0F2377
:1021000017995846A4F8443AA4F8463A04F52663C9
:10211000C4F8343A09F089F81899284609F082FC85
:102120001999284609F07EFC0D99284609F07AFC99
:102130000E99284609F076FC0C99284609F072FCA5
:102140000F99284609F06EFC0B99284609F06AFCA5
:102150002846594609F066FC204623B0BDE8F08FBA
:102160007C2A012005FC019084FA0190FF9700FF72
:10217000F30C0190044B10B50446036000F6C40054
:1021800009F06EF8204610BD10FC019010B5044611
:10219000FFF7F0FF4FF4276120461CF0DBF92046E3
:1021A00010BD70477047416070477047012303724C
:1021B000704770477047704710B40A680B4600219B
:1021C000146DB0F92020184623465DF8044B1847DB
:1021D00070477047704770470B680846024A0021F5
:1021E0001B6DB2F900201847162A012030B4C568CB
:1021F000034644686A10ED079B6804EB020048BF81
:10220000A25830BC48BFD358184743682BB18368E5
:102210002BB9C06800F001007047184670470120D4
:102220007047436800F124011A681846126E10477F
:102230001FB50A4B04461C226946CDE900304068B0
:102240000123CDE9022303685B6F9847606804F1BE
:1022500024010368DB6D984704B010BDF4FC0190C5
:10226000044B08461A880B68002152421B6D12B2BB
:10227000184700BF162A0120704710B50022B1F997
:102280000840B1F90A10028042808480C18010BDEC
:1022900030B4C568034644686A10ED079B6804EBD8
:1022A000020048BFA25830BC48BFD3581847436803
:1022B0002BB183682BB9C06800F001007047184645
:1022C00070470120704710B4C4680346416862102B
:1022D000E4079B6801EB020048BF8A585DF8044B95
:1022E00048BFD358184743682BB183682BB9C068DF
:1022F00000F001007047184670470120704710B584
:1023000004460C211CF026F9204610BD10B50446E9
:102310004FF4AC711CF01EF9204610BD10B50446F8
:1023200010211CF017F9204610BD10B504462821D5
:102330001CF010F9204610BD10B5044654211CF0C5
:1023400009F9204610BD10B5044610211CF002F911
:10235000204610BD10B504464C211CF0FBF8204669
:1023600010BD10B5044610211CF0F4F8204610BD35
:1023700010B50CF03DFF0368BDE810401B6B18471B
:1023800010B4826B0B468A4209D00A680021146D92
:10239000B0F95020184623465DF8044B18475DF805
:1023A000044B7047054B1B783BB143682BB11A684F
:1023B00000F10C011846126E104770471F2A0120C9
:1023C0001F4B10B51B78044613B90123037210BDCF
:1023D00090F84D0094F84C300130C0B2984284F827
:1023E0004D0024D8B4F94E2000210EF04DFC83B2EC
:1023F00013F0010221D04FF6FF710028D8BF0A4622
:102400001344A4F85030B4F8502004F10C00638A4F
:102410000021D21A12B2A4F850200DF0D7FE606845
:1024200004F13C010368BDE810405B6F18470123CD
:102430002372002384F84D30C9E7A4F85000E2E786
:102440001F2A01201FB50C4B04461B788BB10B4B88
:102450001C226946CDE9003040680123CDE9022302
:1024600003685B6F9847606804F10C010368DB6DDB
:10247000984704B010BD00BF1F2A01209CFD0190A9
:1024800070B50368044615465B6B98472368294678
:1024900020469B6BBDE8704018470000044B1B684A
:1024A00093F876200AB1D86C00B99868704700BFDD
:1024B000202A01202DE9F0410446407F86B00130FA
:1024C000237FC0B2984260774AD8B4F91E20002119
:1024D0000EF0DAFB83B213F0010248D04FF6FF7121
:1024E0000028D8BF0A4613442384B4F92010638C13
:1024F0006184CB1A617F9BB201291AB2228428D150
:102500001C49097829B31C4F0025ADF80A201B4E41
:102510003A88ADF80850ADF80C203288D31AADF8DF
:102520000E30174B18680368DB6A98473B88804673
:102530000495ADF814303388ADF81630FFF7AEFFD0
:10254000FF22036841460195009204AADD6802ABB0
:10255000A847606804F10C0103685B6F984703E0CB
:10256000012323720023637706B0BDE8F081208445
:10257000BBE700BF1E2A0120142A0120162A0120D1
:10258000202A0120F8B5044617460E460CF09AFEA4
:10259000124B0025C4F850711C602946104BC4F83A
:1025A000385123600F4BC4F83C51C4F840310E4BF6
:1025B000C4F844511868C4F84851C4F84C51C4F8E0
:1025C000546103689B689847284600F0A5FCFFF714
:1025D00065FF14F074FE2046F8BD00BF6C2A012090
:1025E0008CFC019074FC0190202A0120064BC0F85D
:1025F0004401C0F848310023C0F84C3100F5A07305
:10260000C0F83C31704700BF8D270090064BC0F8E2
:102610004401C0F848310023C0F84C3100F5A073E4
:10262000C0F83C31704700BF59290090064BC0F8F4
:102630004401C0F848310023C0F84C3100F5A073C4
:10264000C0F83C31704700BF352B00902DE9F047B2
:10265000074690689946884603681546DDF820A02D
:102660001B6A984740F67723984205D8414BA3212F
:10267000414A42481BF07AFF686803681B6A984722
:102680000F2803D83E4BA4213B4AF2E7E8680368D1
:102690001B6A98470B2803D83A4BA521364AE8E72E
:1026A0000CF0A6FD0CF0F2FDD9F8000010B10368A3
:1026B000DB689847D9F8000010B103681B68984799
:1026C000386810B103685B699847D8F8000010B10A
:1026D00003685B689847386810B103681B689847BF
:1026E000D8F8000010B103689B689847E86800219B
:1026F00003685B6A9847044620B100234360037275
:10270000214B0360A868002103685B6A984706466E
:1027100008B1FEF767FD6868002103685B6A9847A7
:10272000054610B13146FEF79DFDC9F80040C8F8D6
:1027300000503E60E5B12B1DCAF800303046C5F8A8
:1027400008A03368F563DB6898472B6828461B6848
:102750009847214630460EF050FA236820461B6900
:102760009847236820465B6998472846BDE8F0876C
:102770002B46E1E7D8FD01900E01029066FE019024
:10278000A7FE01904AFF0190D0FC019007B5D0F858
:10279000543100F59C710093044BD0F8502104484B
:1027A000FFF754FF03B05DF804FB00BF602A01206F
:1027B0005C2A01202DE9F84F074690689946884623
:1027C000036815461B6A984740F67723984205D858
:1027D000574BA321574A58481BF0C8FE6868036846
:1027E0001B6A98470F2803D8544BA421514AF2E79B
:1027F000E86803681B6A9847532803D8504BA52103
:102800004C4AE8E70CF0F4FC0CF040FDD9F800006D
:1028100010B10368DB689847D9F8000010B103686D
:102820001B689847386810B103685B699847D8F807
:10283000000010B103685B689847386810B10368FE
:102840001B689847D8F8000010B103689B68984748
:10285000E868002103685B6A9847044680B34FF03C
:10286000000B0646374BC0F804B080F808B046F8B5
:102870000C3B30460AF072FA334B2022A663A4F8D0
:1028800050B0C4E90F340123C4E911231423A4F880
:102890004C302E4B1B789BB12D4B3046DFF8B4A04B
:1028A000B3F90010BAF90020C4F810B0FFF7E8FD42
:1028B00030460AF0CEF9BAF800305B42A4F84E3048
:1028C000A868002103685B6A9847064608B1FEF7CE
:1028D00089FC6868002103685B6A9847054610B167
:1028E0003146FEF7BFFCC9F80040C8F800503E6012
:1028F000DDB12B1D0A9A30461360AA603368F56378
:10290000DB6898472B6828461B6898472146304665
:102910000EF073F9236820461B6998472368204608
:102920005B6998472846BDE8F88F2B46E2E700BF71
:10293000D8FD01901602029066FE0190A7FE01905C
:102940004AFF0190B4FD01909CFD01901F2A0120D7
:10295000142A0120162A012007B5D0F8543100F5B9
:102960009C710093044BD0F850210448FFF722FFDC
:1029700003B05DF804FB00BF602A01205C2A01203F
:102980002DE9F84F074690689946884603689346B4
:10299000DDF828A01B6A984740F20B43984205D8FF
:1029A0005A4BA3215A4A5B481BF0E0FDDBF80400B8
:1029B00003681B6A98470F2803D8574BA421544A31
:1029C000F1E7DBF80C0003681B6A98474B2803D833
:1029D000524BA5214E4AE6E70CF00AFC0CF056FCDF
:1029E000D9F8000010B10368DB689847D9F80000F7
:1029F00010B103681B689847386810B103685B69B9
:102A00009847D8F8000010B103685B6898473868A9
:102A100010B103681B689847D8F8000010B103682C
:102A20009B689847DBF80C00002103685B6A9847B5
:102A30000446002830D03A4B0126002528220360A6
:102A4000384B2946456005720562C0E903302023F2
:102A5000C0E905361423838300F1240318461BF0D4
:102A600002FE314A31496262314A2585B2F90020BD
:102A70006585A585E58525866586A586E586A4F810
:102A80004450A4F8465084F8485084F84960E283E2
:102A9000B1F90010FFF7F4FCDBF80800002103682F
:102AA0005B6A9847064608B1FEF7E4F9DBF80400D4
:102AB000002103685B6A9847054610B13146FEF76E
:102AC000F3F9C9F80040C8F800503E60E5B12B1D8D
:102AD000CAF800303046C5F808A03368F563DB68F3
:102AE00098472B6828461B689847214630460EF0C9
:102AF00084F8236820461B699847236820465B6951
:102B000098472846BDE8F88F2B46E1E7D8FD0190AD
:102B1000EDFF019066FE0190A7FE01904AFF019033
:102B200070FD0190F4FC01900CFD0190142A01202D
:102B3000162A012007B5D0F8543100F59C71009396
:102B4000044BD0F850210448FFF71AFF03B05DF89A
:102B500004FB00BF602A01205C2A0120704710B5E9
:102B6000044628211BF0F6FC204610BD30B5164D5A
:102B70008DB02C78BFF35B8F14F0010421D128466F
:102B80001BF0B7FCE8B15823042210490793104BFF
:102B9000089406930F4B03940F48CDE90443012397
:102BA000CDE90944CDE9012300930B22452300F030
:102BB00063F828461BF0A9FC084A094906481BF09F
:102BC000C4FC05480DB030BD50010020000010903D
:102BD000043A02903C0302905401002000000020BF
:102BE0005D2B009013B5002249B102AB019203F8AE
:102BF000052D0268946801AAA04702B010BD0846DE
:102C0000FBE74089704780897047808870478379E7
:102C10008088184480B27047C07900F07F00704708
:102C2000C079C0097047006A7047406A70478B8856
:102C30008069DB0A0A6850F823001044704710B519
:102C4000C2B1137BB3B1547BD27A240204F4E064A2
:102C50001443C26998B202EB840213888B4202D1FA
:102C600092F9020010BD05D80138043280B2002864
:102C7000F3D1F7E70020F5E730B589B00446BDF899
:102C800050500695BDF84C5005959DF84050049560
:102C90009DF83C5003959DF8385002959DF83450AE
:102CA00001959DF8305000950DF020FB064B204615
:102CB0002360119BA361129BE361159B2362169B0A
:102CC000636209B030BD00BF4803029030B5174DB4
:102CD0008DB02C78BFF35B8F14F0010422D128460D
:102CE0001BF007FCF0B13F23042211490793114B5D
:102CF00008940693104B114805930123CDE9034333
:102D000002930223CDE90944CDE900321D220A23B2
:102D1000FFF7B2FF28461BF0F8FB094A09490748AC
:102D20001BF013FC05480DB030BD00BF7C01002036
:102D3000F4301090FC39029098030290800100203A
:102D4000000000205D2B009030B5164D8DB02C7822
:102D5000BFF35B8F14F0010421D128461BF0C9FB9F
:102D6000E8B158231B2210490793104B089406938F
:102D70000F4B1048CDE904430123CDE9023304236E
:102D8000CDE90944CDE900331423FFF775FF284648
:102D90001BF0BBFB084A094906481BF0D6FB054857
:102DA0000DB030BDA801002034351090003A0290DB
:102DB0009C030290AC010020000000205D2B0090DD
:102DC000704710B5044604211BF0C4FB204610BD1B
:102DD000012908B508D003D3022909D0002002E058
:102DE00000F012F8006808BD00F00EF84068FAE73D
:102DF00000F00AF88068F6E700487047B4030290D4
:102E00000B2070470A20704700487047D40100200B
:102E100010B5054CFFF798FF2060FFF7A7FE606034
:102E2000FFF754FFA06010BDD401002000207047C0
:102E3000002070470EB403B503AB002153F8042BF8
:102E400001930DF071F802B05DF804EB03B0704728
:102E50000CB407B504AB53F8042B01930DF064F8E0
:102E600003B05DF804EB02B07047000010B5C36B0F
:102E7000044673B3038E2BB9184BBF21184A194867
:102E80001BF074FBC38D00EB43035B8B0BB30EF0A5
:102E900005FD238E012B03D8134BC421134AEEE703
:102EA000E28D40F63F10531C9BB2092B194688BF98
:102EB000A3F10A0104EB4101498B814209D10A2B9C
:102EC00004EB420228BF0023508B04EB43035883DA
:102ED00051832046BDE810400EF0C4BB9004029020
:102EE000BD05029099040290DD040290EB0402906B
:102EF0000EF072BB10B586B002AC84E806001A462C
:102F00000AAB214605930193099B0093089B0BF0A4
:102F100039FD06B010BD000038B5D8B9114B1248C4
:102F20001B681249BBB11A689C681A441C440260B1
:102F30005A681A440A606CB10D4B00221A80FFF7E0
:102F400063FF0546FFF75EFF0A4B1C600A4B1D60DE
:102F50000A4B188038BD0A4B03600A4B0B600A4BC2
:102F60001C68E8E7E0010020E4010020E8010020FF
:102F7000EC010020702A0120782A0120742A012007
:102F800004371090B0361090EC361090044B1B684C
:102F900053F82100034B1B6803EB4000704700BF50
:102FA000E8010020E4010020012380F8741080F87B
:102FB000753070470020704700207047836B0BB15D
:102FC0000846184770474FF6FF707047406803681F
:102FD0009B69184770477047034B902283F85A2328
:102FE00083F85823704700BF00E100E0094A0A490E
:102FF000D3680A48C3F30A03013B9BB20B801169F3
:10300000C1F30A01013901801364536B43F00103DA
:103010005363704700680140F0010020EE0100207A
:10302000014B986A704700BF84680140024B01223F
:10303000996243F8602C70478468014070B504467B
:1030400008F083FE2368DD6D0CF0D2F801462046BF
:10305000A84723682046054AD3F880504FF04041E6
:103060000023AC46BDE87040604700BF00FC03C0D1
:1030700008B531B90A4B4FF425710A4A0A481BF0CA
:1030800075FAC0E90F1200324364084918BF0122E3
:1030900000330A7018BF0123054A137008BD00BF32
:1030A00068060290DF060290A00602901E2A012008
:1030B0001F2A012008F0FCBD10B5044609F014FCDD
:1030C00023682046D3F8A030BDE81040184790F898
:1030D00077301BB1406803681B6818471846704773
:1030E00030B590F8744090F83410104B8C421A7838
:1030F0000DD05AB90E4A0F4914880F480C80018828
:103100000E4D11800122298004801A7030BD002AE2
:10311000FCD00948074A0188084D1180044A1488E8
:10312000118000222C800480EFE700BF182A0120C4
:10313000142A01201A2A0120162A01201C2A012003
:10314000034B4FF080629A604FF080729A60704734
:1031500000E100E0084B4FF08062C3F88820BFF325
:103160004F8FBFF36F8F4FF08072C3F88820BFF38B
:103170004F8FBFF36F8F704700E100E0134B144A8D
:1031800010B51B6C1188134C8B4213D1124B19884C
:1031900002F02AF9226892F86630013382F866302C
:1031A00000F062FA206809F09FFB0020BDE81040A3
:1031B00000F0CBBC02F018F9002000F0C7FC20683A
:1031C0000368BDE81040DB69184700BF0068014094
:1031D000F0010020202A0120EE010020134A0023E4
:1031E000F0B5C2F88430BFF34F8FD2F8803043F689
:1031F000E076C3F3C904C3F34E33A5075B0103EACA
:10320000060C284621464CEA0007013900F14040EF
:10321000C2F874724F1CF6D1203B13F1200FEED18F
:10322000BFF34F8FBFF36F8FF0BD00BF00ED00E025
:1032300003685B6C18470020704703689B6A184757
:1032400040F26F307047000010B5074C074B204626
:10325000236003F048FB064B4FF080622361054B6F
:103260006361054B9A6010BD7C2C012000B00240C8
:10327000993200907D32009000E100E008B5034AE9
:103280003E21034B03481BF071F900BFA4070290D5
:10329000362E02902D07029010B5FFF79FFF044BCA
:1032A0001B6858680368BDE810405B69184700BF99
:1032B000202A0120084B10B503600446074803F09C
:1032C000DFFB074B4FF08062C3F88820BFF34F8FBE
:1032D000BFF36F8F204610BD5C0702907C2C01204D
:1032E00000E100E010B50446FFF7E4FF4FF442614F
:1032F00020461BF02FF9204610BD00002DE9F341B8
:103300000D680C46202D00F0A580402D00F0A28015
:103310002A1F56425641B5F5807F00F09D80A5F5E5
:1033200000735D425D41FFF7B9F803681B6A984777
:103330002368402B00F0A88000F29080042B00F05E
:103340009C80202B00F0A08010284FF0000114BFBB
:103350004FF0010C4FF0020C524B1028A28AB4F827
:103360001A8018BF0127D3F800E008BF0227A8EB96
:10337000020859609F60C3F80C80DEF8002022F438
:1033800040321143CEF80010D3F800E0C3F82CC04F
:10339000DEF8341021F007013943CEF83410DEF89E
:1033A000402022F47F5222F03F0242EA0802CEF887
:1033B0004020228BA18A521A9A620EB9002D34D075
:1033C000227FFF2A17BF022200221A63227F0CBF2E
:1033D0001A635A6305B3227F1028E1684FEA02603E
:1033E00055D1C1F3C4224FF01F0EC2EB0222B2FB33
:1033F000FEFC01EA0E02C1F34511C2EB0222C1EB51
:103400000121B2FBFEF202433F20B1FBF0F142EAA0
:103410000C4242EA01225A63A18A628B2148521A65
:103420000021C3E9062703F0F7FB01211D4803F043
:10343000F3FBFFF7D3FEA38AE28A06B955B36168AE
:103440001848CDE9003223691A4603F099FA02B010
:10345000BDE8F081012662E7012564E7B3F5807FCE
:1034600006D0B3F5007F7FF46FAF4FF0090C01E099
:103470004FF00A0C4FF400316EE7102814BF4FF0E4
:10348000010C4FF0020CF5E74FF0000CF2E701439E
:103490005963C1E7009261682269024803F051FA5A
:1034A000D5E700BF7C2C0120F7B50D46FEF7F6FFEF
:1034B00003681B6A98471028EB68297F73D103F0D3
:1034C0001F021F20C2EB0222B2FBF0F4C3F3C4229E
:1034D00044EA0164C3F34513C2EB0222C3EB0323A6
:1034E000B2FBF0F244EA02443F22B3FBF2F30222C1
:1034F00044EA03242B682E48082B6F8BAB8A0CBF41
:103500004FF400364FF44036FF1A0368B6F5003F1B
:10351000C760C0E90162196821F4403141EA06013F
:103520001960D0F800C0DCF8341021F0070141EA3E
:103530000201CCF83410DCF8403023F47F5323F040
:103540003F0343EA0703CCF8403021D10123C0E90F
:103550000C340923C362A98A6B8B5B1A0021C0E972
:10356000063203F059FB0121114803F055FBFFF728
:1035700035FEB6F5003FAB8AEA8A0DD129690C48C1
:10358000CDE900320B460A4603F0FAF903B0F0BD6C
:103590000023C2628362E6E7009221462A6904485A
:1035A00003F0CFF9F2E743EA01640122A2E700BF8A
:1035B0007C2C012070B505460A4B0C3000262C46A9
:1035C000602268602E726E7244F8203B214609F03A
:1035D000F9FA05F54263E6602034A342FBD12846A0
:1035E00070BD00BF5C0702900121002208B50846AB
:1035F00005F046FA0A4B186028B90A4B25210A4AF9
:103600000A481AF0B3FF00220421012005F002FB52
:10361000074B186018B9074B2921034AF0E708BD8A
:10362000F8010020D70702908B0802902008029032
:10363000F401002049080290024B4FF0FF31186856
:1036400005F074BAF8010020014B186805F0AABA19
:10365000F8010020024B0021186805F067BA00BF8E
:10366000F8010020FFF7F0BF0023034803491A4682
:10367000006805F015BB00BFF40100200400002025
:1036800013B50023074C01A91A46206805F04AFB30
:103690004FF0FF33002201A9206805F043FB02B080
:1036A00010BD00BFF4010020704770477047012033
:1036B000704754207047542303FB010008307047C3
:1036C000542303FB0100083070470120704740F687
:1036D0007820704740F6782303FB010008307047DC
:1036E00040F6782303FB0100083070470120704743
:1036F0001020704700EB01100830704700EB0110FC
:10370000083070470846FEF771BF0000034B10B544
:103710000446036006F04CFB204610BD2C090290C5
:1037200010B50446FFF7F2FF5C2120461AF012FFA5
:10373000204610BD034B10B50446036006F038FB6D
:10374000204610BDF808029010B50446FFF7F2FFBE
:103750004FF4286120461AF0FDFE204610BD0000FF
:10376000034B10B50446036006F022FB204610BD53
:10377000C408029010B50446FFF7F2FF1821204656
:103780001AF0E8FE204610BD084B10B50446036051
:1037900000F6AC20FFF7BAFF04F12C00FFF7CAFFD8
:1037A00004F11400FFF7DCFF204610BD6009029011
:1037B00010B50446FFF7E8FF40F6644120461AF0D2
:1037C000C9FE204610BD00002DE9F341FFF714FBB0
:1037D00000240546FFF714FB2346014622462846EF
:1037E00000940EF0DFFE274B274A2046274D1A6033
:1037F000FFF792FB26480EF017FE2B78BFF35B8F86
:10380000DB0738D428461AF074FE002833D0214C48
:10381000214B04F60C3604F1140004F12C0804F6D4
:10382000AC276060C4F80880E7602661236006F07A
:10383000C1FA1A4B4046636106F0BCFA184B384691
:10384000E36206F0B7FA174B04F60830C4F8AC3A56
:10385000FDF7A6FA224604F608313046FDF73EFD94
:103860003046FEF7C3FE28461AF04FFE0E4A0F49B7
:1038700020461AF06AFE0E4802B0BDE8F04100F0A2
:10388000D5B800BF7C2A0120041B0020FC010020C9
:10389000080000200002002060090290C408029085
:1038A000F80802902C09029000000020893700904F
:1038B000881A0020014800F0CFB800BF881A002005
:1038C00010B5044604211AF045FE204610BD10B57F
:1038D000044678211AF03EFE204610BD10B504467D
:1038E0007C211AF037FE204610BD0000F8B53A4C96
:1038F0003A4D3B4B22463B4F28463B492B601AF042
:1039000024FE3A4E3846FFF755FE224638493846DF
:103910001AF01BFE304611F0A1FF22463549304611
:103920001AF013FE2246344934481AF00EFE344889
:10393000002301223349C560038580F82A30C36221
:10394000038680F8483080F8492080F84A3080F8B3
:103950004B3041664FF4F07180F8683080F8693080
:1039600080F86A3080F86B30274DC0E90176C0E9F5
:103970000433C0E90633C0E90833C0E90E33C0E9B7
:103980001033C0E91333C0E91533C0E9173380F8A9
:103990006C3080F8772080F878201C4A036710602C
:1039A0001B4A80F8743011804FF4887280F87530AB
:1039B0002A80184D80F876302B70174D80F83430FF
:1039C0002980164B164903600A8022461549BDE836
:1039D000F8401AF0BABD00BF00000020640E0020BD
:1039E0008C0A0290680E0020A9360090081B002067
:1039F000B5320090AB360090C12D00900800002039
:103A0000881A002001000001162A0120202A012026
:103A1000142A0120182A01201A2A01207409029070
:103A20001C2A0120AD3600907047000038B50446CE
